{
  "contractName": "Accountable",
  "abi": [
    {
      "anonymous": false,
      "inputs": [
        {
          "indexed": false,
          "internalType": "uint256",
          "name": "amountWithdrawn",
          "type": "uint256"
        },
        {
          "indexed": false,
          "internalType": "address",
          "name": "toAccount",
          "type": "address"
        }
      ],
      "name": "contractBalanceWithdrawn",
      "type": "event"
    },
    {
      "anonymous": false,
      "inputs": [
        {
          "indexed": false,
          "internalType": "uint256",
          "name": "amountDeposited",
          "type": "uint256"
        },
        {
          "indexed": false,
          "internalType": "address",
          "name": "fromAccount",
          "type": "address"
        }
      ],
      "name": "contractDepositMade",
      "type": "event"
    },
    {
      "anonymous": false,
      "inputs": [
        {
          "indexed": false,
          "internalType": "uint256",
          "name": "amountDeposited",
          "type": "uint256"
        },
        {
          "indexed": false,
          "internalType": "address",
          "name": "fromAccount",
          "type": "address"
        }
      ],
      "name": "depositMade",
      "type": "event"
    },
    {
      "anonymous": false,
      "inputs": [
        {
          "indexed": false,
          "internalType": "uint256",
          "name": "amountWithdrawn",
          "type": "uint256"
        },
        {
          "indexed": false,
          "internalType": "address",
          "name": "toAccount",
          "type": "address"
        }
      ],
      "name": "fundsWithdrawn",
      "type": "event"
    },
    {
      "anonymous": false,
      "inputs": [
        {
          "indexed": false,
          "internalType": "address",
          "name": "user",
          "type": "address"
        },
        {
          "indexed": false,
          "internalType": "uint256",
          "name": "balance",
          "type": "uint256"
        }
      ],
      "name": "userAdded",
      "type": "event"
    },
    {
      "constant": false,
      "inputs": [],
      "name": "Destroy",
      "outputs": [],
      "payable": false,
      "stateMutability": "nonpayable",
      "type": "function"
    },
    {
      "constant": true,
      "inputs": [],
      "name": "owner",
      "outputs": [
        {
          "internalType": "address",
          "name": "",
          "type": "address"
        }
      ],
      "payable": false,
      "stateMutability": "view",
      "type": "function"
    },
    {
      "constant": false,
      "inputs": [],
      "name": "depositToContract",
      "outputs": [],
      "payable": true,
      "stateMutability": "payable",
      "type": "function"
    },
    {
      "constant": false,
      "inputs": [],
      "name": "addBettingFunds",
      "outputs": [],
      "payable": true,
      "stateMutability": "payable",
      "type": "function"
    },
    {
      "constant": false,
      "inputs": [],
      "name": "withdrawBettingFunds",
      "outputs": [],
      "payable": false,
      "stateMutability": "nonpayable",
      "type": "function"
    },
    {
      "constant": false,
      "inputs": [],
      "name": "withdrawContractBalance",
      "outputs": [],
      "payable": false,
      "stateMutability": "nonpayable",
      "type": "function"
    }
  ],
  "bytecode": "0x6080604052336000806101000a81548173ffffffffffffffffffffffffffffffffffffffff021916908373ffffffffffffffffffffffffffffffffffffffff160217905550610a12806100536000396000f3fe6080604052600436106100555760003560e01c80630eee99cf1461005a5780638da5cb5b14610071578063bfab3db9146100c8578063c8f781c2146100df578063df11460e146100e9578063f58fef8e146100f3575b600080fd5b34801561006657600080fd5b5061006f61010a565b005b34801561007d57600080fd5b506100866102e9565b604051808273ffffffffffffffffffffffffffffffffffffffff1673ffffffffffffffffffffffffffffffffffffffff16815260200191505060405180910390f35b3480156100d457600080fd5b506100dd61030e565b005b6100e761044c565b005b6100f1610584565b005b3480156100ff57600080fd5b506101086107e0565b005b6000600360003373ffffffffffffffffffffffffffffffffffffffff1673ffffffffffffffffffffffffffffffffffffffff16815260200190815260200160002060010154116101a5576040517f08c379a00000000000000000000000000000000000000000000000000000000081526004018080602001828103825260328152602001806109206032913960400191505060405180910390fd5b6000600360003373ffffffffffffffffffffffffffffffffffffffff1673ffffffffffffffffffffffffffffffffffffffff1681526020019081526020016000206001015490506000600360003373ffffffffffffffffffffffffffffffffffffffff1673ffffffffffffffffffffffffffffffffffffffff168152602001908152602001600020600101819055503373ffffffffffffffffffffffffffffffffffffffff166108fc829081150290604051600060405180830381858888f1935050505015801561027a573d6000803e3d6000fd5b507f3a565aa1aa10e8ea1c6d12af2b2fe7f8bbda86d9a7e36aa3af12a8a96563761d8133604051808381526020018273ffffffffffffffffffffffffffffffffffffffff1673ffffffffffffffffffffffffffffffffffffffff1681526020019250505060405180910390a150565b6000809054906101000a900473ffffffffffffffffffffffffffffffffffffffff1681565b6000809054906101000a900473ffffffffffffffffffffffffffffffffffffffff1673ffffffffffffffffffffffffffffffffffffffff163373ffffffffffffffffffffffffffffffffffffffff161461036757600080fd5b6000600154905060006001819055503373ffffffffffffffffffffffffffffffffffffffff166108fc829081150290604051600060405180830381858888f193505050501580156103bc573d6000803e3d6000fd5b507fc4891d77dcdeafd8e7ffcadc9fe07ce49282f45456edb916b298b14cbe92f754816000809054906101000a900473ffffffffffffffffffffffffffffffffffffffff16604051808381526020018273ffffffffffffffffffffffffffffffffffffffff1673ffffffffffffffffffffffffffffffffffffffff1681526020019250505060405180910390a150565b6000809054906101000a900473ffffffffffffffffffffffffffffffffffffffff1673ffffffffffffffffffffffffffffffffffffffff163373ffffffffffffffffffffffffffffffffffffffff16146104a557600080fd5b66470de4df82000080341015610506576040517f08c379a00000000000000000000000000000000000000000000000000000000081526004018080602001828103825260588152602001806109866058913960600191505060405180910390fd5b346001600082825401925050819055507fa66a5303a43807ac39edf6baf406c7630957962e78a89a1c92111ee118495a953433604051808381526020018273ffffffffffffffffffffffffffffffffffffffff1673ffffffffffffffffffffffffffffffffffffffff1681526020019250505060405180910390a150565b66038d7ea4c68000803410156105e5576040517f08c379a00000000000000000000000000000000000000000000000000000000081526004018080602001828103825260348152602001806109526034913960400191505060405180910390fd5b6105ed6108ef565b806000015150600360003373ffffffffffffffffffffffffffffffffffffffff1673ffffffffffffffffffffffffffffffffffffffff1681526020019081526020016000206001015481602001818152505061064881610852565b60023390806001815401808255809150509060018203906000526020600020016000909192909190916101000a81548173ffffffffffffffffffffffffffffffffffffffff021916908373ffffffffffffffffffffffffffffffffffffffff160217905550507fe25a701b51d536c7562677bbac3b14e5d925cda95bee146ca97cacbf46e17bef81600001518260200151604051808373ffffffffffffffffffffffffffffffffffffffff1673ffffffffffffffffffffffffffffffffffffffff1681526020018281526020019250505060405180910390a134600360003373ffffffffffffffffffffffffffffffffffffffff1673ffffffffffffffffffffffffffffffffffffffff168152602001908152602001600020600101600082825401925050819055507fa1d0371d72520a6b045b83f0e52b625a4a84b2ad1ffe079d0e1524ca95cfaa323433604051808381526020018273ffffffffffffffffffffffffffffffffffffffff1673ffffffffffffffffffffffffffffffffffffffff1681526020019250505060405180910390a15050565b6000809054906101000a900473ffffffffffffffffffffffffffffffffffffffff1673ffffffffffffffffffffffffffffffffffffffff163373ffffffffffffffffffffffffffffffffffffffff161461083957600080fd5b3373ffffffffffffffffffffffffffffffffffffffff16ff5b600033905081600360008373ffffffffffffffffffffffffffffffffffffffff1673ffffffffffffffffffffffffffffffffffffffff16815260200190815260200160002060008201518160000160006101000a81548173ffffffffffffffffffffffffffffffffffffffff021916908373ffffffffffffffffffffffffffffffffffffffff160217905550602082015181600101559050505050565b6040518060400160405280600073ffffffffffffffffffffffffffffffffffffffff16815260200160008152509056fe596f7520646f206e6f742063757272656e746c79206861766520616e792066756e647320666f72207769746864726177616c596f75206d757374206465706f736974206174206c6561737420312046696e6e657920746f20706c617920746869732067616d654d696e696d756d206465706f73697420746f20636f6e7472616374206973206174206c656173742032302046696e6e6579202877686963682077696c6c20636f766572206174206c656173742032206d6178206265747329a265627a7a723158206ea66cc0539b4159bb49bfb51a8e70cc4ee3971e2a485257106ce7da297598ac64736f6c634300050c0032",
  "source": "import \"./Ownable.sol\";\r\nimport \"./Destroyable.sol\";\r\n\r\npragma solidity 0.5.12;\r\n\r\ncontract Accountable is Ownable, Destroyable {\r\n\r\n    uint internal contractBalance;\r\n\r\n    modifier betDeposit(uint minimumAmount){\r\n        require (msg.value >= minimumAmount, \"You must deposit at least 1 Finney to play this game\");\r\n        _;\r\n    }\r\n\r\n    modifier contractDeposit(uint minimumAmount){\r\n        require (msg.value >= minimumAmount, \"Minimum deposit to contract is at least 20 Finney (which will cover at least 2 max bets)\");\r\n        _;\r\n    }\r\n\r\n\r\n    struct Punter {\r\n        address userAddress;\r\n        uint balance;\r\n    }\r\n\r\n    address[] internal puntersAddresses;\r\n\r\n\r\n\r\n    mapping(address => Punter) internal punters;\r\n\r\n\r\n    event userAdded(address user, uint balance);\r\n    event contractDepositMade(uint amountDeposited, address fromAccount);\r\n    event depositMade(uint amountDeposited, address fromAccount);\r\n    event fundsWithdrawn(uint amountWithdrawn, address toAccount);\r\n    event contractBalanceWithdrawn(uint amountWithdrawn, address toAccount);\r\n\r\n\r\n    function depositToContract() public payable onlyOwner contractDeposit(20 finney) {\r\n        contractBalance += msg.value;\r\n\r\n        emit contractDepositMade(msg.value, msg.sender);\r\n    }\r\n\r\n\r\n    function addBettingFunds() public payable betDeposit(1 finney) {\r\n        Punter memory newPunter;\r\n        newPunter.userAddress;\r\n        newPunter.balance = punters[msg.sender].balance;\r\n\r\n        insertPunter(newPunter);\r\n        puntersAddresses.push(msg.sender);\r\n\r\n        emit userAdded(newPunter.userAddress, newPunter.balance);\r\n\r\n        punters[msg.sender].balance += msg.value;\r\n\r\n        emit depositMade(msg.value, msg.sender);\r\n    }\r\n\r\n    function insertPunter(Punter memory newPunter) private {\r\n        address punter = msg.sender;\r\n        punters[punter] = newPunter;\r\n    }\r\n\r\n        function withdrawBettingFunds() public {\r\n        require(punters[msg.sender].balance > 0, \"You do not currently have any funds for withdrawal\");\r\n        uint toTransfer = punters[msg.sender].balance;\r\n        punters[msg.sender].balance = 0;\r\n        msg.sender.transfer(toTransfer);\r\n        emit fundsWithdrawn(toTransfer, msg.sender);\r\n    }\r\n\r\n\r\n    function withdrawContractBalance() public onlyOwner {\r\n        uint toTransfer = contractBalance;\r\n        contractBalance = 0;\r\n        msg.sender.transfer(toTransfer);\r\n        emit contractBalanceWithdrawn(toTransfer, owner);\r\n    }\r\n\r\n}\r\n",
  "sourcePath": "D:\\Justin\\Documents\\Justin\\Ethereum\\CryptoCasino\\contracts\\Accountable.sol",
  "compiler": {
    "name": "solc",
    "version": "0.5.12+commit.7709ece9.Emscripten.clang"
  },
  "schemaVersion": "3.0.16",
  "updatedAt": "2020-09-19T13:07:35.317Z",
  "devdoc": {
    "methods": {}
  },
  "userdoc": {
    "methods": {}
  }
}