{
  "contractName": "Callable",
  "abi": [
    {
      "anonymous": false,
      "inputs": [
        {
          "indexed": false,
          "internalType": "uint256",
          "name": "amountBet",
          "type": "uint256"
        },
        {
          "indexed": false,
          "internalType": "uint256",
          "name": "newBalance",
          "type": "uint256"
        }
      ],
      "name": "BetPlaced",
      "type": "event"
    },
    {
      "anonymous": false,
      "inputs": [
        {
          "indexed": false,
          "internalType": "uint256",
          "name": "userCard",
          "type": "uint256"
        },
        {
          "indexed": false,
          "internalType": "string",
          "name": "betChoice",
          "type": "string"
        },
        {
          "indexed": false,
          "internalType": "uint256",
          "name": "houseCard",
          "type": "uint256"
        },
        {
          "indexed": false,
          "internalType": "string",
          "name": "winner",
          "type": "string"
        }
      ],
      "name": "DrawOutResult",
      "type": "event"
    },
    {
      "anonymous": false,
      "inputs": [
        {
          "indexed": false,
          "internalType": "uint256",
          "name": "payoutAmount",
          "type": "uint256"
        },
        {
          "indexed": false,
          "internalType": "address",
          "name": "recipient",
          "type": "address"
        }
      ],
      "name": "Payout",
      "type": "event"
    },
    {
      "anonymous": false,
      "inputs": [
        {
          "indexed": false,
          "internalType": "uint256",
          "name": "rollResult",
          "type": "uint256"
        },
        {
          "indexed": false,
          "internalType": "uint256",
          "name": "choice",
          "type": "uint256"
        },
        {
          "indexed": false,
          "internalType": "string",
          "name": "winner",
          "type": "string"
        },
        {
          "indexed": false,
          "internalType": "uint256",
          "name": "payoutAmount",
          "type": "uint256"
        },
        {
          "indexed": false,
          "internalType": "address",
          "name": "recipient",
          "type": "address"
        }
      ],
      "name": "Results",
      "type": "event"
    },
    {
      "anonymous": false,
      "inputs": [
        {
          "indexed": false,
          "internalType": "string",
          "name": "flipResult",
          "type": "string"
        },
        {
          "indexed": false,
          "internalType": "string",
          "name": "choice",
          "type": "string"
        },
        {
          "indexed": false,
          "internalType": "string",
          "name": "winner",
          "type": "string"
        },
        {
          "indexed": false,
          "internalType": "uint256",
          "name": "payoutAmount",
          "type": "uint256"
        },
        {
          "indexed": false,
          "internalType": "address",
          "name": "recipient",
          "type": "address"
        }
      ],
      "name": "Results",
      "type": "event"
    },
    {
      "anonymous": false,
      "inputs": [
        {
          "indexed": false,
          "internalType": "uint256",
          "name": "amountWithdrawn",
          "type": "uint256"
        },
        {
          "indexed": false,
          "internalType": "address",
          "name": "toAccount",
          "type": "address"
        }
      ],
      "name": "contractBalanceWithdrawn",
      "type": "event"
    },
    {
      "anonymous": false,
      "inputs": [
        {
          "indexed": false,
          "internalType": "uint256",
          "name": "amountDeposited",
          "type": "uint256"
        },
        {
          "indexed": false,
          "internalType": "address",
          "name": "fromAccount",
          "type": "address"
        }
      ],
      "name": "contractDepositMade",
      "type": "event"
    },
    {
      "anonymous": false,
      "inputs": [
        {
          "indexed": false,
          "internalType": "uint256",
          "name": "amountDeposited",
          "type": "uint256"
        },
        {
          "indexed": false,
          "internalType": "address",
          "name": "fromAccount",
          "type": "address"
        }
      ],
      "name": "depositMade",
      "type": "event"
    },
    {
      "anonymous": false,
      "inputs": [
        {
          "indexed": false,
          "internalType": "uint256",
          "name": "amountWithdrawn",
          "type": "uint256"
        },
        {
          "indexed": false,
          "internalType": "address",
          "name": "toAccount",
          "type": "address"
        }
      ],
      "name": "fundsWithdrawn",
      "type": "event"
    },
    {
      "anonymous": false,
      "inputs": [
        {
          "indexed": false,
          "internalType": "address",
          "name": "user",
          "type": "address"
        },
        {
          "indexed": false,
          "internalType": "uint256",
          "name": "balance",
          "type": "uint256"
        }
      ],
      "name": "userAdded",
      "type": "event"
    },
    {
      "constant": false,
      "inputs": [],
      "name": "Destroy",
      "outputs": [],
      "payable": false,
      "stateMutability": "nonpayable",
      "type": "function"
    },
    {
      "constant": false,
      "inputs": [],
      "name": "addBettingFunds",
      "outputs": [],
      "payable": true,
      "stateMutability": "payable",
      "type": "function"
    },
    {
      "constant": false,
      "inputs": [],
      "name": "depositToContract",
      "outputs": [],
      "payable": true,
      "stateMutability": "payable",
      "type": "function"
    },
    {
      "constant": false,
      "inputs": [
        {
          "internalType": "uint256",
          "name": "amountToBet",
          "type": "uint256"
        }
      ],
      "name": "drawHouseCard",
      "outputs": [
        {
          "internalType": "uint256",
          "name": "card",
          "type": "uint256"
        }
      ],
      "payable": false,
      "stateMutability": "nonpayable",
      "type": "function"
    },
    {
      "constant": false,
      "inputs": [
        {
          "internalType": "bool",
          "name": "high",
          "type": "bool"
        }
      ],
      "name": "drawUserCard",
      "outputs": [],
      "payable": false,
      "stateMutability": "nonpayable",
      "type": "function"
    },
    {
      "constant": false,
      "inputs": [
        {
          "internalType": "uint256",
          "name": "amountToBet",
          "type": "uint256"
        },
        {
          "internalType": "uint256",
          "name": "betChoice",
          "type": "uint256"
        }
      ],
      "name": "flipIt",
      "outputs": [],
      "payable": false,
      "stateMutability": "nonpayable",
      "type": "function"
    },
    {
      "constant": true,
      "inputs": [],
      "name": "owner",
      "outputs": [
        {
          "internalType": "address",
          "name": "",
          "type": "address"
        }
      ],
      "payable": false,
      "stateMutability": "view",
      "type": "function"
    },
    {
      "constant": true,
      "inputs": [],
      "name": "randomNumberHouse",
      "outputs": [
        {
          "internalType": "uint256",
          "name": "result",
          "type": "uint256"
        }
      ],
      "payable": false,
      "stateMutability": "view",
      "type": "function"
    },
    {
      "constant": true,
      "inputs": [],
      "name": "randomNumberUser",
      "outputs": [
        {
          "internalType": "uint256",
          "name": "result",
          "type": "uint256"
        }
      ],
      "payable": false,
      "stateMutability": "view",
      "type": "function"
    },
    {
      "constant": false,
      "inputs": [
        {
          "internalType": "uint256",
          "name": "amountToBet",
          "type": "uint256"
        },
        {
          "internalType": "uint256",
          "name": "choice",
          "type": "uint256"
        }
      ],
      "name": "rollIt",
      "outputs": [],
      "payable": false,
      "stateMutability": "nonpayable",
      "type": "function"
    },
    {
      "constant": false,
      "inputs": [],
      "name": "withdrawBettingFunds",
      "outputs": [],
      "payable": false,
      "stateMutability": "nonpayable",
      "type": "function"
    },
    {
      "constant": false,
      "inputs": [],
      "name": "withdrawContractBalance",
      "outputs": [],
      "payable": false,
      "stateMutability": "nonpayable",
      "type": "function"
    },
    {
      "constant": true,
      "inputs": [],
      "name": "getContractInfo",
      "outputs": [
        {
          "internalType": "address",
          "name": "contractAddress",
          "type": "address"
        },
        {
          "internalType": "uint256",
          "name": "balance",
          "type": "uint256"
        }
      ],
      "payable": false,
      "stateMutability": "view",
      "type": "function"
    },
    {
      "constant": true,
      "inputs": [],
      "name": "getUserInfo",
      "outputs": [
        {
          "internalType": "address",
          "name": "user",
          "type": "address"
        },
        {
          "internalType": "uint256",
          "name": "balance",
          "type": "uint256"
        },
        {
          "internalType": "uint256",
          "name": "flipChoice",
          "type": "uint256"
        },
        {
          "internalType": "uint256",
          "name": "rollChoice",
          "type": "uint256"
        },
        {
          "internalType": "bool",
          "name": "betHigh",
          "type": "bool"
        }
      ],
      "payable": false,
      "stateMutability": "view",
      "type": "function"
    },
    {
      "constant": true,
      "inputs": [],
      "name": "getResults",
      "outputs": [
        {
          "internalType": "uint256",
          "name": "flipOut",
          "type": "uint256"
        },
        {
          "internalType": "uint256",
          "name": "rollOut",
          "type": "uint256"
        },
        {
          "internalType": "uint256",
          "name": "drawOutUser",
          "type": "uint256"
        },
        {
          "internalType": "uint256",
          "name": "drawOutHouse",
          "type": "uint256"
        }
      ],
      "payable": false,
      "stateMutability": "view",
      "type": "function"
    }
  ],
  "bytecode": "0x6080604052336000806101000a81548173ffffffffffffffffffffffffffffffffffffffff021916908373ffffffffffffffffffffffffffffffffffffffff16021790555061374b806100536000396000f3fe6080604052600436106100e85760003560e01c8063853b88501161008a578063bfab3db911610059578063bfab3db9146103dc578063c8f781c2146103f3578063df11460e146103fd578063f58fef8e14610407576100e8565b8063853b8850146102ce5780638da5cb5b1461031d57806390e508f114610374578063baa30062146103b1576100e8565b80634cf5350a116100c65780634cf5350a1461016f578063512a5637146101b45780635d8d1585146101f95780637cc1f86714610270576100e8565b80630eee99cf146100ed5780633bca1c7f146101045780634717f97c1461012f575b600080fd5b3480156100f957600080fd5b5061010261041e565b005b34801561011057600080fd5b506101196105fd565b6040518082815260200191505060405180910390f35b34801561013b57600080fd5b5061014461069e565b6040518085815260200184815260200183815260200182815260200194505050505060405180910390f35b34801561017b57600080fd5b506101b26004803603604081101561019257600080fd5b8101908080359060200190929190803590602001909291905050506106ca565b005b3480156101c057600080fd5b506101f7600480360360408110156101d757600080fd5b8101908080359060200190929190803590602001909291905050506115de565b005b34801561020557600080fd5b5061020e612041565b604051808673ffffffffffffffffffffffffffffffffffffffff1673ffffffffffffffffffffffffffffffffffffffff168152602001858152602001848152602001838152602001821515151581526020019550505050505060405180910390f35b34801561027c57600080fd5b506102856120a7565b604051808373ffffffffffffffffffffffffffffffffffffffff1673ffffffffffffffffffffffffffffffffffffffff1681526020018281526020019250505060405180910390f35b3480156102da57600080fd5b50610307600480360360208110156102f157600080fd5b81019080803590602001909291905050506120dd565b6040518082815260200191505060405180910390f35b34801561032957600080fd5b506103326124c1565b604051808273ffffffffffffffffffffffffffffffffffffffff1673ffffffffffffffffffffffffffffffffffffffff16815260200191505060405180910390f35b34801561038057600080fd5b506103af6004803603602081101561039757600080fd5b810190808035151590602001909291905050506124e6565b005b3480156103bd57600080fd5b506103c6612be8565b6040518082815260200191505060405180910390f35b3480156103e857600080fd5b506103f1612c68565b005b6103fb612da6565b005b610405612ede565b005b34801561041357600080fd5b5061041c61313a565b005b6000600360003373ffffffffffffffffffffffffffffffffffffffff1673ffffffffffffffffffffffffffffffffffffffff16815260200190815260200160002060010154116104b9576040517f08c379a00000000000000000000000000000000000000000000000000000000081526004018080602001828103825260328152602001806133d86032913960400191505060405180910390fd5b6000600360003373ffffffffffffffffffffffffffffffffffffffff1673ffffffffffffffffffffffffffffffffffffffff1681526020019081526020016000206001015490506000600360003373ffffffffffffffffffffffffffffffffffffffff1673ffffffffffffffffffffffffffffffffffffffff168152602001908152602001600020600101819055503373ffffffffffffffffffffffffffffffffffffffff166108fc829081150290604051600060405180830381858888f1935050505015801561058e573d6000803e3d6000fd5b507f3a565aa1aa10e8ea1c6d12af2b2fe7f8bbda86d9a7e36aa3af12a8a96563761d8133604051808381526020018273ffffffffffffffffffffffffffffffffffffffff1673ffffffffffffffffffffffffffffffffffffffff1681526020019250505060405180910390a150565b6000806000809054906101000a900473ffffffffffffffffffffffffffffffffffffffff1642604051602001808373ffffffffffffffffffffffffffffffffffffffff1673ffffffffffffffffffffffffffffffffffffffff1660601b8152601401828152602001925050506040516020818303038152906040528051906020012060001c905060006001600d838161069257fe5b06019050809250505090565b600080600080600454935060065492506008549150600954905083838383935093509350935090919293565b6001821015610724576040517f08c379a00000000000000000000000000000000000000000000000000000000081526004018080602001828103825260248152602001806135a56024913960400191505060405180910390fd5b60018110158015610736575060068111155b61078b576040517f08c379a00000000000000000000000000000000000000000000000000000000081526004018080602001828103825260338152602001806136466033913960400191505060405180910390fd5b600066038d7ea4c680008302905080600360003373ffffffffffffffffffffffffffffffffffffffff1673ffffffffffffffffffffffffffffffffffffffff168152602001908152602001600020600101541015610834576040517f08c379a00000000000000000000000000000000000000000000000000000000081526004018080602001828103825260448152602001806136026044913960600191505060405180910390fd5b600581026001541015610892576040517f08c379a00000000000000000000000000000000000000000000000000000000081526004018080602001828103825260648152602001806135416064913960800191505060405180910390fd5b80600360003373ffffffffffffffffffffffffffffffffffffffff1673ffffffffffffffffffffffffffffffffffffffff16815260200190815260200160002060010160008282540392505081905550806001600082825401925050819055507fac7ba36fe6c4c7a9dd581814563bf9c3e83cbf25f9971fe6378954bce56ab45681600360003373ffffffffffffffffffffffffffffffffffffffff1673ffffffffffffffffffffffffffffffffffffffff16815260200190815260200160002060010154604051808381526020018281526020019250505060405180910390a1816007819055506109826131ac565b60068190555060006006820290506001831415610b9c5760016006541415610abf5780600360003373ffffffffffffffffffffffffffffffffffffffff1673ffffffffffffffffffffffffffffffffffffffff16815260200190815260200160002060010160008282540192505081905550806001600082825403925050819055507f2d28c56c75065cf80911d9be9761054d5e4ba935873313e96e816a4937d2c31460065484833360405180858152602001848152602001806020018481526020018373ffffffffffffffffffffffffffffffffffffffff1673ffffffffffffffffffffffffffffffffffffffff1681526020018281038252600a8152602001807f54686520506c61796572000000000000000000000000000000000000000000008152506020019550505050505060405180910390a1610b97565b7f2d28c56c75065cf80911d9be9761054d5e4ba935873313e96e816a4937d2c31460065484846000809054906101000a900473ffffffffffffffffffffffffffffffffffffffff1660405180858152602001848152602001806020018481526020018373ffffffffffffffffffffffffffffffffffffffff1673ffffffffffffffffffffffffffffffffffffffff168152602001828103825260098152602001807f54686520486f75736500000000000000000000000000000000000000000000008152506020019550505050505060405180910390a15b6115d8565b6002831415610da85760026006541415610ccb5780600360003373ffffffffffffffffffffffffffffffffffffffff1673ffffffffffffffffffffffffffffffffffffffff16815260200190815260200160002060010160008282540192505081905550806001600082825403925050819055507f2d28c56c75065cf80911d9be9761054d5e4ba935873313e96e816a4937d2c31460065484833360405180858152602001848152602001806020018481526020018373ffffffffffffffffffffffffffffffffffffffff1673ffffffffffffffffffffffffffffffffffffffff1681526020018281038252600a8152602001807f54686520506c61796572000000000000000000000000000000000000000000008152506020019550505050505060405180910390a1610da3565b7f2d28c56c75065cf80911d9be9761054d5e4ba935873313e96e816a4937d2c31460065484846000809054906101000a900473ffffffffffffffffffffffffffffffffffffffff1660405180858152602001848152602001806020018481526020018373ffffffffffffffffffffffffffffffffffffffff1673ffffffffffffffffffffffffffffffffffffffff168152602001828103825260098152602001807f54686520486f75736500000000000000000000000000000000000000000000008152506020019550505050505060405180910390a15b6115d7565b6003831415610fb45760036006541415610ed75780600360003373ffffffffffffffffffffffffffffffffffffffff1673ffffffffffffffffffffffffffffffffffffffff16815260200190815260200160002060010160008282540192505081905550806001600082825403925050819055507f2d28c56c75065cf80911d9be9761054d5e4ba935873313e96e816a4937d2c31460065484833360405180858152602001848152602001806020018481526020018373ffffffffffffffffffffffffffffffffffffffff1673ffffffffffffffffffffffffffffffffffffffff1681526020018281038252600a8152602001807f54686520506c61796572000000000000000000000000000000000000000000008152506020019550505050505060405180910390a1610faf565b7f2d28c56c75065cf80911d9be9761054d5e4ba935873313e96e816a4937d2c31460065484846000809054906101000a900473ffffffffffffffffffffffffffffffffffffffff1660405180858152602001848152602001806020018481526020018373ffffffffffffffffffffffffffffffffffffffff1673ffffffffffffffffffffffffffffffffffffffff168152602001828103825260098152602001807f54686520486f75736500000000000000000000000000000000000000000000008152506020019550505050505060405180910390a15b6115d6565b60048314156111c057600460065414156110e35780600360003373ffffffffffffffffffffffffffffffffffffffff1673ffffffffffffffffffffffffffffffffffffffff16815260200190815260200160002060010160008282540192505081905550806001600082825403925050819055507f2d28c56c75065cf80911d9be9761054d5e4ba935873313e96e816a4937d2c31460065484833360405180858152602001848152602001806020018481526020018373ffffffffffffffffffffffffffffffffffffffff1673ffffffffffffffffffffffffffffffffffffffff1681526020018281038252600a8152602001807f54686520506c61796572000000000000000000000000000000000000000000008152506020019550505050505060405180910390a16111bb565b7f2d28c56c75065cf80911d9be9761054d5e4ba935873313e96e816a4937d2c31460065484846000809054906101000a900473ffffffffffffffffffffffffffffffffffffffff1660405180858152602001848152602001806020018481526020018373ffffffffffffffffffffffffffffffffffffffff1673ffffffffffffffffffffffffffffffffffffffff168152602001828103825260098152602001807f54686520486f75736500000000000000000000000000000000000000000000008152506020019550505050505060405180910390a15b6115d5565b60058314156113cc57600560065414156112ef5780600360003373ffffffffffffffffffffffffffffffffffffffff1673ffffffffffffffffffffffffffffffffffffffff16815260200190815260200160002060010160008282540192505081905550806001600082825403925050819055507f2d28c56c75065cf80911d9be9761054d5e4ba935873313e96e816a4937d2c31460065484833360405180858152602001848152602001806020018481526020018373ffffffffffffffffffffffffffffffffffffffff1673ffffffffffffffffffffffffffffffffffffffff1681526020018281038252600a8152602001807f54686520506c61796572000000000000000000000000000000000000000000008152506020019550505050505060405180910390a16113c7565b7f2d28c56c75065cf80911d9be9761054d5e4ba935873313e96e816a4937d2c31460065484846000809054906101000a900473ffffffffffffffffffffffffffffffffffffffff1660405180858152602001848152602001806020018481526020018373ffffffffffffffffffffffffffffffffffffffff1673ffffffffffffffffffffffffffffffffffffffff168152602001828103825260098152602001807f54686520486f75736500000000000000000000000000000000000000000000008152506020019550505050505060405180910390a15b6115d4565b60068314156115d3576006805414156114fa5780600360003373ffffffffffffffffffffffffffffffffffffffff1673ffffffffffffffffffffffffffffffffffffffff16815260200190815260200160002060010160008282540192505081905550806001600082825403925050819055507f2d28c56c75065cf80911d9be9761054d5e4ba935873313e96e816a4937d2c31460065484833360405180858152602001848152602001806020018481526020018373ffffffffffffffffffffffffffffffffffffffff1673ffffffffffffffffffffffffffffffffffffffff1681526020018281038252600a8152602001807f54686520506c61796572000000000000000000000000000000000000000000008152506020019550505050505060405180910390a16115d2565b7f2d28c56c75065cf80911d9be9761054d5e4ba935873313e96e816a4937d2c31460065484846000809054906101000a900473ffffffffffffffffffffffffffffffffffffffff1660405180858152602001848152602001806020018481526020018373ffffffffffffffffffffffffffffffffffffffff1673ffffffffffffffffffffffffffffffffffffffff168152602001828103825260098152602001807f54686520486f75736500000000000000000000000000000000000000000000008152506020019550505050505060405180910390a15b5b5b5b5b5b5b50505050565b6001821015611638576040517f08c379a00000000000000000000000000000000000000000000000000000000081526004018080602001828103825260408152602001806133986040913960400191505060405180910390fd5b60018114806116475750600081145b61169c576040517f08c379a000000000000000000000000000000000000000000000000000000000815260040180806020018281038252603281526020018061350f6032913960400191505060405180910390fd5b66038d7ea4c68000600360003373ffffffffffffffffffffffffffffffffffffffff1673ffffffffffffffffffffffffffffffffffffffff16815260200190815260200160002060010154101561173e576040517f08c379a000000000000000000000000000000000000000000000000000000000815260040180806020018281038252603f8152602001806134d0603f913960400191505060405180910390fd5b600066038d7ea4c680008302905080600360003373ffffffffffffffffffffffffffffffffffffffff1673ffffffffffffffffffffffffffffffffffffffff1681526020019081526020016000206001015410156117e7576040517f08c379a000000000000000000000000000000000000000000000000000000000815260040180806020018281038252606c815260200180613430606c913960800191505060405180910390fd5b806001541015611842576040517f08c379a00000000000000000000000000000000000000000000000000000000081526004018080602001828103825260648152602001806135416064913960800191505060405180910390fd5b80600360003373ffffffffffffffffffffffffffffffffffffffff1673ffffffffffffffffffffffffffffffffffffffff168152602001908152602001600020600101600082825403925050819055507fac7ba36fe6c4c7a9dd581814563bf9c3e83cbf25f9971fe6378954bce56ab45681600360003373ffffffffffffffffffffffffffffffffffffffff1673ffffffffffffffffffffffffffffffffffffffff16815260200190815260200160002060010154604051808381526020018281526020019250505060405180910390a160606001831415611963576040518060400160405280600581526020017f4865616473000000000000000000000000000000000000000000000000000000815250905060016005819055506119a4565b6040518060400160405280600581526020017f5461696c73000000000000000000000000000000000000000000000000000000815250905060006005819055505b6119ac61322c565b60048190555060006002830290506001841415611cfa5760016004541415611b7d5780600360003373ffffffffffffffffffffffffffffffffffffffff1673ffffffffffffffffffffffffffffffffffffffff16815260200190815260200160002060010160008282540192505081905550826001600082825403925050819055507f640d7da0f8223463f7785fd90a9ac80ecaf99d511f88d48bd1b8cfe250fe0ecf828233604051808060200180602001806020018681526020018573ffffffffffffffffffffffffffffffffffffffff1673ffffffffffffffffffffffffffffffffffffffff168152602001848103845260058152602001807f4865616473000000000000000000000000000000000000000000000000000000815250602001848103835287818151815260200191508051906020019080838360005b83811015611b06578082015181840152602081019050611aeb565b50505050905090810190601f168015611b335780820380516001836020036101000a031916815260200191505b508481038252600a8152602001807f54686520506c6179657200000000000000000000000000000000000000000000815250602001965050505050505060405180910390a1611cf9565b826001600082825401925050819055507f640d7da0f8223463f7785fd90a9ac80ecaf99d511f88d48bd1b8cfe250fe0ecf82846000809054906101000a900473ffffffffffffffffffffffffffffffffffffffff16604051808060200180602001806020018681526020018573ffffffffffffffffffffffffffffffffffffffff1673ffffffffffffffffffffffffffffffffffffffff168152602001848103845260058152602001807f5461696c73000000000000000000000000000000000000000000000000000000815250602001848103835287818151815260200191508051906020019080838360005b83811015611c86578082015181840152602081019050611c6b565b50505050905090810190601f168015611cb35780820380516001836020036101000a031916815260200191505b50848103825260098152602001807f54686520486f7573650000000000000000000000000000000000000000000000815250602001965050505050505060405180910390a15b5b600084141561203a5760006004541415611ebd5780600360003373ffffffffffffffffffffffffffffffffffffffff1673ffffffffffffffffffffffffffffffffffffffff16815260200190815260200160002060010160008282540192505081905550826001600082825403925050819055507f640d7da0f8223463f7785fd90a9ac80ecaf99d511f88d48bd1b8cfe250fe0ecf828233604051808060200180602001806020018681526020018573ffffffffffffffffffffffffffffffffffffffff1673ffffffffffffffffffffffffffffffffffffffff168152602001848103845260058152602001807f5461696c73000000000000000000000000000000000000000000000000000000815250602001848103835287818151815260200191508051906020019080838360005b83811015611e46578082015181840152602081019050611e2b565b50505050905090810190601f168015611e735780820380516001836020036101000a031916815260200191505b508481038252600a8152602001807f54686520506c6179657200000000000000000000000000000000000000000000815250602001965050505050505060405180910390a1612039565b826001600082825401925050819055507f640d7da0f8223463f7785fd90a9ac80ecaf99d511f88d48bd1b8cfe250fe0ecf82846000809054906101000a900473ffffffffffffffffffffffffffffffffffffffff16604051808060200180602001806020018681526020018573ffffffffffffffffffffffffffffffffffffffff1673ffffffffffffffffffffffffffffffffffffffff168152602001848103845260058152602001807f4865616473000000000000000000000000000000000000000000000000000000815250602001848103835287818151815260200191508051906020019080838360005b83811015611fc6578082015181840152602081019050611fab565b50505050905090810190601f168015611ff35780820380516001836020036101000a031916815260200191505b50848103825260098152602001807f54686520486f7573650000000000000000000000000000000000000000000000815250602001965050505050505060405180910390a15b5b5050505050565b6000806000806000339450600360003373ffffffffffffffffffffffffffffffffffffffff1673ffffffffffffffffffffffffffffffffffffffff1681526020019081526020016000206001015493508484848484945094509450945094509091929394565b6000806000809054906101000a900473ffffffffffffffffffffffffffffffffffffffff16915060015490508181915091509091565b600066038d7ea4c68000600360003373ffffffffffffffffffffffffffffffffffffffff1673ffffffffffffffffffffffffffffffffffffffff168152602001908152602001600020600101541015612181576040517f08c379a000000000000000000000000000000000000000000000000000000000815260040180806020018281038252603f8152602001806134d0603f913960400191505060405180910390fd5b60018210156121db576040517f08c379a000000000000000000000000000000000000000000000000000000000815260040180806020018281038252602681526020018061340a6026913960400191505060405180910390fd5b66038d7ea4c680008202600b81905550600b54600360003373ffffffffffffffffffffffffffffffffffffffff1673ffffffffffffffffffffffffffffffffffffffff168152602001908152602001600020600101541015612288576040517f08c379a000000000000000000000000000000000000000000000000000000000815260040180806020018281038252606c815260200180613430606c913960800191505060405180910390fd5b600b5460015410156122e5576040517f08c379a00000000000000000000000000000000000000000000000000000000081526004018080602001828103825260648152602001806135416064913960800191505060405180910390fd5b600b54600360003373ffffffffffffffffffffffffffffffffffffffff1673ffffffffffffffffffffffffffffffffffffffff168152602001908152602001600020600101600082825403925050819055507fac7ba36fe6c4c7a9dd581814563bf9c3e83cbf25f9971fe6378954bce56ab456600b54600360003373ffffffffffffffffffffffffffffffffffffffff1673ffffffffffffffffffffffffffffffffffffffff16815260200190815260200160002060010154604051808381526020018281526020019250505060405180910390a16123c26105fd565b600981905550600160095414806123db5750600d600954145b156124a457600b54600360003373ffffffffffffffffffffffffffffffffffffffff1673ffffffffffffffffffffffffffffffffffffffff168152602001908152602001600020600101600082825401925050819055507f9b5d1a613fa5f0790b36b13103706e31fca06b229d87e9915b29fc20c1d76490600b5433604051808381526020018273ffffffffffffffffffffffffffffffffffffffff1673ffffffffffffffffffffffffffffffffffffffff1681526020019250505060405180910390a16124b7565b600b546001600082825401925050819055505b6009549050919050565b6000809054906101000a900473ffffffffffffffffffffffffffffffffffffffff1681565b6001151581151514806124fd575060001515811515145b612552576040517f08c379a00000000000000000000000000000000000000000000000000000000081526004018080602001828103825260398152602001806135c96039913960400191505060405180910390fd5b6002600954101580156125685750600c60095411155b6125bd576040517f08c379a00000000000000000000000000000000000000000000000000000000081526004018080602001828103825260468152602001806136d16046913960600191505060405180910390fd5b80600a60006101000a81548160ff0219169083151502179055506125df612be8565b6008819055506000600a600b54816125f357fe5b0490506000600260095414156126275760011515831515141561261b57600b82029050612622565b6082820290505b6127e9565b600360095414156126565760011515831515141561264a57600d82029050612651565b6041820290505b6127e8565b600460095414156126855760011515831515141561267957600e82029050612680565b602a820290505b6127e7565b600560095414156126b4576001151583151514156126a8576010820290506126af565b6020820290505b6127e6565b600660095414156126e3576001151583151514156126d7576012820290506126de565b601a820290505b6127e5565b600760095414156126f9576015820290506127e4565b600860095414156127285760011515831515141561271c57601a82029050612723565b6012820290505b6127e3565b6009805414156127565760011515831515141561274a57602082029050612751565b6010820290505b6127e2565b600a60095414156127855760011515831515141561277957602a82029050612780565b600e820290505b6127e1565b600b60095414156127b4576001151583151514156127a8576041820290506127af565b600d820290505b6127e0565b600c60095414156127df576001151583151514156127d7576082820290506127de565b600b820290505b5b5b5b5b5b5b5b5b5b5b5b6060600115158415151415612831576040518060400160405280600481526020017f486967680000000000000000000000000000000000000000000000000000000081525090505b600015158415151415612877576040518060400160405280600381526020017f4c6f77000000000000000000000000000000000000000000000000000000000081525090505b6001151584151514801561288e5750600954600854115b806128ac5750600015158415151480156128ab5750600954600854105b5b15612a6a5781600360003373ffffffffffffffffffffffffffffffffffffffff1673ffffffffffffffffffffffffffffffffffffffff16815260200190815260200160002060010160008282540192505081905550816001600082825403925050819055507f66988de99284ff1bda6a6b7897bb54f716ad5f325702d148b0c2f7b471538fb360085482600954604051808481526020018060200183815260200180602001838103835285818151815260200191508051906020019080838360005b8381101561298957808201518184015260208101905061296e565b50505050905090810190601f1680156129b65780820380516001836020036101000a031916815260200191505b50838103825260068152602001807f506c6179657200000000000000000000000000000000000000000000000000008152506020019550505050505060405180910390a17f9b5d1a613fa5f0790b36b13103706e31fca06b229d87e9915b29fc20c1d764908233604051808381526020018273ffffffffffffffffffffffffffffffffffffffff1673ffffffffffffffffffffffffffffffffffffffff1681526020019250505060405180910390a1612be2565b7f66988de99284ff1bda6a6b7897bb54f716ad5f325702d148b0c2f7b471538fb360085482600954604051808481526020018060200183815260200180602001838103835285818151815260200191508051906020019080838360005b83811015612ae2578082015181840152602081019050612ac7565b50505050905090810190601f168015612b0f5780820380516001836020036101000a031916815260200191505b50838103825260098152602001807f54686520486f75736500000000000000000000000000000000000000000000008152506020019550505050505060405180910390a17f9b5d1a613fa5f0790b36b13103706e31fca06b229d87e9915b29fc20c1d76490600b546000809054906101000a900473ffffffffffffffffffffffffffffffffffffffff16604051808381526020018273ffffffffffffffffffffffffffffffffffffffff1673ffffffffffffffffffffffffffffffffffffffff1681526020019250505060405180910390a15b50505050565b6000803342604051602001808373ffffffffffffffffffffffffffffffffffffffff1673ffffffffffffffffffffffffffffffffffffffff1660601b8152601401828152602001925050506040516020818303038152906040528051906020012060001c905060006001600d8381612c5c57fe5b06019050809250505090565b6000809054906101000a900473ffffffffffffffffffffffffffffffffffffffff1673ffffffffffffffffffffffffffffffffffffffff163373ffffffffffffffffffffffffffffffffffffffff1614612cc157600080fd5b6000600154905060006001819055503373ffffffffffffffffffffffffffffffffffffffff166108fc829081150290604051600060405180830381858888f19350505050158015612d16573d6000803e3d6000fd5b507fc4891d77dcdeafd8e7ffcadc9fe07ce49282f45456edb916b298b14cbe92f754816000809054906101000a900473ffffffffffffffffffffffffffffffffffffffff16604051808381526020018273ffffffffffffffffffffffffffffffffffffffff1673ffffffffffffffffffffffffffffffffffffffff1681526020019250505060405180910390a150565b6000809054906101000a900473ffffffffffffffffffffffffffffffffffffffff1673ffffffffffffffffffffffffffffffffffffffff163373ffffffffffffffffffffffffffffffffffffffff1614612dff57600080fd5b66470de4df82000080341015612e60576040517f08c379a00000000000000000000000000000000000000000000000000000000081526004018080602001828103825260588152602001806136796058913960600191505060405180910390fd5b346001600082825401925050819055507fa66a5303a43807ac39edf6baf406c7630957962e78a89a1c92111ee118495a953433604051808381526020018273ffffffffffffffffffffffffffffffffffffffff1673ffffffffffffffffffffffffffffffffffffffff1681526020019250505060405180910390a150565b66038d7ea4c6800080341015612f3f576040517f08c379a000000000000000000000000000000000000000000000000000000000815260040180806020018281038252603481526020018061349c6034913960400191505060405180910390fd5b612f47613367565b806000015150600360003373ffffffffffffffffffffffffffffffffffffffff1673ffffffffffffffffffffffffffffffffffffffff16815260200190815260200160002060010154816020018181525050612fa2816132ca565b60023390806001815401808255809150509060018203906000526020600020016000909192909190916101000a81548173ffffffffffffffffffffffffffffffffffffffff021916908373ffffffffffffffffffffffffffffffffffffffff160217905550507fe25a701b51d536c7562677bbac3b14e5d925cda95bee146ca97cacbf46e17bef81600001518260200151604051808373ffffffffffffffffffffffffffffffffffffffff1673ffffffffffffffffffffffffffffffffffffffff1681526020018281526020019250505060405180910390a134600360003373ffffffffffffffffffffffffffffffffffffffff1673ffffffffffffffffffffffffffffffffffffffff168152602001908152602001600020600101600082825401925050819055507fa1d0371d72520a6b045b83f0e52b625a4a84b2ad1ffe079d0e1524ca95cfaa323433604051808381526020018273ffffffffffffffffffffffffffffffffffffffff1673ffffffffffffffffffffffffffffffffffffffff1681526020019250505060405180910390a15050565b6000809054906101000a900473ffffffffffffffffffffffffffffffffffffffff1673ffffffffffffffffffffffffffffffffffffffff163373ffffffffffffffffffffffffffffffffffffffff161461319357600080fd5b3373ffffffffffffffffffffffffffffffffffffffff16ff5b6000803342604051602001808373ffffffffffffffffffffffffffffffffffffffff1673ffffffffffffffffffffffffffffffffffffffff1660601b8152601401828152602001925050506040516020818303038152906040528051906020012060001c9050600060016006838161322057fe5b06019050809250505090565b6000806002428161323957fe5b0690506060600182141561328857600192506040518060400160405280600581526020017f486561647300000000000000000000000000000000000000000000000000000081525090506132c5565b600092506040518060400160405280600581526020017f5461696c7300000000000000000000000000000000000000000000000000000081525090505b505090565b600033905081600360008373ffffffffffffffffffffffffffffffffffffffff1673ffffffffffffffffffffffffffffffffffffffff16815260200190815260200160002060008201518160000160006101000a81548173ffffffffffffffffffffffffffffffffffffffff021916908373ffffffffffffffffffffffffffffffffffffffff160217905550602082015181600101559050505050565b6040518060400160405280600073ffffffffffffffffffffffffffffffffffffffff16815260200160008152509056fe42657420616d6f756e74206d757374206265206174206c6561737420312066696e6e657920616e64206e6f206d6f7265207468616e203130302066696e6e6579596f7520646f206e6f742063757272656e746c79206861766520616e792066756e647320666f72207769746864726177616c596f75206d75737420626574206174206c6561737420312066696e6e657920746f20706c6179596f7520646f206e6f742063757272656e746c79206861766520656e6f756768206c697175696469747920746f20636f7665722074686174206265742c20706c65617365206465706f736974206d6f72652066756e6473206f72207265647563652062657420616d6f756e74596f75206d757374206465706f736974206174206c6561737420312046696e6e657920746f20706c617920746869732067616d65596f75206d757374206861766520736f6d652066756e647320696e20796f75722062657474696e67206163636f756e7420746f20706c6163652061206265744865616473206f72205461696c73206d7573742062652073656c656374656420666f722062657420746f2070726f6365656454686520636f6e747261637420646f6573206e6f742063757272656e746c79206861766520656e6f756768206c697175696469747920746f20636f76657220612077696e6e696e67206265742c20706c656173652074727920616761696e206c6174657242657420616d6f756e74206d757374206265206174206c6561737420312066696e6e6579496e707574206d7573742062652074727565206f722066616c73652028686967686572206f72206c6f77657220726573706563746976656c79596f75206d757374206861766520656e6f7567682066756e647320696e20796f75722062657474696e67206163636f756e7420746f20636f766572207468617420626574596f75206d7573742073656c6563742061206e756d626572206265747765656e203120616e6420362c20696e636c75736976654d696e696d756d206465706f73697420746f20636f6e7472616374206973206174206c656173742032302046696e6e6579202877686963682077696c6c20636f766572206174206c656173742032206d617820626574732954686520486f757365206e6565647320746f206861766520647261776e206120636172642c2074686174206973206e6f74206120416365206f72204b696e672c206669727374a265627a7a72315820d4714ab90b9f4f6646778868d6a1b5c338abd6a6ffa3245a8bbc677d22c6d81164736f6c634300050c0032",
  "source": "import \"./Ownable.sol\";\r\nimport \"./Destroyable.sol\";\r\nimport \"./Accountable.sol\";\r\nimport \"./FlipOut.sol\";\r\nimport \"./RollOut.sol\";\r\nimport \"./DrawOut.sol\";\r\n\r\npragma solidity 0.5.12;\r\n\r\ncontract Callable is Ownable, Destroyable, Accountable, FlipOut, RollOut, DrawOut  {\r\n\r\n\r\n    function getContractInfo() public view returns(address contractAddress, uint balance){\r\n        contractAddress = owner;\r\n        balance = contractBalance;\r\n        return (contractAddress, balance);\r\n    }\r\n\r\n\r\n    function getUserInfo() public view returns(address user, uint balance, uint flipChoice, uint rollChoice, bool betHigh) {\r\n        user = msg.sender;\r\n        balance = punters[msg.sender].balance;\r\n        return (user, balance, flipChoice, rollChoice, betHigh);\r\n    }\r\n\r\n\r\n    function getResults() public view returns(uint flipOut, uint rollOut, uint drawOutUser, uint drawOutHouse) {\r\n        flipOut = flip;\r\n        rollOut = roll;\r\n        drawOutUser = userCard;\r\n        drawOutHouse = houseCard;\r\n        return (flipOut, rollOut, drawOutUser, drawOutHouse);\r\n    }\r\n\r\n}\r\n",
  "sourcePath": "D:/Justin/Documents/Justin/Ethereum/CryptoCasino/contracts/Callable.sol",
  "compiler": {
    "name": "solc",
    "version": "0.5.12+commit.7709ece9.Emscripten.clang"
  },
  "schemaVersion": "3.0.16",
  "updatedAt": "2020-09-19T13:07:37.662Z",
  "devdoc": {
    "methods": {}
  },
  "userdoc": {
    "methods": {}
  }
}