{
  "contractName": "DrawOut",
  "abi": [
    {
      "anonymous": false,
      "inputs": [
        {
          "indexed": false,
          "internalType": "uint256",
          "name": "amountBet",
          "type": "uint256"
        },
        {
          "indexed": false,
          "internalType": "uint256",
          "name": "newBalance",
          "type": "uint256"
        }
      ],
      "name": "BetPlaced",
      "type": "event"
    },
    {
      "anonymous": false,
      "inputs": [
        {
          "indexed": false,
          "internalType": "uint256",
          "name": "userCard",
          "type": "uint256"
        },
        {
          "indexed": false,
          "internalType": "string",
          "name": "betChoice",
          "type": "string"
        },
        {
          "indexed": false,
          "internalType": "uint256",
          "name": "houseCard",
          "type": "uint256"
        },
        {
          "indexed": false,
          "internalType": "string",
          "name": "winner",
          "type": "string"
        }
      ],
      "name": "DrawOutResult",
      "type": "event"
    },
    {
      "anonymous": false,
      "inputs": [
        {
          "indexed": false,
          "internalType": "uint256",
          "name": "payoutAmount",
          "type": "uint256"
        },
        {
          "indexed": false,
          "internalType": "address",
          "name": "recipient",
          "type": "address"
        }
      ],
      "name": "Payout",
      "type": "event"
    },
    {
      "anonymous": false,
      "inputs": [
        {
          "indexed": false,
          "internalType": "uint256",
          "name": "amountWithdrawn",
          "type": "uint256"
        },
        {
          "indexed": false,
          "internalType": "address",
          "name": "toAccount",
          "type": "address"
        }
      ],
      "name": "contractBalanceWithdrawn",
      "type": "event"
    },
    {
      "anonymous": false,
      "inputs": [
        {
          "indexed": false,
          "internalType": "uint256",
          "name": "amountDeposited",
          "type": "uint256"
        },
        {
          "indexed": false,
          "internalType": "address",
          "name": "fromAccount",
          "type": "address"
        }
      ],
      "name": "contractDepositMade",
      "type": "event"
    },
    {
      "anonymous": false,
      "inputs": [
        {
          "indexed": false,
          "internalType": "uint256",
          "name": "amountDeposited",
          "type": "uint256"
        },
        {
          "indexed": false,
          "internalType": "address",
          "name": "fromAccount",
          "type": "address"
        }
      ],
      "name": "depositMade",
      "type": "event"
    },
    {
      "anonymous": false,
      "inputs": [
        {
          "indexed": false,
          "internalType": "uint256",
          "name": "amountWithdrawn",
          "type": "uint256"
        },
        {
          "indexed": false,
          "internalType": "address",
          "name": "toAccount",
          "type": "address"
        }
      ],
      "name": "fundsWithdrawn",
      "type": "event"
    },
    {
      "anonymous": false,
      "inputs": [
        {
          "indexed": false,
          "internalType": "address",
          "name": "user",
          "type": "address"
        },
        {
          "indexed": false,
          "internalType": "uint256",
          "name": "balance",
          "type": "uint256"
        }
      ],
      "name": "userAdded",
      "type": "event"
    },
    {
      "constant": false,
      "inputs": [],
      "name": "Destroy",
      "outputs": [],
      "payable": false,
      "stateMutability": "nonpayable",
      "type": "function"
    },
    {
      "constant": false,
      "inputs": [],
      "name": "addBettingFunds",
      "outputs": [],
      "payable": true,
      "stateMutability": "payable",
      "type": "function"
    },
    {
      "constant": false,
      "inputs": [],
      "name": "depositToContract",
      "outputs": [],
      "payable": true,
      "stateMutability": "payable",
      "type": "function"
    },
    {
      "constant": true,
      "inputs": [],
      "name": "owner",
      "outputs": [
        {
          "internalType": "address",
          "name": "",
          "type": "address"
        }
      ],
      "payable": false,
      "stateMutability": "view",
      "type": "function"
    },
    {
      "constant": false,
      "inputs": [],
      "name": "withdrawBettingFunds",
      "outputs": [],
      "payable": false,
      "stateMutability": "nonpayable",
      "type": "function"
    },
    {
      "constant": false,
      "inputs": [],
      "name": "withdrawContractBalance",
      "outputs": [],
      "payable": false,
      "stateMutability": "nonpayable",
      "type": "function"
    },
    {
      "constant": false,
      "inputs": [
        {
          "internalType": "uint256",
          "name": "amountToBet",
          "type": "uint256"
        }
      ],
      "name": "drawHouseCard",
      "outputs": [
        {
          "internalType": "uint256",
          "name": "card",
          "type": "uint256"
        }
      ],
      "payable": false,
      "stateMutability": "nonpayable",
      "type": "function"
    },
    {
      "constant": false,
      "inputs": [
        {
          "internalType": "bool",
          "name": "high",
          "type": "bool"
        }
      ],
      "name": "drawUserCard",
      "outputs": [],
      "payable": false,
      "stateMutability": "nonpayable",
      "type": "function"
    },
    {
      "constant": true,
      "inputs": [],
      "name": "randomNumberUser",
      "outputs": [
        {
          "internalType": "uint256",
          "name": "result",
          "type": "uint256"
        }
      ],
      "payable": false,
      "stateMutability": "view",
      "type": "function"
    },
    {
      "constant": true,
      "inputs": [],
      "name": "randomNumberHouse",
      "outputs": [
        {
          "internalType": "uint256",
          "name": "result",
          "type": "uint256"
        }
      ],
      "payable": false,
      "stateMutability": "view",
      "type": "function"
    }
  ],
  "bytecode": "0x6080604052336000806101000a81548173ffffffffffffffffffffffffffffffffffffffff021916908373ffffffffffffffffffffffffffffffffffffffff1602179055506118eb806100536000396000f3fe6080604052600436106100915760003560e01c8063baa3006211610059578063baa30062146101bb578063bfab3db9146101e6578063c8f781c2146101fd578063df11460e14610207578063f58fef8e1461021157610091565b80630eee99cf146100965780633bca1c7f146100ad578063853b8850146100d85780638da5cb5b1461012757806390e508f11461017e575b600080fd5b3480156100a257600080fd5b506100ab610228565b005b3480156100b957600080fd5b506100c2610407565b6040518082815260200191505060405180910390f35b3480156100e457600080fd5b50610111600480360360208110156100fb57600080fd5b81019080803590602001909291905050506104a8565b6040518082815260200191505060405180910390f35b34801561013357600080fd5b5061013c61088c565b604051808273ffffffffffffffffffffffffffffffffffffffff1673ffffffffffffffffffffffffffffffffffffffff16815260200191505060405180910390f35b34801561018a57600080fd5b506101b9600480360360208110156101a157600080fd5b810190808035151590602001909291905050506108b1565b005b3480156101c757600080fd5b506101d0610fb3565b6040518082815260200191505060405180910390f35b3480156101f257600080fd5b506101fb611033565b005b610205611171565b005b61020f6112a9565b005b34801561021d57600080fd5b50610226611505565b005b6000600360003373ffffffffffffffffffffffffffffffffffffffff1673ffffffffffffffffffffffffffffffffffffffff16815260200190815260200160002060010154116102c3576040517f08c379a00000000000000000000000000000000000000000000000000000000081526004018080602001828103825260328152602001806116456032913960400191505060405180910390fd5b6000600360003373ffffffffffffffffffffffffffffffffffffffff1673ffffffffffffffffffffffffffffffffffffffff1681526020019081526020016000206001015490506000600360003373ffffffffffffffffffffffffffffffffffffffff1673ffffffffffffffffffffffffffffffffffffffff168152602001908152602001600020600101819055503373ffffffffffffffffffffffffffffffffffffffff166108fc829081150290604051600060405180830381858888f19350505050158015610398573d6000803e3d6000fd5b507f3a565aa1aa10e8ea1c6d12af2b2fe7f8bbda86d9a7e36aa3af12a8a96563761d8133604051808381526020018273ffffffffffffffffffffffffffffffffffffffff1673ffffffffffffffffffffffffffffffffffffffff1681526020019250505060405180910390a150565b6000806000809054906101000a900473ffffffffffffffffffffffffffffffffffffffff1642604051602001808373ffffffffffffffffffffffffffffffffffffffff1673ffffffffffffffffffffffffffffffffffffffff1660601b8152601401828152602001925050506040516020818303038152906040528051906020012060001c905060006001600d838161049c57fe5b06019050809250505090565b600066038d7ea4c68000600360003373ffffffffffffffffffffffffffffffffffffffff1673ffffffffffffffffffffffffffffffffffffffff16815260200190815260200160002060010154101561054c576040517f08c379a000000000000000000000000000000000000000000000000000000000815260040180806020018281038252603f81526020018061173d603f913960400191505060405180910390fd5b60018210156105a6576040517f08c379a00000000000000000000000000000000000000000000000000000000081526004018080602001828103825260268152602001806116776026913960400191505060405180910390fd5b66038d7ea4c680008202600781905550600754600360003373ffffffffffffffffffffffffffffffffffffffff1673ffffffffffffffffffffffffffffffffffffffff168152602001908152602001600020600101541015610653576040517f08c379a000000000000000000000000000000000000000000000000000000000815260040180806020018281038252606c81526020018061169d606c913960800191505060405180910390fd5b60075460015410156106b0576040517f08c379a000000000000000000000000000000000000000000000000000000000815260040180806020018281038252606481526020018061177c6064913960800191505060405180910390fd5b600754600360003373ffffffffffffffffffffffffffffffffffffffff1673ffffffffffffffffffffffffffffffffffffffff168152602001908152602001600020600101600082825403925050819055507fac7ba36fe6c4c7a9dd581814563bf9c3e83cbf25f9971fe6378954bce56ab456600754600360003373ffffffffffffffffffffffffffffffffffffffff1673ffffffffffffffffffffffffffffffffffffffff16815260200190815260200160002060010154604051808381526020018281526020019250505060405180910390a161078d610407565b600581905550600160055414806107a65750600d600554145b1561086f57600754600360003373ffffffffffffffffffffffffffffffffffffffff1673ffffffffffffffffffffffffffffffffffffffff168152602001908152602001600020600101600082825401925050819055507f9b5d1a613fa5f0790b36b13103706e31fca06b229d87e9915b29fc20c1d7649060075433604051808381526020018273ffffffffffffffffffffffffffffffffffffffff1673ffffffffffffffffffffffffffffffffffffffff1681526020019250505060405180910390a1610882565b6007546001600082825401925050819055505b6005549050919050565b6000809054906101000a900473ffffffffffffffffffffffffffffffffffffffff1681565b6001151581151514806108c8575060001515811515145b61091d576040517f08c379a00000000000000000000000000000000000000000000000000000000081526004018080602001828103825260398152602001806117e06039913960400191505060405180910390fd5b6002600554101580156109335750600c60055411155b610988576040517f08c379a00000000000000000000000000000000000000000000000000000000081526004018080602001828103825260468152602001806118716046913960600191505060405180910390fd5b80600660006101000a81548160ff0219169083151502179055506109aa610fb3565b6004819055506000600a600754816109be57fe5b0490506000600260055414156109f2576001151583151514156109e657600b820290506109ed565b6082820290505b610bb4565b60036005541415610a2157600115158315151415610a1557600d82029050610a1c565b6041820290505b610bb3565b60046005541415610a5057600115158315151415610a4457600e82029050610a4b565b602a820290505b610bb2565b600580541415610a7e57600115158315151415610a7257601082029050610a79565b6020820290505b610bb1565b60066005541415610aad57600115158315151415610aa157601282029050610aa8565b601a820290505b610bb0565b60076005541415610ac357601582029050610baf565b60086005541415610af257600115158315151415610ae657601a82029050610aed565b6012820290505b610bae565b60096005541415610b2157600115158315151415610b1557602082029050610b1c565b6010820290505b610bad565b600a6005541415610b5057600115158315151415610b4457602a82029050610b4b565b600e820290505b610bac565b600b6005541415610b7f57600115158315151415610b7357604182029050610b7a565b600d820290505b610bab565b600c6005541415610baa57600115158315151415610ba257608282029050610ba9565b600b820290505b5b5b5b5b5b5b5b5b5b5b5b6060600115158415151415610bfc576040518060400160405280600481526020017f486967680000000000000000000000000000000000000000000000000000000081525090505b600015158415151415610c42576040518060400160405280600381526020017f4c6f77000000000000000000000000000000000000000000000000000000000081525090505b60011515841515148015610c595750600554600454115b80610c77575060001515841515148015610c765750600554600454105b5b15610e355781600360003373ffffffffffffffffffffffffffffffffffffffff1673ffffffffffffffffffffffffffffffffffffffff16815260200190815260200160002060010160008282540192505081905550816001600082825403925050819055507f66988de99284ff1bda6a6b7897bb54f716ad5f325702d148b0c2f7b471538fb360045482600554604051808481526020018060200183815260200180602001838103835285818151815260200191508051906020019080838360005b83811015610d54578082015181840152602081019050610d39565b50505050905090810190601f168015610d815780820380516001836020036101000a031916815260200191505b50838103825260068152602001807f506c6179657200000000000000000000000000000000000000000000000000008152506020019550505050505060405180910390a17f9b5d1a613fa5f0790b36b13103706e31fca06b229d87e9915b29fc20c1d764908233604051808381526020018273ffffffffffffffffffffffffffffffffffffffff1673ffffffffffffffffffffffffffffffffffffffff1681526020019250505060405180910390a1610fad565b7f66988de99284ff1bda6a6b7897bb54f716ad5f325702d148b0c2f7b471538fb360045482600554604051808481526020018060200183815260200180602001838103835285818151815260200191508051906020019080838360005b83811015610ead578082015181840152602081019050610e92565b50505050905090810190601f168015610eda5780820380516001836020036101000a031916815260200191505b50838103825260098152602001807f54686520486f75736500000000000000000000000000000000000000000000008152506020019550505050505060405180910390a17f9b5d1a613fa5f0790b36b13103706e31fca06b229d87e9915b29fc20c1d764906007546000809054906101000a900473ffffffffffffffffffffffffffffffffffffffff16604051808381526020018273ffffffffffffffffffffffffffffffffffffffff1673ffffffffffffffffffffffffffffffffffffffff1681526020019250505060405180910390a15b50505050565b6000803342604051602001808373ffffffffffffffffffffffffffffffffffffffff1673ffffffffffffffffffffffffffffffffffffffff1660601b8152601401828152602001925050506040516020818303038152906040528051906020012060001c905060006001600d838161102757fe5b06019050809250505090565b6000809054906101000a900473ffffffffffffffffffffffffffffffffffffffff1673ffffffffffffffffffffffffffffffffffffffff163373ffffffffffffffffffffffffffffffffffffffff161461108c57600080fd5b6000600154905060006001819055503373ffffffffffffffffffffffffffffffffffffffff166108fc829081150290604051600060405180830381858888f193505050501580156110e1573d6000803e3d6000fd5b507fc4891d77dcdeafd8e7ffcadc9fe07ce49282f45456edb916b298b14cbe92f754816000809054906101000a900473ffffffffffffffffffffffffffffffffffffffff16604051808381526020018273ffffffffffffffffffffffffffffffffffffffff1673ffffffffffffffffffffffffffffffffffffffff1681526020019250505060405180910390a150565b6000809054906101000a900473ffffffffffffffffffffffffffffffffffffffff1673ffffffffffffffffffffffffffffffffffffffff163373ffffffffffffffffffffffffffffffffffffffff16146111ca57600080fd5b66470de4df8200008034101561122b576040517f08c379a00000000000000000000000000000000000000000000000000000000081526004018080602001828103825260588152602001806118196058913960600191505060405180910390fd5b346001600082825401925050819055507fa66a5303a43807ac39edf6baf406c7630957962e78a89a1c92111ee118495a953433604051808381526020018273ffffffffffffffffffffffffffffffffffffffff1673ffffffffffffffffffffffffffffffffffffffff1681526020019250505060405180910390a150565b66038d7ea4c680008034101561130a576040517f08c379a00000000000000000000000000000000000000000000000000000000081526004018080602001828103825260348152602001806117096034913960400191505060405180910390fd5b611312611614565b806000015150600360003373ffffffffffffffffffffffffffffffffffffffff1673ffffffffffffffffffffffffffffffffffffffff1681526020019081526020016000206001015481602001818152505061136d81611577565b60023390806001815401808255809150509060018203906000526020600020016000909192909190916101000a81548173ffffffffffffffffffffffffffffffffffffffff021916908373ffffffffffffffffffffffffffffffffffffffff160217905550507fe25a701b51d536c7562677bbac3b14e5d925cda95bee146ca97cacbf46e17bef81600001518260200151604051808373ffffffffffffffffffffffffffffffffffffffff1673ffffffffffffffffffffffffffffffffffffffff1681526020018281526020019250505060405180910390a134600360003373ffffffffffffffffffffffffffffffffffffffff1673ffffffffffffffffffffffffffffffffffffffff168152602001908152602001600020600101600082825401925050819055507fa1d0371d72520a6b045b83f0e52b625a4a84b2ad1ffe079d0e1524ca95cfaa323433604051808381526020018273ffffffffffffffffffffffffffffffffffffffff1673ffffffffffffffffffffffffffffffffffffffff1681526020019250505060405180910390a15050565b6000809054906101000a900473ffffffffffffffffffffffffffffffffffffffff1673ffffffffffffffffffffffffffffffffffffffff163373ffffffffffffffffffffffffffffffffffffffff161461155e57600080fd5b3373ffffffffffffffffffffffffffffffffffffffff16ff5b600033905081600360008373ffffffffffffffffffffffffffffffffffffffff1673ffffffffffffffffffffffffffffffffffffffff16815260200190815260200160002060008201518160000160006101000a81548173ffffffffffffffffffffffffffffffffffffffff021916908373ffffffffffffffffffffffffffffffffffffffff160217905550602082015181600101559050505050565b6040518060400160405280600073ffffffffffffffffffffffffffffffffffffffff16815260200160008152509056fe596f7520646f206e6f742063757272656e746c79206861766520616e792066756e647320666f72207769746864726177616c596f75206d75737420626574206174206c6561737420312066696e6e657920746f20706c6179596f7520646f206e6f742063757272656e746c79206861766520656e6f756768206c697175696469747920746f20636f7665722074686174206265742c20706c65617365206465706f736974206d6f72652066756e6473206f72207265647563652062657420616d6f756e74596f75206d757374206465706f736974206174206c6561737420312046696e6e657920746f20706c617920746869732067616d65596f75206d757374206861766520736f6d652066756e647320696e20796f75722062657474696e67206163636f756e7420746f20706c61636520612062657454686520636f6e747261637420646f6573206e6f742063757272656e746c79206861766520656e6f756768206c697175696469747920746f20636f76657220612077696e6e696e67206265742c20706c656173652074727920616761696e206c61746572496e707574206d7573742062652074727565206f722066616c73652028686967686572206f72206c6f77657220726573706563746976656c794d696e696d756d206465706f73697420746f20636f6e7472616374206973206174206c656173742032302046696e6e6579202877686963682077696c6c20636f766572206174206c656173742032206d617820626574732954686520486f757365206e6565647320746f206861766520647261776e206120636172642c2074686174206973206e6f74206120416365206f72204b696e672c206669727374a265627a7a72315820ad2957444259b79930660b86f9a0cc2df68d6f9ea70071e95ef9f6488d053a3264736f6c634300050c0032",
  "source": "import \"./Ownable.sol\";\r\nimport \"./Destroyable.sol\";\r\nimport \"./Accountable.sol\";\r\n\r\npragma solidity 0.5.12;\r\n\r\ncontract DrawOut is Ownable, Destroyable, Accountable {\r\n\r\n    uint internal userCard;\r\n    uint internal houseCard;\r\n    bool internal betHigh;\r\n    uint private bet;\r\n\r\n    event BetPlaced(uint amountBet, uint newBalance);\r\n    event DrawOutResult(uint userCard, string betChoice, uint houseCard, string winner);\r\n    event Payout(uint payoutAmount, address recipient);\r\n\r\n\r\n    function drawHouseCard(uint amountToBet) public returns (uint card){\r\n        require(punters[msg.sender].balance >= 1 finney,\"You must have some funds in your betting account to place a bet\");\r\n        require(amountToBet >= 1, \"You must bet at least 1 finney to play\");\r\n\r\n        bet = amountToBet * 1e15;\r\n        require(punters[msg.sender].balance >= bet, \"You do not currently have enough liquidity to cover that bet, please deposit more funds or reduce bet amount\");\r\n        require(contractBalance >= bet, \"The contract does not currently have enough liquidity to cover a winning bet, please try again later\");\r\n\r\n        punters[msg.sender].balance -= bet;\r\n\r\n\r\n        emit BetPlaced(bet, punters[msg.sender].balance);\r\n\r\n        houseCard = randomNumberHouse();\r\n\r\n        if (houseCard == 1 || houseCard == 13) {\r\n            punters[msg.sender].balance += bet;\r\n            emit Payout(bet, msg.sender);\r\n        } else {\r\n            contractBalance += bet;\r\n        }\r\n\r\n        return houseCard;\r\n    }\r\n\r\n\r\n\r\n    function drawUserCard(bool high) public {\r\n        require(high == true || high == false, \"Input must be true or false (higher or lower respectively\");\r\n        require(houseCard >= 2 && houseCard <=12, \"The House needs to have drawn a card, that is not a Ace or King, first\");\r\n\r\n        betHigh = high;\r\n\r\n        userCard = randomNumberUser();\r\n\r\n        uint decimal = bet / 10;      //payout multiplier would not allow floating point numbers, so have reduced bet amount to decimal and increased payout multiplier value by 10x\r\n        uint payout;\r\n\r\n\r\n        if (houseCard == 2) {\r\n            if (high == true) {\r\n                payout = decimal * 11;\r\n            } else {\r\n                payout = decimal * 130;\r\n            }\r\n        } else if (houseCard == 3) {\r\n            if (high == true) {\r\n                payout = decimal * 13;\r\n            } else {\r\n                payout = decimal * 65;\r\n            }\r\n        } else if (houseCard == 4) {\r\n            if (high == true) {\r\n                payout = decimal * 14;\r\n            } else {\r\n                payout = decimal * 42;\r\n            }\r\n        } else if (houseCard == 5) {\r\n            if (high == true) {\r\n                payout = decimal * 16;\r\n            } else {\r\n                payout = decimal * 32;\r\n            }\r\n        } else if (houseCard == 6) {\r\n            if (high == true) {\r\n                payout = decimal * 18;\r\n            } else {\r\n                payout = decimal * 26;\r\n            }\r\n        } else if (houseCard == 7) {\r\n            payout = decimal * 21;\r\n        } else if (houseCard == 8) {\r\n            if (high == true) {\r\n                payout = decimal * 26;\r\n            } else {\r\n                payout = decimal * 18;\r\n            }\r\n        } else if (houseCard == 9) {\r\n            if (high == true) {\r\n                payout = decimal * 32;\r\n            } else {\r\n                payout = decimal * 16;\r\n            }\r\n        } else if (houseCard == 10) {\r\n            if (high == true) {\r\n                payout = decimal * 42;\r\n            } else {\r\n                payout = decimal * 14;\r\n            }\r\n        } else if (houseCard == 11) {\r\n            if (high == true) {\r\n                payout = decimal * 65;\r\n            } else {\r\n                payout = decimal * 13;\r\n            }\r\n        } else if (houseCard == 12) {\r\n            if (high == true) {\r\n                payout = decimal * 130;\r\n            } else {\r\n                payout = decimal * 11;\r\n            }\r\n        }\r\n\r\n        string memory highLowChoice;\r\n        if (high == true) highLowChoice = \"High\";\r\n        if (high == false) highLowChoice = \"Low\";\r\n\r\n        if ((high == true && userCard > houseCard) || (high == false && userCard < houseCard)) {\r\n            punters[msg.sender].balance += payout;\r\n            contractBalance -= payout;\r\n            emit DrawOutResult(userCard, highLowChoice, houseCard, \"Player\");\r\n            emit Payout(payout, msg.sender);\r\n        } else {\r\n            emit DrawOutResult(userCard, highLowChoice, houseCard, \"The House\");\r\n            emit Payout(bet, owner);\r\n        }\r\n\r\n    }\r\n\r\n\r\n\r\n\r\n\r\n    function randomNumberUser() public view returns(uint result){\r\n\r\n        uint random = uint256(keccak256(abi.encodePacked(msg.sender, now)));\r\n        uint number = ((random % 13) + 1);   //spits out a number between 1 and 13\r\n\r\n        return number;\r\n    }\r\n\r\n\r\n    function randomNumberHouse() public view returns(uint result){\r\n\r\n        uint random = uint256(keccak256(abi.encodePacked(owner, now)));\r\n        uint number = ((random % 13) + 1);   //spits out a number between 1 and 13\r\n\r\n        return number;\r\n    }\r\n\r\n}\r\n",
  "sourcePath": "D:\\Justin\\Documents\\Justin\\Ethereum\\CryptoCasino\\contracts\\DrawOut.sol",
  "compiler": {
    "name": "solc",
    "version": "0.5.12+commit.7709ece9.Emscripten.clang"
  },
  "schemaVersion": "3.0.16",
  "updatedAt": "2020-09-19T13:07:36.988Z",
  "devdoc": {
    "methods": {}
  },
  "userdoc": {
    "methods": {}
  }
}