{
  "contractName": "FlipOut",
  "abi": [
    {
      "anonymous": false,
      "inputs": [
        {
          "indexed": false,
          "internalType": "uint256",
          "name": "amountBet",
          "type": "uint256"
        },
        {
          "indexed": false,
          "internalType": "uint256",
          "name": "newBalance",
          "type": "uint256"
        }
      ],
      "name": "BetPlaced",
      "type": "event"
    },
    {
      "anonymous": false,
      "inputs": [
        {
          "indexed": false,
          "internalType": "string",
          "name": "flipResult",
          "type": "string"
        },
        {
          "indexed": false,
          "internalType": "string",
          "name": "choice",
          "type": "string"
        },
        {
          "indexed": false,
          "internalType": "string",
          "name": "winner",
          "type": "string"
        },
        {
          "indexed": false,
          "internalType": "uint256",
          "name": "payoutAmount",
          "type": "uint256"
        },
        {
          "indexed": false,
          "internalType": "address",
          "name": "recipient",
          "type": "address"
        }
      ],
      "name": "Results",
      "type": "event"
    },
    {
      "anonymous": false,
      "inputs": [
        {
          "indexed": false,
          "internalType": "uint256",
          "name": "amountWithdrawn",
          "type": "uint256"
        },
        {
          "indexed": false,
          "internalType": "address",
          "name": "toAccount",
          "type": "address"
        }
      ],
      "name": "contractBalanceWithdrawn",
      "type": "event"
    },
    {
      "anonymous": false,
      "inputs": [
        {
          "indexed": false,
          "internalType": "uint256",
          "name": "amountDeposited",
          "type": "uint256"
        },
        {
          "indexed": false,
          "internalType": "address",
          "name": "fromAccount",
          "type": "address"
        }
      ],
      "name": "contractDepositMade",
      "type": "event"
    },
    {
      "anonymous": false,
      "inputs": [
        {
          "indexed": false,
          "internalType": "uint256",
          "name": "amountDeposited",
          "type": "uint256"
        },
        {
          "indexed": false,
          "internalType": "address",
          "name": "fromAccount",
          "type": "address"
        }
      ],
      "name": "depositMade",
      "type": "event"
    },
    {
      "anonymous": false,
      "inputs": [
        {
          "indexed": false,
          "internalType": "uint256",
          "name": "amountWithdrawn",
          "type": "uint256"
        },
        {
          "indexed": false,
          "internalType": "address",
          "name": "toAccount",
          "type": "address"
        }
      ],
      "name": "fundsWithdrawn",
      "type": "event"
    },
    {
      "anonymous": false,
      "inputs": [
        {
          "indexed": false,
          "internalType": "address",
          "name": "user",
          "type": "address"
        },
        {
          "indexed": false,
          "internalType": "uint256",
          "name": "balance",
          "type": "uint256"
        }
      ],
      "name": "userAdded",
      "type": "event"
    },
    {
      "constant": false,
      "inputs": [],
      "name": "Destroy",
      "outputs": [],
      "payable": false,
      "stateMutability": "nonpayable",
      "type": "function"
    },
    {
      "constant": false,
      "inputs": [],
      "name": "addBettingFunds",
      "outputs": [],
      "payable": true,
      "stateMutability": "payable",
      "type": "function"
    },
    {
      "constant": false,
      "inputs": [],
      "name": "depositToContract",
      "outputs": [],
      "payable": true,
      "stateMutability": "payable",
      "type": "function"
    },
    {
      "constant": true,
      "inputs": [],
      "name": "owner",
      "outputs": [
        {
          "internalType": "address",
          "name": "",
          "type": "address"
        }
      ],
      "payable": false,
      "stateMutability": "view",
      "type": "function"
    },
    {
      "constant": false,
      "inputs": [],
      "name": "withdrawBettingFunds",
      "outputs": [],
      "payable": false,
      "stateMutability": "nonpayable",
      "type": "function"
    },
    {
      "constant": false,
      "inputs": [],
      "name": "withdrawContractBalance",
      "outputs": [],
      "payable": false,
      "stateMutability": "nonpayable",
      "type": "function"
    },
    {
      "constant": false,
      "inputs": [
        {
          "internalType": "uint256",
          "name": "amountToBet",
          "type": "uint256"
        },
        {
          "internalType": "uint256",
          "name": "betChoice",
          "type": "uint256"
        }
      ],
      "name": "flipIt",
      "outputs": [],
      "payable": false,
      "stateMutability": "nonpayable",
      "type": "function"
    }
  ],
  "bytecode": "0x6080604052336000806101000a81548173ffffffffffffffffffffffffffffffffffffffff021916908373ffffffffffffffffffffffffffffffffffffffff1602179055506116f4806100536000396000f3fe6080604052600436106100705760003560e01c8063bfab3db91161004e578063bfab3db914610128578063c8f781c21461013f578063df11460e14610149578063f58fef8e1461015357610070565b80630eee99cf14610075578063512a56371461008c5780638da5cb5b146100d1575b600080fd5b34801561008157600080fd5b5061008a61016a565b005b34801561009857600080fd5b506100cf600480360360408110156100af57600080fd5b810190808035906020019092919080359060200190929190505050610349565b005b3480156100dd57600080fd5b506100e6610dac565b604051808273ffffffffffffffffffffffffffffffffffffffff1673ffffffffffffffffffffffffffffffffffffffff16815260200191505060405180910390f35b34801561013457600080fd5b5061013d610dd1565b005b610147610f0f565b005b610151611047565b005b34801561015f57600080fd5b506101686112a3565b005b6000600360003373ffffffffffffffffffffffffffffffffffffffff1673ffffffffffffffffffffffffffffffffffffffff1681526020019081526020016000206001015411610205576040517f08c379a00000000000000000000000000000000000000000000000000000000081526004018080602001828103825260328152602001806114c16032913960400191505060405180910390fd5b6000600360003373ffffffffffffffffffffffffffffffffffffffff1673ffffffffffffffffffffffffffffffffffffffff1681526020019081526020016000206001015490506000600360003373ffffffffffffffffffffffffffffffffffffffff1673ffffffffffffffffffffffffffffffffffffffff168152602001908152602001600020600101819055503373ffffffffffffffffffffffffffffffffffffffff166108fc829081150290604051600060405180830381858888f193505050501580156102da573d6000803e3d6000fd5b507f3a565aa1aa10e8ea1c6d12af2b2fe7f8bbda86d9a7e36aa3af12a8a96563761d8133604051808381526020018273ffffffffffffffffffffffffffffffffffffffff1673ffffffffffffffffffffffffffffffffffffffff1681526020019250505060405180910390a150565b60018210156103a3576040517f08c379a00000000000000000000000000000000000000000000000000000000081526004018080602001828103825260408152602001806114816040913960400191505060405180910390fd5b60018114806103b25750600081145b610407576040517f08c379a00000000000000000000000000000000000000000000000000000000081526004018080602001828103825260328152602001806115d26032913960400191505060405180910390fd5b66038d7ea4c68000600360003373ffffffffffffffffffffffffffffffffffffffff1673ffffffffffffffffffffffffffffffffffffffff1681526020019081526020016000206001015410156104a9576040517f08c379a000000000000000000000000000000000000000000000000000000000815260040180806020018281038252603f815260200180611593603f913960400191505060405180910390fd5b600066038d7ea4c680008302905080600360003373ffffffffffffffffffffffffffffffffffffffff1673ffffffffffffffffffffffffffffffffffffffff168152602001908152602001600020600101541015610552576040517f08c379a000000000000000000000000000000000000000000000000000000000815260040180806020018281038252606c8152602001806114f3606c913960800191505060405180910390fd5b8060015410156105ad576040517f08c379a00000000000000000000000000000000000000000000000000000000081526004018080602001828103825260648152602001806116046064913960800191505060405180910390fd5b80600360003373ffffffffffffffffffffffffffffffffffffffff1673ffffffffffffffffffffffffffffffffffffffff168152602001908152602001600020600101600082825403925050819055507fac7ba36fe6c4c7a9dd581814563bf9c3e83cbf25f9971fe6378954bce56ab45681600360003373ffffffffffffffffffffffffffffffffffffffff1673ffffffffffffffffffffffffffffffffffffffff16815260200190815260200160002060010154604051808381526020018281526020019250505060405180910390a1606060018314156106ce576040518060400160405280600581526020017f48656164730000000000000000000000000000000000000000000000000000008152509050600160058190555061070f565b6040518060400160405280600581526020017f5461696c73000000000000000000000000000000000000000000000000000000815250905060006005819055505b610717611315565b60048190555060006002830290506001841415610a6557600160045414156108e85780600360003373ffffffffffffffffffffffffffffffffffffffff1673ffffffffffffffffffffffffffffffffffffffff16815260200190815260200160002060010160008282540192505081905550826001600082825403925050819055507f640d7da0f8223463f7785fd90a9ac80ecaf99d511f88d48bd1b8cfe250fe0ecf828233604051808060200180602001806020018681526020018573ffffffffffffffffffffffffffffffffffffffff1673ffffffffffffffffffffffffffffffffffffffff168152602001848103845260058152602001807f4865616473000000000000000000000000000000000000000000000000000000815250602001848103835287818151815260200191508051906020019080838360005b83811015610871578082015181840152602081019050610856565b50505050905090810190601f16801561089e5780820380516001836020036101000a031916815260200191505b508481038252600a8152602001807f54686520506c6179657200000000000000000000000000000000000000000000815250602001965050505050505060405180910390a1610a64565b826001600082825401925050819055507f640d7da0f8223463f7785fd90a9ac80ecaf99d511f88d48bd1b8cfe250fe0ecf82846000809054906101000a900473ffffffffffffffffffffffffffffffffffffffff16604051808060200180602001806020018681526020018573ffffffffffffffffffffffffffffffffffffffff1673ffffffffffffffffffffffffffffffffffffffff168152602001848103845260058152602001807f5461696c73000000000000000000000000000000000000000000000000000000815250602001848103835287818151815260200191508051906020019080838360005b838110156109f15780820151818401526020810190506109d6565b50505050905090810190601f168015610a1e5780820380516001836020036101000a031916815260200191505b50848103825260098152602001807f54686520486f7573650000000000000000000000000000000000000000000000815250602001965050505050505060405180910390a15b5b6000841415610da55760006004541415610c285780600360003373ffffffffffffffffffffffffffffffffffffffff1673ffffffffffffffffffffffffffffffffffffffff16815260200190815260200160002060010160008282540192505081905550826001600082825403925050819055507f640d7da0f8223463f7785fd90a9ac80ecaf99d511f88d48bd1b8cfe250fe0ecf828233604051808060200180602001806020018681526020018573ffffffffffffffffffffffffffffffffffffffff1673ffffffffffffffffffffffffffffffffffffffff168152602001848103845260058152602001807f5461696c73000000000000000000000000000000000000000000000000000000815250602001848103835287818151815260200191508051906020019080838360005b83811015610bb1578082015181840152602081019050610b96565b50505050905090810190601f168015610bde5780820380516001836020036101000a031916815260200191505b508481038252600a8152602001807f54686520506c6179657200000000000000000000000000000000000000000000815250602001965050505050505060405180910390a1610da4565b826001600082825401925050819055507f640d7da0f8223463f7785fd90a9ac80ecaf99d511f88d48bd1b8cfe250fe0ecf82846000809054906101000a900473ffffffffffffffffffffffffffffffffffffffff16604051808060200180602001806020018681526020018573ffffffffffffffffffffffffffffffffffffffff1673ffffffffffffffffffffffffffffffffffffffff168152602001848103845260058152602001807f4865616473000000000000000000000000000000000000000000000000000000815250602001848103835287818151815260200191508051906020019080838360005b83811015610d31578082015181840152602081019050610d16565b50505050905090810190601f168015610d5e5780820380516001836020036101000a031916815260200191505b50848103825260098152602001807f54686520486f7573650000000000000000000000000000000000000000000000815250602001965050505050505060405180910390a15b5b5050505050565b6000809054906101000a900473ffffffffffffffffffffffffffffffffffffffff1681565b6000809054906101000a900473ffffffffffffffffffffffffffffffffffffffff1673ffffffffffffffffffffffffffffffffffffffff163373ffffffffffffffffffffffffffffffffffffffff1614610e2a57600080fd5b6000600154905060006001819055503373ffffffffffffffffffffffffffffffffffffffff166108fc829081150290604051600060405180830381858888f19350505050158015610e7f573d6000803e3d6000fd5b507fc4891d77dcdeafd8e7ffcadc9fe07ce49282f45456edb916b298b14cbe92f754816000809054906101000a900473ffffffffffffffffffffffffffffffffffffffff16604051808381526020018273ffffffffffffffffffffffffffffffffffffffff1673ffffffffffffffffffffffffffffffffffffffff1681526020019250505060405180910390a150565b6000809054906101000a900473ffffffffffffffffffffffffffffffffffffffff1673ffffffffffffffffffffffffffffffffffffffff163373ffffffffffffffffffffffffffffffffffffffff1614610f6857600080fd5b66470de4df82000080341015610fc9576040517f08c379a00000000000000000000000000000000000000000000000000000000081526004018080602001828103825260588152602001806116686058913960600191505060405180910390fd5b346001600082825401925050819055507fa66a5303a43807ac39edf6baf406c7630957962e78a89a1c92111ee118495a953433604051808381526020018273ffffffffffffffffffffffffffffffffffffffff1673ffffffffffffffffffffffffffffffffffffffff1681526020019250505060405180910390a150565b66038d7ea4c68000803410156110a8576040517f08c379a000000000000000000000000000000000000000000000000000000000815260040180806020018281038252603481526020018061155f6034913960400191505060405180910390fd5b6110b0611450565b806000015150600360003373ffffffffffffffffffffffffffffffffffffffff1673ffffffffffffffffffffffffffffffffffffffff1681526020019081526020016000206001015481602001818152505061110b816113b3565b60023390806001815401808255809150509060018203906000526020600020016000909192909190916101000a81548173ffffffffffffffffffffffffffffffffffffffff021916908373ffffffffffffffffffffffffffffffffffffffff160217905550507fe25a701b51d536c7562677bbac3b14e5d925cda95bee146ca97cacbf46e17bef81600001518260200151604051808373ffffffffffffffffffffffffffffffffffffffff1673ffffffffffffffffffffffffffffffffffffffff1681526020018281526020019250505060405180910390a134600360003373ffffffffffffffffffffffffffffffffffffffff1673ffffffffffffffffffffffffffffffffffffffff168152602001908152602001600020600101600082825401925050819055507fa1d0371d72520a6b045b83f0e52b625a4a84b2ad1ffe079d0e1524ca95cfaa323433604051808381526020018273ffffffffffffffffffffffffffffffffffffffff1673ffffffffffffffffffffffffffffffffffffffff1681526020019250505060405180910390a15050565b6000809054906101000a900473ffffffffffffffffffffffffffffffffffffffff1673ffffffffffffffffffffffffffffffffffffffff163373ffffffffffffffffffffffffffffffffffffffff16146112fc57600080fd5b3373ffffffffffffffffffffffffffffffffffffffff16ff5b6000806002428161132257fe5b0690506060600182141561137157600192506040518060400160405280600581526020017f486561647300000000000000000000000000000000000000000000000000000081525090506113ae565b600092506040518060400160405280600581526020017f5461696c7300000000000000000000000000000000000000000000000000000081525090505b505090565b600033905081600360008373ffffffffffffffffffffffffffffffffffffffff1673ffffffffffffffffffffffffffffffffffffffff16815260200190815260200160002060008201518160000160006101000a81548173ffffffffffffffffffffffffffffffffffffffff021916908373ffffffffffffffffffffffffffffffffffffffff160217905550602082015181600101559050505050565b6040518060400160405280600073ffffffffffffffffffffffffffffffffffffffff16815260200160008152509056fe42657420616d6f756e74206d757374206265206174206c6561737420312066696e6e657920616e64206e6f206d6f7265207468616e203130302066696e6e6579596f7520646f206e6f742063757272656e746c79206861766520616e792066756e647320666f72207769746864726177616c596f7520646f206e6f742063757272656e746c79206861766520656e6f756768206c697175696469747920746f20636f7665722074686174206265742c20706c65617365206465706f736974206d6f72652066756e6473206f72207265647563652062657420616d6f756e74596f75206d757374206465706f736974206174206c6561737420312046696e6e657920746f20706c617920746869732067616d65596f75206d757374206861766520736f6d652066756e647320696e20796f75722062657474696e67206163636f756e7420746f20706c6163652061206265744865616473206f72205461696c73206d7573742062652073656c656374656420666f722062657420746f2070726f6365656454686520636f6e747261637420646f6573206e6f742063757272656e746c79206861766520656e6f756768206c697175696469747920746f20636f76657220612077696e6e696e67206265742c20706c656173652074727920616761696e206c617465724d696e696d756d206465706f73697420746f20636f6e7472616374206973206174206c656173742032302046696e6e6579202877686963682077696c6c20636f766572206174206c656173742032206d6178206265747329a265627a7a7231582017093e1eba17eb2f6b7297203f3b0a021afc8e3802f5cf21bd5c9afeb53a55ca64736f6c634300050c0032",
  "source": "import \"./Ownable.sol\";\r\nimport \"./Destroyable.sol\";\r\nimport \"./Accountable.sol\";\r\n\r\npragma solidity 0.5.12;\r\n\r\ncontract FlipOut is Ownable, Destroyable, Accountable {\r\n\r\n    uint internal flip;\r\n    uint internal flipChoice;\r\n\r\n    event BetPlaced(uint amountBet, uint newBalance);\r\n    event Results(string flipResult, string choice, string winner, uint payoutAmount, address recipient);\r\n\r\n\r\n//takes amountToBet integer to be finney amount and will be converted to wei in function\r\n//takes betChoice as integer as it is easier to deal with an integer than a string:  1 == Heads and 0 == Tails for the purpose of this function\r\n    function flipIt(uint amountToBet, uint betChoice) public {\r\n        require(amountToBet >= 1, \"Bet amount must be at least 1 finney and no more than 100 finney\");\r\n        require(betChoice == 1 || betChoice == 0, \"Heads or Tails must be selected for bet to proceed\");\r\n        require(punters[msg.sender].balance >= 1 finney,\"You must have some funds in your betting account to place a bet\");\r\n\r\n        uint bet = amountToBet * 1e15;      //converts a number to a wei amount (this contract assumes finneys as operational value)\r\n        require(punters[msg.sender].balance >= bet, \"You do not currently have enough liquidity to cover that bet, please deposit more funds or reduce bet amount\");\r\n        require(contractBalance >= bet, \"The contract does not currently have enough liquidity to cover a winning bet, please try again later\");\r\n\r\n        punters[msg.sender].balance -= bet;\r\n\r\n        emit BetPlaced(bet, punters[msg.sender].balance);\r\n\r\n        string memory choice;\r\n        if(betChoice == 1) {\r\n            choice = \"Heads\";\r\n            flipChoice = 1;\r\n        } else {\r\n            choice = \"Tails\";\r\n            flipChoice = 0;\r\n        }\r\n\r\n        flip = flipCoin();\r\n\r\n        uint payout = bet * 2;\r\n\r\n        if (betChoice == 1) {  //1 is equal to heads, 0 is equal to tails\r\n            if (flip == 1) {   //1 is equal to heads, 0 is equal to tails\r\n                punters[msg.sender].balance += payout;\r\n                contractBalance -= bet;\r\n                emit Results(\"Heads\", choice, \"The Player\", payout, msg.sender);\r\n            } else {\r\n                contractBalance += bet;\r\n                emit Results(\"Tails\", choice, \"The House\", bet, owner);\r\n            }\r\n        }\r\n\r\n        if (betChoice == 0) {   //1 is equal to heads, 0 is equal to tails\r\n            if (flip == 0) {   //1 is equal to heads, 0 is equal to tails\r\n                punters[msg.sender].balance += payout;\r\n                contractBalance -= bet;\r\n                emit Results(\"Tails\", choice, \"The Player\", payout, msg.sender);\r\n            } else {\r\n                contractBalance += bet;\r\n                emit Results(\"Heads\", choice, \"The House\", bet, owner);\r\n            }\r\n        }\r\n    }\r\n\r\n\r\n    function flipCoin() internal view returns(uint flipResult){      //used in the flipIt and doubleOrNothing functions, can also be called by Dapp for non bet coin flip\r\n\r\n        uint flipRes = now % 2;\r\n        string memory result;\r\n        if (flipRes == 1){\r\n            flipResult = 1;\r\n            result = \"Heads\";\r\n        } else {\r\n            flipResult = 0;\r\n            result = \"Tails\";\r\n        }\r\n    }\r\n\r\n\r\n  }\r\n",
  "sourcePath": "D:\\Justin\\Documents\\Justin\\Ethereum\\CryptoCasino\\contracts\\FlipOut.sol",
  "compiler": {
    "name": "solc",
    "version": "0.5.12+commit.7709ece9.Emscripten.clang"
  },
  "schemaVersion": "3.0.16",
  "updatedAt": "2020-09-19T13:07:35.862Z",
  "devdoc": {
    "methods": {}
  },
  "userdoc": {
    "methods": {}
  }
}