{
  "contractName": "Accountable",
  "abi": [
    {
      "anonymous": false,
      "inputs": [
        {
          "indexed": true,
          "internalType": "address",
          "name": "toAccount",
          "type": "address"
        },
        {
          "indexed": false,
          "internalType": "uint256",
          "name": "amountWithdrawn",
          "type": "uint256"
        }
      ],
      "name": "ContractBalanceWithdrawn",
      "type": "event"
    },
    {
      "anonymous": false,
      "inputs": [
        {
          "indexed": true,
          "internalType": "address",
          "name": "fromAccount",
          "type": "address"
        },
        {
          "indexed": false,
          "internalType": "uint256",
          "name": "amountDeposited",
          "type": "uint256"
        },
        {
          "indexed": false,
          "internalType": "uint256",
          "name": "newBalance",
          "type": "uint256"
        }
      ],
      "name": "ContractDepositMade",
      "type": "event"
    },
    {
      "anonymous": false,
      "inputs": [
        {
          "indexed": true,
          "internalType": "address",
          "name": "toAccount",
          "type": "address"
        },
        {
          "indexed": false,
          "internalType": "uint256",
          "name": "amountWithdrawn",
          "type": "uint256"
        }
      ],
      "name": "PlayerFundsWithdrawn",
      "type": "event"
    },
    {
      "anonymous": false,
      "inputs": [
        {
          "indexed": true,
          "internalType": "address",
          "name": "fromAccount",
          "type": "address"
        },
        {
          "indexed": false,
          "internalType": "uint256",
          "name": "amountDeposited",
          "type": "uint256"
        },
        {
          "indexed": false,
          "internalType": "uint256",
          "name": "newBalance",
          "type": "uint256"
        }
      ],
      "name": "UserDepositMade",
      "type": "event"
    },
    {
      "constant": false,
      "inputs": [],
      "name": "Destroy",
      "outputs": [],
      "payable": false,
      "stateMutability": "nonpayable",
      "type": "function"
    },
    {
      "constant": false,
      "inputs": [
        {
          "internalType": "bytes32",
          "name": "_myid",
          "type": "bytes32"
        },
        {
          "internalType": "string",
          "name": "_result",
          "type": "string"
        }
      ],
      "name": "__callback",
      "outputs": [],
      "payable": false,
      "stateMutability": "nonpayable",
      "type": "function"
    },
    {
      "constant": false,
      "inputs": [
        {
          "internalType": "bytes32",
          "name": "_myid",
          "type": "bytes32"
        },
        {
          "internalType": "string",
          "name": "_result",
          "type": "string"
        },
        {
          "internalType": "bytes",
          "name": "_proof",
          "type": "bytes"
        }
      ],
      "name": "__callback",
      "outputs": [],
      "payable": false,
      "stateMutability": "nonpayable",
      "type": "function"
    },
    {
      "constant": true,
      "inputs": [
        {
          "internalType": "bytes32",
          "name": "",
          "type": "bytes32"
        }
      ],
      "name": "bets",
      "outputs": [
        {
          "internalType": "bytes32",
          "name": "id",
          "type": "bytes32"
        },
        {
          "internalType": "address",
          "name": "player",
          "type": "address"
        },
        {
          "internalType": "uint256",
          "name": "gameRef",
          "type": "uint256"
        },
        {
          "internalType": "uint256",
          "name": "betAmount",
          "type": "uint256"
        },
        {
          "internalType": "uint256",
          "name": "choice",
          "type": "uint256"
        },
        {
          "internalType": "uint256",
          "name": "queryPrice",
          "type": "uint256"
        },
        {
          "internalType": "uint256",
          "name": "result",
          "type": "uint256"
        }
      ],
      "payable": false,
      "stateMutability": "view",
      "type": "function"
    },
    {
      "constant": true,
      "inputs": [
        {
          "internalType": "address",
          "name": "",
          "type": "address"
        }
      ],
      "name": "cards",
      "outputs": [
        {
          "internalType": "address",
          "name": "user",
          "type": "address"
        },
        {
          "internalType": "uint256",
          "name": "houseCard",
          "type": "uint256"
        },
        {
          "internalType": "bytes32",
          "name": "cardId",
          "type": "bytes32"
        },
        {
          "internalType": "bool",
          "name": "waiting",
          "type": "bool"
        }
      ],
      "payable": false,
      "stateMutability": "view",
      "type": "function"
    },
    {
      "constant": true,
      "inputs": [],
      "name": "freeCallBack",
      "outputs": [
        {
          "internalType": "bool",
          "name": "",
          "type": "bool"
        }
      ],
      "payable": false,
      "stateMutability": "view",
      "type": "function"
    },
    {
      "constant": true,
      "inputs": [],
      "name": "owner",
      "outputs": [
        {
          "internalType": "address",
          "name": "",
          "type": "address"
        }
      ],
      "payable": false,
      "stateMutability": "view",
      "type": "function"
    },
    {
      "constant": true,
      "inputs": [
        {
          "internalType": "address",
          "name": "",
          "type": "address"
        }
      ],
      "name": "punters",
      "outputs": [
        {
          "internalType": "address",
          "name": "playerAddress",
          "type": "address"
        },
        {
          "internalType": "uint256",
          "name": "balance",
          "type": "uint256"
        },
        {
          "internalType": "uint256",
          "name": "pendingBets",
          "type": "uint256"
        },
        {
          "internalType": "bytes32",
          "name": "latestQueryId",
          "type": "bytes32"
        }
      ],
      "payable": false,
      "stateMutability": "view",
      "type": "function"
    },
    {
      "constant": false,
      "inputs": [],
      "name": "depositToContract",
      "outputs": [],
      "payable": true,
      "stateMutability": "payable",
      "type": "function"
    },
    {
      "constant": false,
      "inputs": [],
      "name": "addBettingFunds",
      "outputs": [],
      "payable": true,
      "stateMutability": "payable",
      "type": "function"
    },
    {
      "constant": false,
      "inputs": [],
      "name": "withdrawBettingFunds",
      "outputs": [],
      "payable": false,
      "stateMutability": "nonpayable",
      "type": "function"
    },
    {
      "constant": false,
      "inputs": [],
      "name": "withdrawContractBalance",
      "outputs": [],
      "payable": false,
      "stateMutability": "nonpayable",
      "type": "function"
    }
  ],
  "bytecode": "0x60806040526001600860006101000a81548160ff021916908315150217905550336000806101000a81548173ffffffffffffffffffffffffffffffffffffffff021916908373ffffffffffffffffffffffffffffffffffffffff160217905550610fc88061006e6000396000f3fe6080604052600436106100a75760003560e01c8063bfab3db911610064578063bfab3db91461042e578063c8f781c214610445578063c902c3ae1461044f578063cafc419f146104f4578063df11460e1461059a578063f58fef8e146105a4576100a7565b80630eee99cf146100ac5780631a1cc0a5146100c357806327dc297e146100f257806338bbfa50146101c457806370908f211461032d5780638da5cb5b146103d7575b600080fd5b3480156100b857600080fd5b506100c16105bb565b005b3480156100cf57600080fd5b506100d861079a565b604051808215151515815260200191505060405180910390f35b3480156100fe57600080fd5b506101c26004803603604081101561011557600080fd5b81019080803590602001909291908035906020019064010000000081111561013c57600080fd5b82018360208201111561014e57600080fd5b8035906020019184600183028401116401000000008311171561017057600080fd5b91908080601f016020809104026020016040519081016040528093929190818152602001838380828437600081840152601f19601f8201169050808301925050505050505091929192905050506107ad565b005b3480156101d057600080fd5b5061032b600480360360608110156101e757600080fd5b81019080803590602001909291908035906020019064010000000081111561020e57600080fd5b82018360208201111561022057600080fd5b8035906020019184600183028401116401000000008311171561024257600080fd5b91908080601f016020809104026020016040519081016040528093929190818152602001838380828437600081840152601f19601f820116905080830192505050505050509192919290803590602001906401000000008111156102a557600080fd5b8201836020820111156102b757600080fd5b803590602001918460018302840111640100000000831117156102d957600080fd5b91908080601f016020809104026020016040519081016040528093929190818152602001838380828437600081840152601f19601f8201169050808301925050505050505091929192905050506107f0565b005b34801561033957600080fd5b5061037c6004803603602081101561035057600080fd5b81019080803573ffffffffffffffffffffffffffffffffffffffff169060200190929190505050610813565b604051808573ffffffffffffffffffffffffffffffffffffffff1673ffffffffffffffffffffffffffffffffffffffff1681526020018481526020018381526020018215151515815260200194505050505060405180910390f35b3480156103e357600080fd5b506103ec610870565b604051808273ffffffffffffffffffffffffffffffffffffffff1673ffffffffffffffffffffffffffffffffffffffff16815260200191505060405180910390f35b34801561043a57600080fd5b50610443610895565b005b61044d6109b6565b005b34801561045b57600080fd5b506104886004803603602081101561047257600080fd5b8101908080359060200190929190505050610af8565b604051808881526020018773ffffffffffffffffffffffffffffffffffffffff1673ffffffffffffffffffffffffffffffffffffffff16815260200186815260200185815260200184815260200183815260200182815260200197505050505050505060405180910390f35b34801561050057600080fd5b506105436004803603602081101561051757600080fd5b81019080803573ffffffffffffffffffffffffffffffffffffffff169060200190929190505050610b5a565b604051808573ffffffffffffffffffffffffffffffffffffffff1673ffffffffffffffffffffffffffffffffffffffff16815260200184815260200183815260200182815260200194505050505060405180910390f35b6105a2610baa565b005b3480156105b057600080fd5b506105b9610ee0565b005b6000600960003373ffffffffffffffffffffffffffffffffffffffff1673ffffffffffffffffffffffffffffffffffffffff1681526020019081526020016000206001015411610673576040517f08c379a00000000000000000000000000000000000000000000000000000000081526004018080602001828103825260118152602001807f43616e6e6f74207769746864726177203000000000000000000000000000000081525060200191505060405180910390fd5b6000600960003373ffffffffffffffffffffffffffffffffffffffff1673ffffffffffffffffffffffffffffffffffffffff1681526020019081526020016000206001015490506000600960003373ffffffffffffffffffffffffffffffffffffffff1673ffffffffffffffffffffffffffffffffffffffff168152602001908152602001600020600101819055503373ffffffffffffffffffffffffffffffffffffffff166108fc829081150290604051600060405180830381858888f19350505050158015610748573d6000803e3d6000fd5b503373ffffffffffffffffffffffffffffffffffffffff167fdc13ef7ce79641e7f89a0adb1f73831b0832805639eefe811c8173e09751306d826040518082815260200191505060405180910390a250565b600860009054906101000a900460ff1681565b6107ec828260006040519080825280601f01601f1916602001820160405280156107e65781602001600182028038833980820191505090505b506107f0565b5050565b6000801b600460008060001b815260200190815260200160002081905550505050565b600a6020528060005260406000206000915090508060000160009054906101000a900473ffffffffffffffffffffffffffffffffffffffff16908060010154908060020154908060030160009054906101000a900460ff16905084565b6000809054906101000a900473ffffffffffffffffffffffffffffffffffffffff1681565b6000809054906101000a900473ffffffffffffffffffffffffffffffffffffffff1673ffffffffffffffffffffffffffffffffffffffff163373ffffffffffffffffffffffffffffffffffffffff16146108ee57600080fd5b6000600654905060006006819055503373ffffffffffffffffffffffffffffffffffffffff166108fc829081150290604051600060405180830381858888f19350505050158015610943573d6000803e3d6000fd5b506000809054906101000a900473ffffffffffffffffffffffffffffffffffffffff1673ffffffffffffffffffffffffffffffffffffffff167f9ca86e26e8d02952f920895df7583aa717e8ebc63cd0708c0879da89b9a07445826040518082815260200191505060405180910390a250565b6000809054906101000a900473ffffffffffffffffffffffffffffffffffffffff1673ffffffffffffffffffffffffffffffffffffffff163373ffffffffffffffffffffffffffffffffffffffff1614610a0f57600080fd5b66470de4df82000080341015610a8d576040517f08c379a00000000000000000000000000000000000000000000000000000000081526004018080602001828103825260118152602001807f32302066696e6e6579206d696e696d756d00000000000000000000000000000081525060200191505060405180910390fd5b346006600082825401925050819055503373ffffffffffffffffffffffffffffffffffffffff167f350a7000a835544193f030ad53ca1f667390855a6373fd43a2a998c98bfbf85634600654604051808381526020018281526020019250505060405180910390a250565b600b6020528060005260406000206000915090508060000154908060010160009054906101000a900473ffffffffffffffffffffffffffffffffffffffff16908060020154908060030154908060040154908060050154908060060154905087565b60096020528060005260406000206000915090508060000160009054906101000a900473ffffffffffffffffffffffffffffffffffffffff16908060010154908060020154908060030154905084565b66038d7ea4c6800080341015610c28576040517f08c379a00000000000000000000000000000000000000000000000000000000081526004018080602001828103825260108152602001807f312066696e6e6579206d696e696d756d0000000000000000000000000000000081525060200191505060405180910390fd5b610c30610f52565b33816000019073ffffffffffffffffffffffffffffffffffffffff16908173ffffffffffffffffffffffffffffffffffffffff1681525050600960003373ffffffffffffffffffffffffffffffffffffffff1673ffffffffffffffffffffffffffffffffffffffff16815260200190815260200160002060010154816020018181525050600960003373ffffffffffffffffffffffffffffffffffffffff1673ffffffffffffffffffffffffffffffffffffffff16815260200190815260200160002060020154816040018181525050600960003373ffffffffffffffffffffffffffffffffffffffff1673ffffffffffffffffffffffffffffffffffffffff1681526020019081526020016000206003015481606001818152505080600960003373ffffffffffffffffffffffffffffffffffffffff1673ffffffffffffffffffffffffffffffffffffffff16815260200190815260200160002060008201518160000160006101000a81548173ffffffffffffffffffffffffffffffffffffffff021916908373ffffffffffffffffffffffffffffffffffffffff16021790555060208201518160010155604082015181600201556060820151816003015590505034600960003373ffffffffffffffffffffffffffffffffffffffff1673ffffffffffffffffffffffffffffffffffffffff168152602001908152602001600020600101600082825401925050819055503373ffffffffffffffffffffffffffffffffffffffff167f155efc6f27878074d7b21fde35c660b361cb83869a21c2409ed1a562f17e172934600960003373ffffffffffffffffffffffffffffffffffffffff1673ffffffffffffffffffffffffffffffffffffffff16815260200190815260200160002060010154604051808381526020018281526020019250505060405180910390a25050565b6000809054906101000a900473ffffffffffffffffffffffffffffffffffffffff1673ffffffffffffffffffffffffffffffffffffffff163373ffffffffffffffffffffffffffffffffffffffff1614610f3957600080fd5b3373ffffffffffffffffffffffffffffffffffffffff16ff5b6040518060800160405280600073ffffffffffffffffffffffffffffffffffffffff168152602001600081526020016000815260200160008019168152509056fea265627a7a72315820557637a0396d7a2dba3e37a7b8b5566659d8e84dd66f1e086f4201d4da83e46364736f6c634300050c0032",
  "source": "import \"./Ownable.sol\";\r\nimport \"./Destroyable.sol\";\r\nimport \"./provableAPI.sol\";\r\n\r\npragma solidity 0.5.12;\r\n\r\ncontract Accountable is Ownable, Destroyable, usingProvable {\r\n\r\n    uint256 internal contractBalance;           //the contract balance\r\n    uint256 internal pendingPayouts;            //all pending payouts stored until contract balance is increased or decreased at conclusion of bet\r\n    bool public freeCallBack = true;            //so the contract knows whether to charge for callback or not, will become false after first call\r\n\r\n    //I have chosen to have pending bet balances for the contract and for the player (see Punter struct below) as this enables me to account for\r\n    //current pending bet amounts without deducting from the contract or user balances until the conclusion of the bet\r\n    //(at which time the pending bet amounts are deducted from the pending bet balances)\r\n    //I have done it this way in case for some reason the bet doesn't finish, then the actual balances are unaffected, but pending bet balances\r\n    //can still be accounted for in bet/balance requirements to ensure the contract can cover winning bets and the user can cover losing bets\r\n\r\n    modifier betDeposit(uint minimumAmount){\r\n        require (msg.value >= minimumAmount, \"1 finney minimum\");\r\n        _;\r\n    }\r\n\r\n    modifier contractDeposit(uint minimumAmount){\r\n        require (msg.value >= minimumAmount, \"20 finney minimum\");\r\n        _;\r\n    }\r\n\r\n\r\n    struct Punter {     //created for each player\r\n        address playerAddress;\r\n        uint256 balance;\r\n        uint256 pendingBets;            //pending bet amounts stored here (instead of deducting the player's balance at the start of a bet) in case something goes wrong with bet\r\n        bytes32 latestQueryId;\r\n    }\r\n\r\n\r\n    struct Bet {\r\n        bytes32 id;\r\n        address player;\r\n        uint256 gameRef;\r\n        uint256 betAmount;\r\n        uint256 choice;\r\n        uint256 queryPrice;\r\n        uint256 result;\r\n    }\r\n\r\n\r\n    struct Card {   //used only for the house card storage in DrawOut as this card is generated within the smart contract, not usingProvable\r\n        address user;\r\n        uint256 houseCard;\r\n        bytes32 cardId;\r\n        bool waiting;\r\n    }\r\n\r\n\r\n    mapping(address => Punter) public punters;\r\n    mapping(address => Card) public cards;      //only for DrawOut Game\r\n    mapping(bytes32 => Bet) public bets;\r\n\r\n    event ContractDepositMade(address indexed fromAccount, uint amountDeposited, uint newBalance);\r\n    event UserDepositMade(address indexed fromAccount, uint amountDeposited, uint newBalance);\r\n    event PlayerFundsWithdrawn(address indexed toAccount, uint amountWithdrawn);\r\n    event ContractBalanceWithdrawn(address indexed toAccount, uint amountWithdrawn);\r\n\r\n\r\n    function depositToContract() public payable onlyOwner contractDeposit(20 finney) {\r\n        contractBalance += msg.value;\r\n\r\n        emit ContractDepositMade(msg.sender, msg.value, contractBalance);\r\n    }\r\n\r\n\r\n    function addBettingFunds() public payable betDeposit(1 finney) {\r\n\r\n        Punter memory newPunter;\r\n        newPunter.playerAddress = msg.sender;\r\n        newPunter.balance = punters[msg.sender].balance;\r\n        newPunter.pendingBets = punters[msg.sender].pendingBets;\r\n        newPunter.latestQueryId = punters[msg.sender].latestQueryId;\r\n\r\n        punters[msg.sender] = newPunter;\r\n\r\n        punters[msg.sender].balance += msg.value;\r\n\r\n        emit UserDepositMade(msg.sender, msg.value, punters[msg.sender].balance);\r\n    }\r\n\r\n\r\n    function withdrawBettingFunds() public {\r\n        require(punters[msg.sender].balance > 0, \"Cannot withdraw 0\");\r\n        uint toTransfer = punters[msg.sender].balance;\r\n        punters[msg.sender].balance = 0;\r\n        msg.sender.transfer(toTransfer);\r\n        emit PlayerFundsWithdrawn(msg.sender, toTransfer);\r\n    }\r\n\r\n\r\n    function withdrawContractBalance() public onlyOwner {\r\n        uint toTransfer = contractBalance;\r\n        contractBalance = 0;\r\n        msg.sender.transfer(toTransfer);\r\n        emit ContractBalanceWithdrawn(owner, toTransfer);\r\n    }\r\n\r\n}\r\n",
  "sourcePath": "D:\\Justin\\Documents\\Justin\\Ethereum\\blockPunt\\contracts\\Accountable.sol",
  "compiler": {
    "name": "solc",
    "version": "0.5.12+commit.7709ece9.Emscripten.clang"
  },
  "schemaVersion": "3.0.16",
  "updatedAt": "2020-10-24T08:19:38.975Z",
  "devdoc": {
    "methods": {
      "__callback(bytes32,string)": {
        "details": "The following `__callback` functions are just placeholders ideally     meant to be defined in child contract when proofs are used.     The function bodies simply silence compiler warnings."
      }
    }
  },
  "userdoc": {
    "methods": {}
  }
}