{
  "contractName": "Callable",
  "abi": [
    {
      "anonymous": false,
      "inputs": [
        {
          "indexed": true,
          "internalType": "address",
          "name": "player",
          "type": "address"
        },
        {
          "indexed": true,
          "internalType": "bytes32",
          "name": "queryId",
          "type": "bytes32"
        },
        {
          "indexed": false,
          "internalType": "uint256",
          "name": "amountBet",
          "type": "uint256"
        },
        {
          "indexed": false,
          "internalType": "uint256",
          "name": "balanceBeforeBet",
          "type": "uint256"
        }
      ],
      "name": "BetPlaced",
      "type": "event"
    },
    {
      "anonymous": false,
      "inputs": [
        {
          "indexed": true,
          "internalType": "address",
          "name": "toAccount",
          "type": "address"
        },
        {
          "indexed": false,
          "internalType": "uint256",
          "name": "amountWithdrawn",
          "type": "uint256"
        }
      ],
      "name": "ContractBalanceWithdrawn",
      "type": "event"
    },
    {
      "anonymous": false,
      "inputs": [
        {
          "indexed": true,
          "internalType": "address",
          "name": "fromAccount",
          "type": "address"
        },
        {
          "indexed": false,
          "internalType": "uint256",
          "name": "amountDeposited",
          "type": "uint256"
        },
        {
          "indexed": false,
          "internalType": "uint256",
          "name": "newBalance",
          "type": "uint256"
        }
      ],
      "name": "ContractDepositMade",
      "type": "event"
    },
    {
      "anonymous": false,
      "inputs": [
        {
          "indexed": true,
          "internalType": "address",
          "name": "player",
          "type": "address"
        },
        {
          "indexed": true,
          "internalType": "bytes32",
          "name": "queryId",
          "type": "bytes32"
        },
        {
          "indexed": false,
          "internalType": "uint256",
          "name": "houseCard",
          "type": "uint256"
        },
        {
          "indexed": false,
          "internalType": "uint256",
          "name": "userCard",
          "type": "uint256"
        },
        {
          "indexed": false,
          "internalType": "bool",
          "name": "choseHigher",
          "type": "bool"
        },
        {
          "indexed": false,
          "internalType": "uint256",
          "name": "betAmount",
          "type": "uint256"
        },
        {
          "indexed": false,
          "internalType": "uint256",
          "name": "payOutAmount",
          "type": "uint256"
        },
        {
          "indexed": false,
          "internalType": "string",
          "name": "winner",
          "type": "string"
        }
      ],
      "name": "DrawOutResults",
      "type": "event"
    },
    {
      "anonymous": false,
      "inputs": [
        {
          "indexed": true,
          "internalType": "address",
          "name": "player",
          "type": "address"
        },
        {
          "indexed": true,
          "internalType": "bytes32",
          "name": "queryId",
          "type": "bytes32"
        },
        {
          "indexed": false,
          "internalType": "uint256",
          "name": "latestNumber",
          "type": "uint256"
        },
        {
          "indexed": false,
          "internalType": "uint256",
          "name": "Heads1orTails0",
          "type": "uint256"
        }
      ],
      "name": "FlipNumberReceived",
      "type": "event"
    },
    {
      "anonymous": false,
      "inputs": [
        {
          "indexed": true,
          "internalType": "address",
          "name": "player",
          "type": "address"
        },
        {
          "indexed": true,
          "internalType": "bytes32",
          "name": "queryId",
          "type": "bytes32"
        },
        {
          "indexed": false,
          "internalType": "string",
          "name": "flipResult",
          "type": "string"
        },
        {
          "indexed": false,
          "internalType": "string",
          "name": "choice",
          "type": "string"
        },
        {
          "indexed": false,
          "internalType": "string",
          "name": "winner",
          "type": "string"
        },
        {
          "indexed": false,
          "internalType": "uint256",
          "name": "betAmount",
          "type": "uint256"
        },
        {
          "indexed": false,
          "internalType": "uint256",
          "name": "payOutAmount",
          "type": "uint256"
        }
      ],
      "name": "FlipOutResults",
      "type": "event"
    },
    {
      "anonymous": false,
      "inputs": [
        {
          "indexed": true,
          "internalType": "address",
          "name": "player",
          "type": "address"
        },
        {
          "indexed": false,
          "internalType": "uint256",
          "name": "latestNumber",
          "type": "uint256"
        },
        {
          "indexed": false,
          "internalType": "uint256",
          "name": "houseCard",
          "type": "uint256"
        }
      ],
      "name": "HouseCard_Received",
      "type": "event"
    },
    {
      "anonymous": false,
      "inputs": [
        {
          "indexed": true,
          "internalType": "address",
          "name": "toAccount",
          "type": "address"
        },
        {
          "indexed": false,
          "internalType": "uint256",
          "name": "amountWithdrawn",
          "type": "uint256"
        }
      ],
      "name": "PlayerFundsWithdrawn",
      "type": "event"
    },
    {
      "anonymous": false,
      "inputs": [
        {
          "indexed": true,
          "internalType": "address",
          "name": "player",
          "type": "address"
        },
        {
          "indexed": true,
          "internalType": "bytes32",
          "name": "queryId",
          "type": "bytes32"
        },
        {
          "indexed": false,
          "internalType": "uint256",
          "name": "latestNumber",
          "type": "uint256"
        },
        {
          "indexed": false,
          "internalType": "uint256",
          "name": "diceNumber",
          "type": "uint256"
        }
      ],
      "name": "RollNumberReceived",
      "type": "event"
    },
    {
      "anonymous": false,
      "inputs": [
        {
          "indexed": true,
          "internalType": "address",
          "name": "player",
          "type": "address"
        },
        {
          "indexed": true,
          "internalType": "bytes32",
          "name": "queryId",
          "type": "bytes32"
        },
        {
          "indexed": false,
          "internalType": "uint256",
          "name": "rollResult",
          "type": "uint256"
        },
        {
          "indexed": false,
          "internalType": "uint256",
          "name": "choice",
          "type": "uint256"
        },
        {
          "indexed": false,
          "internalType": "string",
          "name": "winner",
          "type": "string"
        },
        {
          "indexed": false,
          "internalType": "uint256",
          "name": "betAmount",
          "type": "uint256"
        },
        {
          "indexed": false,
          "internalType": "uint256",
          "name": "payOutAmount",
          "type": "uint256"
        }
      ],
      "name": "RollOutResults",
      "type": "event"
    },
    {
      "anonymous": false,
      "inputs": [
        {
          "indexed": true,
          "internalType": "address",
          "name": "player",
          "type": "address"
        },
        {
          "indexed": true,
          "internalType": "bytes32",
          "name": "queryId",
          "type": "bytes32"
        },
        {
          "indexed": false,
          "internalType": "uint256",
          "name": "latestNumber",
          "type": "uint256"
        },
        {
          "indexed": false,
          "internalType": "uint256",
          "name": "userCard",
          "type": "uint256"
        }
      ],
      "name": "UserCard_Received",
      "type": "event"
    },
    {
      "anonymous": false,
      "inputs": [
        {
          "indexed": true,
          "internalType": "address",
          "name": "fromAccount",
          "type": "address"
        },
        {
          "indexed": false,
          "internalType": "uint256",
          "name": "amountDeposited",
          "type": "uint256"
        },
        {
          "indexed": false,
          "internalType": "uint256",
          "name": "newBalance",
          "type": "uint256"
        }
      ],
      "name": "UserDepositMade",
      "type": "event"
    },
    {
      "constant": false,
      "inputs": [],
      "name": "Destroy",
      "outputs": [],
      "payable": false,
      "stateMutability": "nonpayable",
      "type": "function"
    },
    {
      "constant": false,
      "inputs": [
        {
          "internalType": "bytes32",
          "name": "_queryId",
          "type": "bytes32"
        },
        {
          "internalType": "string",
          "name": "_result",
          "type": "string"
        }
      ],
      "name": "__callback",
      "outputs": [],
      "payable": false,
      "stateMutability": "nonpayable",
      "type": "function"
    },
    {
      "constant": false,
      "inputs": [
        {
          "internalType": "bytes32",
          "name": "_myid",
          "type": "bytes32"
        },
        {
          "internalType": "string",
          "name": "_result",
          "type": "string"
        },
        {
          "internalType": "bytes",
          "name": "_proof",
          "type": "bytes"
        }
      ],
      "name": "__callback",
      "outputs": [],
      "payable": false,
      "stateMutability": "nonpayable",
      "type": "function"
    },
    {
      "constant": false,
      "inputs": [],
      "name": "addBettingFunds",
      "outputs": [],
      "payable": true,
      "stateMutability": "payable",
      "type": "function"
    },
    {
      "constant": true,
      "inputs": [
        {
          "internalType": "bytes32",
          "name": "",
          "type": "bytes32"
        }
      ],
      "name": "bets",
      "outputs": [
        {
          "internalType": "bytes32",
          "name": "id",
          "type": "bytes32"
        },
        {
          "internalType": "address",
          "name": "player",
          "type": "address"
        },
        {
          "internalType": "uint256",
          "name": "gameRef",
          "type": "uint256"
        },
        {
          "internalType": "uint256",
          "name": "betAmount",
          "type": "uint256"
        },
        {
          "internalType": "uint256",
          "name": "choice",
          "type": "uint256"
        },
        {
          "internalType": "uint256",
          "name": "queryPrice",
          "type": "uint256"
        },
        {
          "internalType": "uint256",
          "name": "result",
          "type": "uint256"
        }
      ],
      "payable": false,
      "stateMutability": "view",
      "type": "function"
    },
    {
      "constant": true,
      "inputs": [
        {
          "internalType": "address",
          "name": "",
          "type": "address"
        }
      ],
      "name": "cards",
      "outputs": [
        {
          "internalType": "address",
          "name": "user",
          "type": "address"
        },
        {
          "internalType": "uint256",
          "name": "houseCard",
          "type": "uint256"
        },
        {
          "internalType": "bytes32",
          "name": "cardId",
          "type": "bytes32"
        },
        {
          "internalType": "bool",
          "name": "waiting",
          "type": "bool"
        }
      ],
      "payable": false,
      "stateMutability": "view",
      "type": "function"
    },
    {
      "constant": false,
      "inputs": [],
      "name": "depositToContract",
      "outputs": [],
      "payable": true,
      "stateMutability": "payable",
      "type": "function"
    },
    {
      "constant": false,
      "inputs": [
        {
          "internalType": "uint256",
          "name": "amountToBet",
          "type": "uint256"
        }
      ],
      "name": "drawHouseCard",
      "outputs": [],
      "payable": false,
      "stateMutability": "nonpayable",
      "type": "function"
    },
    {
      "constant": false,
      "inputs": [
        {
          "internalType": "uint256",
          "name": "high",
          "type": "uint256"
        }
      ],
      "name": "drawUserCard",
      "outputs": [],
      "payable": false,
      "stateMutability": "nonpayable",
      "type": "function"
    },
    {
      "constant": false,
      "inputs": [
        {
          "internalType": "uint256",
          "name": "amountToBet",
          "type": "uint256"
        },
        {
          "internalType": "uint256",
          "name": "betChoice",
          "type": "uint256"
        }
      ],
      "name": "flipIt",
      "outputs": [],
      "payable": false,
      "stateMutability": "nonpayable",
      "type": "function"
    },
    {
      "constant": true,
      "inputs": [],
      "name": "freeCallBack",
      "outputs": [
        {
          "internalType": "bool",
          "name": "",
          "type": "bool"
        }
      ],
      "payable": false,
      "stateMutability": "view",
      "type": "function"
    },
    {
      "constant": true,
      "inputs": [],
      "name": "owner",
      "outputs": [
        {
          "internalType": "address",
          "name": "",
          "type": "address"
        }
      ],
      "payable": false,
      "stateMutability": "view",
      "type": "function"
    },
    {
      "constant": false,
      "inputs": [
        {
          "internalType": "address",
          "name": "punter",
          "type": "address"
        },
        {
          "internalType": "bytes32",
          "name": "query_id",
          "type": "bytes32"
        },
        {
          "internalType": "uint256",
          "name": "result",
          "type": "uint256"
        },
        {
          "internalType": "uint256",
          "name": "game",
          "type": "uint256"
        }
      ],
      "name": "payOut",
      "outputs": [],
      "payable": false,
      "stateMutability": "nonpayable",
      "type": "function"
    },
    {
      "constant": true,
      "inputs": [
        {
          "internalType": "address",
          "name": "",
          "type": "address"
        }
      ],
      "name": "punters",
      "outputs": [
        {
          "internalType": "address",
          "name": "playerAddress",
          "type": "address"
        },
        {
          "internalType": "uint256",
          "name": "balance",
          "type": "uint256"
        },
        {
          "internalType": "uint256",
          "name": "pendingBets",
          "type": "uint256"
        },
        {
          "internalType": "bytes32",
          "name": "latestQueryId",
          "type": "bytes32"
        }
      ],
      "payable": false,
      "stateMutability": "view",
      "type": "function"
    },
    {
      "constant": false,
      "inputs": [
        {
          "internalType": "address",
          "name": "punter",
          "type": "address"
        },
        {
          "internalType": "uint256",
          "name": "gameRef",
          "type": "uint256"
        },
        {
          "internalType": "uint256",
          "name": "betAmount",
          "type": "uint256"
        },
        {
          "internalType": "uint256",
          "name": "choice",
          "type": "uint256"
        },
        {
          "internalType": "uint256",
          "name": "query_price",
          "type": "uint256"
        }
      ],
      "name": "requestNumber",
      "outputs": [],
      "payable": true,
      "stateMutability": "payable",
      "type": "function"
    },
    {
      "constant": false,
      "inputs": [
        {
          "internalType": "uint256",
          "name": "amountToBet",
          "type": "uint256"
        },
        {
          "internalType": "uint256",
          "name": "betChoice",
          "type": "uint256"
        }
      ],
      "name": "rollIt",
      "outputs": [],
      "payable": false,
      "stateMutability": "nonpayable",
      "type": "function"
    },
    {
      "constant": false,
      "inputs": [],
      "name": "withdrawBettingFunds",
      "outputs": [],
      "payable": false,
      "stateMutability": "nonpayable",
      "type": "function"
    },
    {
      "constant": false,
      "inputs": [],
      "name": "withdrawContractBalance",
      "outputs": [],
      "payable": false,
      "stateMutability": "nonpayable",
      "type": "function"
    },
    {
      "constant": true,
      "inputs": [],
      "name": "getContractInfo",
      "outputs": [
        {
          "internalType": "address",
          "name": "contractAddress",
          "type": "address"
        },
        {
          "internalType": "uint256",
          "name": "balance",
          "type": "uint256"
        },
        {
          "internalType": "uint256",
          "name": "pendingAmount",
          "type": "uint256"
        }
      ],
      "payable": false,
      "stateMutability": "view",
      "type": "function"
    },
    {
      "constant": true,
      "inputs": [],
      "name": "getUserInfo",
      "outputs": [
        {
          "internalType": "address",
          "name": "user",
          "type": "address"
        },
        {
          "internalType": "uint256",
          "name": "balance",
          "type": "uint256"
        },
        {
          "internalType": "uint256",
          "name": "pendingBets",
          "type": "uint256"
        }
      ],
      "payable": false,
      "stateMutability": "view",
      "type": "function"
    }
  ],
  "bytecode": "0x60806040526001600860006101000a81548160ff021916908315150217905550336000806101000a81548173ffffffffffffffffffffffffffffffffffffffff021916908373ffffffffffffffffffffffffffffffffffffffff160217905550615bd68061006e6000396000f3fe60806040526004361061011e5760003560e01c80637cc1f867116100a0578063c8f781c211610064578063c8f781c214610761578063c902c3ae1461076b578063cafc419f14610810578063df11460e146108b6578063f58fef8e146108c05761011e565b80637cc1f867146105e4578063853b8850146106495780638da5cb5b146106845780639745cd1f146106db578063bfab3db91461074a5761011e565b806338bbfa50116100e757806338bbfa50146102e25780634cf5350a1461044b578063512a5637146104905780635d8d1585146104d557806370908f211461053a5761011e565b8062dd440f146101235780630eee99cf1461015e5780631a1cc0a5146101755780631b769466146101a457806327dc297e14610210575b600080fd5b34801561012f57600080fd5b5061015c6004803603602081101561014657600080fd5b81019080803590602001909291905050506108d7565b005b34801561016a57600080fd5b50610173610aa6565b005b34801561018157600080fd5b5061018a610c85565b604051808215151515815260200191505060405180910390f35b61020e600480360360a08110156101ba57600080fd5b81019080803573ffffffffffffffffffffffffffffffffffffffff16906020019092919080359060200190929190803590602001909291908035906020019092919080359060200190929190505050610c98565b005b34801561021c57600080fd5b506102e06004803603604081101561023357600080fd5b81019080803590602001909291908035906020019064010000000081111561025a57600080fd5b82018360208201111561026c57600080fd5b8035906020019184600183028401116401000000008311171561028e57600080fd5b91908080601f016020809104026020016040519081016040528093929190818152602001838380828437600081840152601f19601f820116905080830192505050505050509192919290505050610eb7565b005b3480156102ee57600080fd5b506104496004803603606081101561030557600080fd5b81019080803590602001909291908035906020019064010000000081111561032c57600080fd5b82018360208201111561033e57600080fd5b8035906020019184600183028401116401000000008311171561036057600080fd5b91908080601f016020809104026020016040519081016040528093929190818152602001838380828437600081840152601f19601f820116905080830192505050505050509192919290803590602001906401000000008111156103c357600080fd5b8201836020820111156103d557600080fd5b803590602001918460018302840111640100000000831117156103f757600080fd5b91908080601f016020809104026020016040519081016040528093929190818152602001838380828437600081840152601f19601f8201169050808301925050505050505091929192905050506112c5565b005b34801561045757600080fd5b5061048e6004803603604081101561046e57600080fd5b8101908080359060200190929190803590602001909291905050506112e8565b005b34801561049c57600080fd5b506104d3600480360360408110156104b357600080fd5b810190808035906020019092919080359060200190929190505050611580565b005b3480156104e157600080fd5b506104ea61186f565b604051808473ffffffffffffffffffffffffffffffffffffffff1673ffffffffffffffffffffffffffffffffffffffff168152602001838152602001828152602001935050505060405180910390f35b34801561054657600080fd5b506105896004803603602081101561055d57600080fd5b81019080803573ffffffffffffffffffffffffffffffffffffffff169060200190929190505050611906565b604051808573ffffffffffffffffffffffffffffffffffffffff1673ffffffffffffffffffffffffffffffffffffffff1681526020018481526020018381526020018215151515815260200194505050505060405180910390f35b3480156105f057600080fd5b506105f9611963565b604051808473ffffffffffffffffffffffffffffffffffffffff1673ffffffffffffffffffffffffffffffffffffffff168152602001838152602001828152602001935050505060405180910390f35b34801561065557600080fd5b506106826004803603602081101561066c57600080fd5b810190808035906020019092919050505061199b565b005b34801561069057600080fd5b5061069961205e565b604051808273ffffffffffffffffffffffffffffffffffffffff1673ffffffffffffffffffffffffffffffffffffffff16815260200191505060405180910390f35b3480156106e757600080fd5b50610748600480360360808110156106fe57600080fd5b81019080803573ffffffffffffffffffffffffffffffffffffffff169060200190929190803590602001909291908035906020019092919080359060200190929190505050612083565b005b34801561075657600080fd5b5061075f61304f565b005b610769613170565b005b34801561077757600080fd5b506107a46004803603602081101561078e57600080fd5b81019080803590602001909291905050506132b2565b604051808881526020018773ffffffffffffffffffffffffffffffffffffffff1673ffffffffffffffffffffffffffffffffffffffff16815260200186815260200185815260200184815260200183815260200182815260200197505050505050505060405180910390f35b34801561081c57600080fd5b5061085f6004803603602081101561083357600080fd5b81019080803573ffffffffffffffffffffffffffffffffffffffff169060200190929190505050613314565b604051808573ffffffffffffffffffffffffffffffffffffffff1673ffffffffffffffffffffffffffffffffffffffff16815260200184815260200183815260200182815260200194505050505060405180910390f35b6108be613364565b005b3480156108cc57600080fd5b506108d561369a565b005b60008114806108e65750600181145b610958576040517f08c379a00000000000000000000000000000000000000000000000000000000081526004018080602001828103825260178152602001807f4d7573742063686f6f73652068696768206f72206c6f7700000000000000000081525060200191505060405180910390fd5b60011515600a60003373ffffffffffffffffffffffffffffffffffffffff1673ffffffffffffffffffffffffffffffffffffffff16815260200190815260200160002060030160009054906101000a900460ff16151514610a21576040517f08c379a000000000000000000000000000000000000000000000000000000000815260040180806020018281038252600f8152602001807f4d7573742062652077616974696e67000000000000000000000000000000000081525060200191505060405180910390fd5b6000600a60003373ffffffffffffffffffffffffffffffffffffffff1673ffffffffffffffffffffffffffffffffffffffff168152602001908152602001600020600201549050610aa2336003600b60008581526020019081526020016000206003015485600b600087815260200190815260200160002060050154610c98565b5050565b6000600960003373ffffffffffffffffffffffffffffffffffffffff1673ffffffffffffffffffffffffffffffffffffffff1681526020019081526020016000206001015411610b5e576040517f08c379a00000000000000000000000000000000000000000000000000000000081526004018080602001828103825260118152602001807f43616e6e6f74207769746864726177203000000000000000000000000000000081525060200191505060405180910390fd5b6000600960003373ffffffffffffffffffffffffffffffffffffffff1673ffffffffffffffffffffffffffffffffffffffff1681526020019081526020016000206001015490506000600960003373ffffffffffffffffffffffffffffffffffffffff1673ffffffffffffffffffffffffffffffffffffffff168152602001908152602001600020600101819055503373ffffffffffffffffffffffffffffffffffffffff166108fc829081150290604051600060405180830381858888f19350505050158015610c33573d6000803e3d6000fd5b503373ffffffffffffffffffffffffffffffffffffffff167fdc13ef7ce79641e7f89a0adb1f73831b0832805639eefe811c8173e09751306d826040518082815260200191505060405180910390a250565b600860009054906101000a900460ff1681565b6000801515600860009054906101000a900460ff1615151415610cbd57819050610cdd565b600090506000600860006101000a81548160ff0219169083151502179055505b60008090506000610cf382600162030d4061370c565b9050610cfd6159c0565b8181600001818152505088816020019073ffffffffffffffffffffffffffffffffffffffff16908173ffffffffffffffffffffffffffffffffffffffff1681525050878160400181815250508681606001818152505085816080018181525050838160a00181815250508060c001515080600b60008481526020019081526020016000206000820151816000015560208201518160010160006101000a81548173ffffffffffffffffffffffffffffffffffffffff021916908373ffffffffffffffffffffffffffffffffffffffff16021790555060408201518160020155606082015181600301556080820151816004015560a0820151816005015560c0820151816006015590505080600001518973ffffffffffffffffffffffffffffffffffffffff167f680397c45077ee300a8ffc23b8df8f67de5ada41abab7430a35945e03c283cb3836060015160096000866020015173ffffffffffffffffffffffffffffffffffffffff1673ffffffffffffffffffffffffffffffffffffffff16815260200190815260200160002060010154604051808381526020018281526020019250505060405180910390a3505050505050505050565b610ebf613ca7565b73ffffffffffffffffffffffffffffffffffffffff163373ffffffffffffffffffffffffffffffffffffffff1614610ef657600080fd5b6000600b600084815260200190815260200160002060010160009054906101000a900473ffffffffffffffffffffffffffffffffffffffff16905082600960008373ffffffffffffffffffffffffffffffffffffffff1673ffffffffffffffffffffffffffffffffffffffff168152602001908152602001600020600301819055506000826040516020018082805190602001908083835b60208310610fb15780518252602082019150602081019050602083039250610f8e565b6001836020036101000a0380198251168184511680821785525050505050509050019150506040516020818303038152906040528051906020012060001c90506001600b60008681526020019081526020016000206002015414156110df576002818161101a57fe5b06600b60008681526020019081526020016000206006018190555061106d8285600b600088815260200190815260200160002060060154600b600089815260200190815260200160002060020154612083565b838273ffffffffffffffffffffffffffffffffffffffff167f3e0b428f99f88317a267eb30f49f168a7d82cb56220b5e3c4ebfba8c71c4dfca83600b600089815260200190815260200160002060060154604051808381526020018281526020019250505060405180910390a36112bf565b6002600b60008681526020019081526020016000206002015414156111d05760016006828161110a57fe5b0601600b60008681526020019081526020016000206006018190555061115e8285600b600088815260200190815260200160002060060154600b600089815260200190815260200160002060020154612083565b838273ffffffffffffffffffffffffffffffffffffffff167f4abcbda462a94726d98871d89dc3d68df4c87af956c88bff9e26eb6fd8f8d24983600b600089815260200190815260200160002060060154604051808381526020018281526020019250505060405180910390a36112be565b6003600b60008681526020019081526020016000206002015414156112bd576001600d82816111fb57fe5b0601600b60008681526020019081526020016000206006018190555061124f8285600b600088815260200190815260200160002060060154600b600089815260200190815260200160002060020154612083565b838273ffffffffffffffffffffffffffffffffffffffff167f10426ca2b14c787eb34a20cb459b266c77e6c79ac3eedb0972e4bbf26510ffc783600b600089815260200190815260200160002060060154604051808381526020018281526020019250505060405180910390a35b5b5b50505050565b6000801b600460008060001b815260200190815260200160002081905550505050565b600181101580156112fa575060068111155b61136c576040517f08c379a000000000000000000000000000000000000000000000000000000000815260040180806020018281038252601b8152602001807f4d7573742063686f6f7365206265747765656e203120616e642036000000000081525060200191505060405180910390fd5b600066038d7ea4c68000830290506000611384613fc7565b9050808201600960003373ffffffffffffffffffffffffffffffffffffffff1673ffffffffffffffffffffffffffffffffffffffff16815260200190815260200160002060020154600960003373ffffffffffffffffffffffffffffffffffffffff1673ffffffffffffffffffffffffffffffffffffffff16815260200190815260200160002060010154031015611484576040517f08c379a00000000000000000000000000000000000000000000000000000000081526004018080602001828103825260148152602001807f4e6f7420656e6f756768206c697175696469747900000000000000000000000081525060200191505060405180910390fd5b806006830201600754600654031015611505576040517f08c379a00000000000000000000000000000000000000000000000000000000081526004018080602001828103825260198152602001807f436f6e74726163742063616e6e6f7420636f766572206265740000000000000081525060200191505060405180910390fd5b806006830201600760008282540192505081905550808201600960003373ffffffffffffffffffffffffffffffffffffffff1673ffffffffffffffffffffffffffffffffffffffff1681526020019081526020016000206002016000828254019250508190555061157a336002848685610c98565b50505050565b60018210156115f7576040517f08c379a00000000000000000000000000000000000000000000000000000000081526004018080602001828103825260128152602001807f4d7573742062657420736f6d657468696e67000000000000000000000000000081525060200191505060405180910390fd5b60018114806116065750600081145b61165b576040517f08c379a0000000000000000000000000000000000000000000000000000000008152600401808060200182810382526021815260200180615b816021913960400191505060405180910390fd5b600066038d7ea4c68000830290506000611673613fc7565b9050808201600960003373ffffffffffffffffffffffffffffffffffffffff1673ffffffffffffffffffffffffffffffffffffffff16815260200190815260200160002060020154600960003373ffffffffffffffffffffffffffffffffffffffff1673ffffffffffffffffffffffffffffffffffffffff16815260200190815260200160002060010154031015611773576040517f08c379a00000000000000000000000000000000000000000000000000000000081526004018080602001828103825260148152602001807f4e6f7420656e6f756768206c697175696469747900000000000000000000000081525060200191505060405180910390fd5b8060028302016007546006540310156117f4576040517f08c379a00000000000000000000000000000000000000000000000000000000081526004018080602001828103825260198152602001807f436f6e74726163742063616e6e6f7420636f766572206265740000000000000081525060200191505060405180910390fd5b806002830201600760008282540192505081905550808201600960003373ffffffffffffffffffffffffffffffffffffffff1673ffffffffffffffffffffffffffffffffffffffff16815260200190815260200160002060020160008282540192505081905550611869336001848685610c98565b50505050565b6000806000339250600960003373ffffffffffffffffffffffffffffffffffffffff1673ffffffffffffffffffffffffffffffffffffffff168152602001908152602001600020600101549150600960003373ffffffffffffffffffffffffffffffffffffffff1673ffffffffffffffffffffffffffffffffffffffff168152602001908152602001600020600201549050909192565b600a6020528060005260406000206000915090508060000160009054906101000a900473ffffffffffffffffffffffffffffffffffffffff16908060010154908060020154908060030160009054906101000a900460ff16905084565b60008060008060009054906101000a900473ffffffffffffffffffffffffffffffffffffffff16925060065491506007549050909192565b60011515600a60003373ffffffffffffffffffffffffffffffffffffffff1673ffffffffffffffffffffffffffffffffffffffff16815260200190815260200160002060030160009054906101000a900460ff1615151415611a65576040517f08c379a000000000000000000000000000000000000000000000000000000000815260040180806020018281038252601a8152602001807f43616e6e6f742062652077616974696e6720666f72206361726400000000000081525060200191505060405180910390fd5b600066038d7ea4c68000820290506000611a7d613fc7565b9050808201600960003373ffffffffffffffffffffffffffffffffffffffff1673ffffffffffffffffffffffffffffffffffffffff16815260200190815260200160002060020154600960003373ffffffffffffffffffffffffffffffffffffffff1673ffffffffffffffffffffffffffffffffffffffff16815260200190815260200160002060010154031015611b7d576040517f08c379a00000000000000000000000000000000000000000000000000000000081526004018080602001828103825260148152602001807f4e6f7420656e6f756768206c697175696469747900000000000000000000000081525060200191505060405180910390fd5b80600d830201600754600654031015611bfe576040517f08c379a00000000000000000000000000000000000000000000000000000000081526004018080602001828103825260198152602001807f436f6e74726163742063616e6e6f7420636f766572206265740000000000000081525060200191505060405180910390fd5b80600d830201600760008282540192505081905550808201600960003373ffffffffffffffffffffffffffffffffffffffff1673ffffffffffffffffffffffffffffffffffffffff1681526020019081526020016000206002016000828254019250508190555060003342604051602001808373ffffffffffffffffffffffffffffffffffffffff1673ffffffffffffffffffffffffffffffffffffffff1660601b8152601401828152602001925050506040516020818303038152906040528051906020012060001c905060006001600d8381611cd857fe5b0601905060018114158015611cee5750600d8114155b15611fa0576000611cfe83614010565b9050611d08615a16565b8060000151508181604001818152505082816020018181525050600181606001901515908115158152505080600a60003373ffffffffffffffffffffffffffffffffffffffff1673ffffffffffffffffffffffffffffffffffffffff16815260200190815260200160002060008201518160000160006101000a81548173ffffffffffffffffffffffffffffffffffffffff021916908373ffffffffffffffffffffffffffffffffffffffff160217905550602082015181600101556040820151816002015560608201518160030160006101000a81548160ff021916908315150217905550905050611df96159c0565b8281600001818152505033816020019073ffffffffffffffffffffffffffffffffffffffff16908173ffffffffffffffffffffffffffffffffffffffff168152505080604001515086816060018181525050806080015150858160a0018181525050838160c001818152505080600b60008581526020019081526020016000206000820151816000015560208201518160010160006101000a81548173ffffffffffffffffffffffffffffffffffffffff021916908373ffffffffffffffffffffffffffffffffffffffff16021790555060408201518160020155606082015181600301556080820151816004015560a0820151816005015560c08201518160060155905050823373ffffffffffffffffffffffffffffffffffffffff167f680397c45077ee300a8ffc23b8df8f67de5ada41abab7430a35945e03c283cb389600960003373ffffffffffffffffffffffffffffffffffffffff1673ffffffffffffffffffffffffffffffffffffffff16815260200190815260200160002060010154604051808381526020018281526020019250505060405180910390a3505050612001565b8360076000828254039250508190555083600960003373ffffffffffffffffffffffffffffffffffffffff1673ffffffffffffffffffffffffffffffffffffffff168152602001908152602001600020600201600082825403925050819055505b3373ffffffffffffffffffffffffffffffffffffffff167f53e656066f9d7765a5368bc7e7a2a117332bd7cd23212158818dbeea67b405938383604051808381526020018281526020019250505060405180910390a25050505050565b6000809054906101000a900473ffffffffffffffffffffffffffffffffffffffff1681565b6000600b60008581526020019081526020016000206003015490506000600b60008681526020019081526020016000206005015490508160066000828254019250508190555081600960008873ffffffffffffffffffffffffffffffffffffffff1673ffffffffffffffffffffffffffffffffffffffff16815260200190815260200160002060010160008282540392505081905550600183141561263b576000600283029050600b6000878152602001908152602001600020600401548514156123c25780600960008973ffffffffffffffffffffffffffffffffffffffff1673ffffffffffffffffffffffffffffffffffffffff1681526020019081526020016000206001016000828254019250508190555081810160066000828254039250508190555060018514156122ba57858773ffffffffffffffffffffffffffffffffffffffff167f0c9a151e6d7e4ad0bcfa7a62050b282805d04c54e59654db19dbadd7cb377a9c858460405180806020018060200180602001868152602001858152602001848103845260058152602001807f4865616473000000000000000000000000000000000000000000000000000000815250602001848103835260058152602001807f4865616473000000000000000000000000000000000000000000000000000000815250602001848103825260068152602001807f506c6179657200000000000000000000000000000000000000000000000000008152506020019550505050505060405180910390a36123bd565b858773ffffffffffffffffffffffffffffffffffffffff167f0c9a151e6d7e4ad0bcfa7a62050b282805d04c54e59654db19dbadd7cb377a9c858460405180806020018060200180602001868152602001858152602001848103845260058152602001807f5461696c73000000000000000000000000000000000000000000000000000000815250602001848103835260058152602001807f5461696c73000000000000000000000000000000000000000000000000000000815250602001848103825260068152602001807f506c6179657200000000000000000000000000000000000000000000000000008152506020019550505050505060405180910390a35b612626565b81600960008973ffffffffffffffffffffffffffffffffffffffff1673ffffffffffffffffffffffffffffffffffffffff16815260200190815260200160002060010160008282540392505081905550600185141561252257858773ffffffffffffffffffffffffffffffffffffffff167f0c9a151e6d7e4ad0bcfa7a62050b282805d04c54e59654db19dbadd7cb377a9c858660405180806020018060200180602001868152602001858152602001848103845260058152602001807f4865616473000000000000000000000000000000000000000000000000000000815250602001848103835260058152602001807f5461696c73000000000000000000000000000000000000000000000000000000815250602001848103825260058152602001807f486f7573650000000000000000000000000000000000000000000000000000008152506020019550505050505060405180910390a3612625565b858773ffffffffffffffffffffffffffffffffffffffff167f0c9a151e6d7e4ad0bcfa7a62050b282805d04c54e59654db19dbadd7cb377a9c858660405180806020018060200180602001868152602001858152602001848103845260058152602001807f5461696c73000000000000000000000000000000000000000000000000000000815250602001848103835260058152602001807f4865616473000000000000000000000000000000000000000000000000000000815250602001848103825260058152602001807f486f7573650000000000000000000000000000000000000000000000000000008152506020019550505050505060405180910390a35b5b60028302600760008282540392505081905550505b60028314156128a3576000600683029050600b6000878152602001908152602001600020600401548514156127875780600960008973ffffffffffffffffffffffffffffffffffffffff1673ffffffffffffffffffffffffffffffffffffffff16815260200190815260200160002060010160008282540192505081905550818101600660008282540392505081905550858773ffffffffffffffffffffffffffffffffffffffff167ff0f1a71001487cdd2b5333e3fe895c9deb3fd1ed644fc1563fd75591b714062a87600b60008b81526020019081526020016000206004015487866040518085815260200184815260200180602001848152602001838152602001828103825260068152602001807f506c6179657200000000000000000000000000000000000000000000000000008152506020019550505050505060405180910390a361288e565b81600960008973ffffffffffffffffffffffffffffffffffffffff1673ffffffffffffffffffffffffffffffffffffffff16815260200190815260200160002060010160008282540392505081905550858773ffffffffffffffffffffffffffffffffffffffff167ff0f1a71001487cdd2b5333e3fe895c9deb3fd1ed644fc1563fd75591b714062a87600b60008b81526020019081526020016000206004015487886040518085815260200184815260200180602001848152602001838152602001828103825260058152602001807f486f7573650000000000000000000000000000000000000000000000000000008152506020019550505050505060405180910390a35b60068302600760008282540392505081905550505b6003831415612ff75760011515600a60008873ffffffffffffffffffffffffffffffffffffffff1673ffffffffffffffffffffffffffffffffffffffff16815260200190815260200160002060030160009054906101000a900460ff16151514612975576040517f08c379a000000000000000000000000000000000000000000000000000000000815260040180806020018281038252600f8152602001807f4d7573742062652077616974696e67000000000000000000000000000000000081525060200191505060405180910390fd5b6000801b600a60008873ffffffffffffffffffffffffffffffffffffffff1673ffffffffffffffffffffffffffffffffffffffff1681526020019081526020016000206002015411612a2f576040517f08c379a00000000000000000000000000000000000000000000000000000000081526004018080602001828103825260168152602001807f4d757374206861766520686f757365636172642069640000000000000000000081525060200191505060405180910390fd5b6000801b600a60008873ffffffffffffffffffffffffffffffffffffffff1673ffffffffffffffffffffffffffffffffffffffff168152602001908152602001600020600201819055506000600a60008873ffffffffffffffffffffffffffffffffffffffff1673ffffffffffffffffffffffffffffffffffffffff16815260200190815260200160002060030160006101000a81548160ff0219169083151502179055506000600a60008873ffffffffffffffffffffffffffffffffffffffff1673ffffffffffffffffffffffffffffffffffffffff1681526020019081526020016000206001015490506000600a60008973ffffffffffffffffffffffffffffffffffffffff1673ffffffffffffffffffffffffffffffffffffffff1681526020019081526020016000206001018190555060006001600b6000898152602001908152602001600020600401541415612b8957600190505b6000600b6000898152602001908152602001600020600401541415612bad57600090505b60006002831415612bdc57600115158215151415612bd057600b85029050612bd7565b6082850290505b612d8b565b6003831415612c0957600115158215151415612bfd57600d85029050612c04565b6041850290505b612d8a565b6004831415612c3657600115158215151415612c2a57600e85029050612c31565b602a850290505b612d89565b6005831415612c6357600115158215151415612c5757601085029050612c5e565b6020850290505b612d88565b6006831415612c9057600115158215151415612c8457601285029050612c8b565b601a850290505b612d87565b6007831415612ca457601585029050612d86565b6008831415612cd157600115158215151415612cc557601a85029050612ccc565b6012850290505b612d85565b6009831415612cfe57600115158215151415612cf257602085029050612cf9565b6010850290505b612d84565b600a831415612d2b57600115158215151415612d1f57602a85029050612d26565b600e850290505b612d83565b600b831415612d5857600115158215151415612d4c57604185029050612d53565b600d850290505b612d82565b600c831415612d8157600115158215151415612d7957608285029050612d80565b600b850290505b5b5b5b5b5b5b5b5b5b5b5b6000879050600a8281612d9a57fe5b04915060011515831515148015612db057508381115b80612dca575060001515831515148015612dc957508381105b5b15612ee25781600960008c73ffffffffffffffffffffffffffffffffffffffff1673ffffffffffffffffffffffffffffffffffffffff16815260200190815260200160002060010160008282540192505081905550848201600660008282540392505081905550888a73ffffffffffffffffffffffffffffffffffffffff167f3f49e8a1c02bb092374df7b4bf984f5f1e89085d4745000dd2d8507511083b068684878b88604051808681526020018581526020018415151515815260200183815260200182815260200180602001828103825260068152602001807f506c617965720000000000000000000000000000000000000000000000000000815250602001965050505050505060405180910390a3612fdf565b84600960008c73ffffffffffffffffffffffffffffffffffffffff1673ffffffffffffffffffffffffffffffffffffffff16815260200190815260200160002060010160008282540392505081905550888a73ffffffffffffffffffffffffffffffffffffffff167f3f49e8a1c02bb092374df7b4bf984f5f1e89085d4745000dd2d8507511083b068684878b8c604051808681526020018581526020018415151515815260200183815260200182815260200180602001828103825260058152602001807f486f757365000000000000000000000000000000000000000000000000000000815250602001965050505050505060405180910390a35b600d8602600760008282540392505081905550505050505b81600960008873ffffffffffffffffffffffffffffffffffffffff1673ffffffffffffffffffffffffffffffffffffffff16815260200190815260200160002060020160008282540392505081905550505050505050565b6000809054906101000a900473ffffffffffffffffffffffffffffffffffffffff1673ffffffffffffffffffffffffffffffffffffffff163373ffffffffffffffffffffffffffffffffffffffff16146130a857600080fd5b6000600654905060006006819055503373ffffffffffffffffffffffffffffffffffffffff166108fc829081150290604051600060405180830381858888f193505050501580156130fd573d6000803e3d6000fd5b506000809054906101000a900473ffffffffffffffffffffffffffffffffffffffff1673ffffffffffffffffffffffffffffffffffffffff167f9ca86e26e8d02952f920895df7583aa717e8ebc63cd0708c0879da89b9a07445826040518082815260200191505060405180910390a250565b6000809054906101000a900473ffffffffffffffffffffffffffffffffffffffff1673ffffffffffffffffffffffffffffffffffffffff163373ffffffffffffffffffffffffffffffffffffffff16146131c957600080fd5b66470de4df82000080341015613247576040517f08c379a00000000000000000000000000000000000000000000000000000000081526004018080602001828103825260118152602001807f32302066696e6e6579206d696e696d756d00000000000000000000000000000081525060200191505060405180910390fd5b346006600082825401925050819055503373ffffffffffffffffffffffffffffffffffffffff167f350a7000a835544193f030ad53ca1f667390855a6373fd43a2a998c98bfbf85634600654604051808381526020018281526020019250505060405180910390a250565b600b6020528060005260406000206000915090508060000154908060010160009054906101000a900473ffffffffffffffffffffffffffffffffffffffff16908060020154908060030154908060040154908060050154908060060154905087565b60096020528060005260406000206000915090508060000160009054906101000a900473ffffffffffffffffffffffffffffffffffffffff16908060010154908060020154908060030154905084565b66038d7ea4c68000803410156133e2576040517f08c379a00000000000000000000000000000000000000000000000000000000081526004018080602001828103825260108152602001807f312066696e6e6579206d696e696d756d0000000000000000000000000000000081525060200191505060405180910390fd5b6133ea615a59565b33816000019073ffffffffffffffffffffffffffffffffffffffff16908173ffffffffffffffffffffffffffffffffffffffff1681525050600960003373ffffffffffffffffffffffffffffffffffffffff1673ffffffffffffffffffffffffffffffffffffffff16815260200190815260200160002060010154816020018181525050600960003373ffffffffffffffffffffffffffffffffffffffff1673ffffffffffffffffffffffffffffffffffffffff16815260200190815260200160002060020154816040018181525050600960003373ffffffffffffffffffffffffffffffffffffffff1673ffffffffffffffffffffffffffffffffffffffff1681526020019081526020016000206003015481606001818152505080600960003373ffffffffffffffffffffffffffffffffffffffff1673ffffffffffffffffffffffffffffffffffffffff16815260200190815260200160002060008201518160000160006101000a81548173ffffffffffffffffffffffffffffffffffffffff021916908373ffffffffffffffffffffffffffffffffffffffff16021790555060208201518160010155604082015181600201556060820151816003015590505034600960003373ffffffffffffffffffffffffffffffffffffffff1673ffffffffffffffffffffffffffffffffffffffff168152602001908152602001600020600101600082825401925050819055503373ffffffffffffffffffffffffffffffffffffffff167f155efc6f27878074d7b21fde35c660b361cb83869a21c2409ed1a562f17e172934600960003373ffffffffffffffffffffffffffffffffffffffff1673ffffffffffffffffffffffffffffffffffffffff16815260200190815260200160002060010154604051808381526020018281526020019250505060405180910390a25050565b6000809054906101000a900473ffffffffffffffffffffffffffffffffffffffff1673ffffffffffffffffffffffffffffffffffffffff163373ffffffffffffffffffffffffffffffffffffffff16146136f357600080fd5b3373ffffffffffffffffffffffffffffffffffffffff16ff5b6000808311801561371e575060208311155b61372757600080fd5b600a84029350606060016040519080825280601f01601f1916602001820160405280156137635781602001600182028038833980820191505090505b5090508360f81b8160008151811061377757fe5b60200101907effffffffffffffffffffffffffffffffffffffffffffffffffffffffffffff1916908160001a905350606060206040519080825280601f01601f1916602001820160405280156137dc5781602001600182028038833980820191505090505b509050606060206040519080825280601f01601f1916602001820160405280156138155781602001600182028038833980820191505090505b509050600061382261401d565b905060208352424118600143034018602084015260208252806020830152606060206040519080825280601f01601f1916602001820160405280156138765781602001600182028038833980820191505090505b509050886020820152606060086040519080825280601f01601f1916602001820160405280156138b55781602001600182028038833980820191505090505b5090506138c8826018600884600061433d565b506138d1615a9a565b604051806080016040528087815260200188815260200186815260200184815250905060006139366040518060400160405280600681526020017f72616e646f6d0000000000000000000000000000000000000000000000000000815250838c61439c565b9050606060086040519080825280601f01601f19166020018201604052801561396e5781602001600182028038833980820191505090505b50905060208401517f0100000000000000000000000000000000000000000000000000000000000000810460278301537e01000000000000000000000000000000000000000000000000000000000000810460268301537d010000000000000000000000000000000000000000000000000000000000810460258301537c0100000000000000000000000000000000000000000000000000000000810460248301537b01000000000000000000000000000000000000000000000000000000810460238301537a010000000000000000000000000000000000000000000000000000810460228301537901000000000000000000000000000000000000000000000000008104602183015378010000000000000000000000000000000000000000000000008104602083015350613c94828285600160048110613aad57fe5b6020020151600287600060048110613ac157fe5b60200201516040518082805190602001908083835b60208310613af95780518252602082019150602081019050602083039250613ad6565b6001836020036101000a038019825116818451168082178552505050505050905001915050602060405180830381855afa158015613b3b573d6000803e3d6000fd5b5050506040513d6020811015613b5057600080fd5b810190808051906020019092919050505087600260048110613b6e57fe5b60200201516040516020018085805190602001908083835b60208310613ba95780518252602082019150602081019050602083039250613b86565b6001836020036101000a03801982511681845116808217855250505050505090500184805190602001908083835b60208310613bfa5780518252602082019150602081019050602083039250613bd7565b6001836020036101000a03801982511681845116808217855250505050505090500183815260200182805190602001908083835b60208310613c515780518252602082019150602081019050602083039250613c2e565b6001836020036101000a0380198251168184511680821785525050505050509050019450505050506040516020818303038152906040528051906020012061470b565b8199505050505050505050509392505050565b60008073ffffffffffffffffffffffffffffffffffffffff16600260009054906101000a900473ffffffffffffffffffffffffffffffffffffffff1673ffffffffffffffffffffffffffffffffffffffff161480613d2f57506000613d2d600260009054906101000a900473ffffffffffffffffffffffffffffffffffffffff16614727565b145b15613d4057613d3e6000614732565b505b600260009054906101000a900473ffffffffffffffffffffffffffffffffffffffff1673ffffffffffffffffffffffffffffffffffffffff166338cc48316040518163ffffffff1660e01b8152600401602060405180830381600087803b158015613daa57600080fd5b505af1158015613dbe573d6000803e3d6000fd5b505050506040513d6020811015613dd457600080fd5b810190808051906020019092919050505073ffffffffffffffffffffffffffffffffffffffff16600160009054906101000a900473ffffffffffffffffffffffffffffffffffffffff1673ffffffffffffffffffffffffffffffffffffffff1614613f1f57600260009054906101000a900473ffffffffffffffffffffffffffffffffffffffff1673ffffffffffffffffffffffffffffffffffffffff166338cc48316040518163ffffffff1660e01b8152600401602060405180830381600087803b158015613ea357600080fd5b505af1158015613eb7573d6000803e3d6000fd5b505050506040513d6020811015613ecd57600080fd5b8101908080519060200190929190505050600160006101000a81548173ffffffffffffffffffffffffffffffffffffffff021916908373ffffffffffffffffffffffffffffffffffffffff1602179055505b600160009054906101000a900473ffffffffffffffffffffffffffffffffffffffff1673ffffffffffffffffffffffffffffffffffffffff1663c281d19e6040518163ffffffff1660e01b815260040160206040518083038186803b158015613f8757600080fd5b505afa158015613f9b573d6000803e3d6000fd5b505050506040513d6020811015613fb157600080fd5b8101908080519060200190929190505050905090565b600061400b6040518060400160405280600581526020017f707269636500000000000000000000000000000000000000000000000000000081525062030d40614743565b905090565b60008160001b9050919050565b60008073ffffffffffffffffffffffffffffffffffffffff16600260009054906101000a900473ffffffffffffffffffffffffffffffffffffffff1673ffffffffffffffffffffffffffffffffffffffff1614806140a5575060006140a3600260009054906101000a900473ffffffffffffffffffffffffffffffffffffffff16614727565b145b156140b6576140b46000614732565b505b600260009054906101000a900473ffffffffffffffffffffffffffffffffffffffff1673ffffffffffffffffffffffffffffffffffffffff166338cc48316040518163ffffffff1660e01b8152600401602060405180830381600087803b15801561412057600080fd5b505af1158015614134573d6000803e3d6000fd5b505050506040513d602081101561414a57600080fd5b810190808051906020019092919050505073ffffffffffffffffffffffffffffffffffffffff16600160009054906101000a900473ffffffffffffffffffffffffffffffffffffffff1673ffffffffffffffffffffffffffffffffffffffff161461429557600260009054906101000a900473ffffffffffffffffffffffffffffffffffffffff1673ffffffffffffffffffffffffffffffffffffffff166338cc48316040518163ffffffff1660e01b8152600401602060405180830381600087803b15801561421957600080fd5b505af115801561422d573d6000803e3d6000fd5b505050506040513d602081101561424357600080fd5b8101908080519060200190929190505050600160006101000a81548173ffffffffffffffffffffffffffffffffffffffff021916908373ffffffffffffffffffffffffffffffffffffffff1602179055505b600160009054906101000a900473ffffffffffffffffffffffffffffffffffffffff1673ffffffffffffffffffffffffffffffffffffffff1663abaa5f3e6040518163ffffffff1660e01b815260040160206040518083038186803b1580156142fd57600080fd5b505afa158015614311573d6000803e3d6000fd5b505050506040513d602081101561432757600080fd5b8101908080519060200190929190505050905090565b606060008285019050808451101561435457600080fd5b600086602001905060008460200190505b86886020010182101561438d5781890151808288015250602082019150602081019050614365565b85935050505095945050505050565b60008073ffffffffffffffffffffffffffffffffffffffff16600260009054906101000a900473ffffffffffffffffffffffffffffffffffffffff1673ffffffffffffffffffffffffffffffffffffffff16148061442457506000614422600260009054906101000a900473ffffffffffffffffffffffffffffffffffffffff16614727565b145b15614435576144336000614732565b505b600260009054906101000a900473ffffffffffffffffffffffffffffffffffffffff1673ffffffffffffffffffffffffffffffffffffffff166338cc48316040518163ffffffff1660e01b8152600401602060405180830381600087803b15801561449f57600080fd5b505af11580156144b3573d6000803e3d6000fd5b505050506040513d60208110156144c957600080fd5b810190808051906020019092919050505073ffffffffffffffffffffffffffffffffffffffff16600160009054906101000a900473ffffffffffffffffffffffffffffffffffffffff1673ffffffffffffffffffffffffffffffffffffffff161461461457600260009054906101000a900473ffffffffffffffffffffffffffffffffffffffff1673ffffffffffffffffffffffffffffffffffffffff166338cc48316040518163ffffffff1660e01b8152600401602060405180830381600087803b15801561459857600080fd5b505af11580156145ac573d6000803e3d6000fd5b505050506040513d60208110156145c257600080fd5b8101908080519060200190929190505050600160006101000a81548173ffffffffffffffffffffffffffffffffffffffff021916908373ffffffffffffffffffffffffffffffffffffffff1602179055505b6060600460405190808252806020026020018201604052801561464b57816020015b60608152602001906001900390816146365790505b5090508360006004811061465b57fe5b60200201518160008151811061466d57fe5b60200260200101819052508360016004811061468557fe5b60200201518160018151811061469757fe5b6020026020010181905250836002600481106146af57fe5b6020020151816002815181106146c157fe5b6020026020010181905250836003600481106146d957fe5b6020020151816003815181106146eb57fe5b6020026020010181905250614701858285614ae0565b9150509392505050565b8060046000848152602001908152602001600020819055505050565b6000813b9050919050565b600061473c615046565b9050919050565b60008073ffffffffffffffffffffffffffffffffffffffff16600260009054906101000a900473ffffffffffffffffffffffffffffffffffffffff1673ffffffffffffffffffffffffffffffffffffffff1614806147cb575060006147c9600260009054906101000a900473ffffffffffffffffffffffffffffffffffffffff16614727565b145b156147dc576147da6000614732565b505b600260009054906101000a900473ffffffffffffffffffffffffffffffffffffffff1673ffffffffffffffffffffffffffffffffffffffff166338cc48316040518163ffffffff1660e01b8152600401602060405180830381600087803b15801561484657600080fd5b505af115801561485a573d6000803e3d6000fd5b505050506040513d602081101561487057600080fd5b810190808051906020019092919050505073ffffffffffffffffffffffffffffffffffffffff16600160009054906101000a900473ffffffffffffffffffffffffffffffffffffffff1673ffffffffffffffffffffffffffffffffffffffff16146149bb57600260009054906101000a900473ffffffffffffffffffffffffffffffffffffffff1673ffffffffffffffffffffffffffffffffffffffff166338cc48316040518163ffffffff1660e01b8152600401602060405180830381600087803b15801561493f57600080fd5b505af1158015614953573d6000803e3d6000fd5b505050506040513d602081101561496957600080fd5b8101908080519060200190929190505050600160006101000a81548173ffffffffffffffffffffffffffffffffffffffff021916908373ffffffffffffffffffffffffffffffffffffffff1602179055505b600160009054906101000a900473ffffffffffffffffffffffffffffffffffffffff1673ffffffffffffffffffffffffffffffffffffffff16632ef3accc84846040518363ffffffff1660e01b81526004018080602001838152602001828103825284818151815260200191508051906020019080838360005b83811015614a50578082015181840152602081019050614a35565b50505050905090810190601f168015614a7d5780820380516001836020036101000a031916815260200191505b509350505050602060405180830381600087803b158015614a9d57600080fd5b505af1158015614ab1573d6000803e3d6000fd5b505050506040513d6020811015614ac757600080fd5b8101908080519060200190929190505050905092915050565b60008073ffffffffffffffffffffffffffffffffffffffff16600260009054906101000a900473ffffffffffffffffffffffffffffffffffffffff1673ffffffffffffffffffffffffffffffffffffffff161480614b6857506000614b66600260009054906101000a900473ffffffffffffffffffffffffffffffffffffffff16614727565b145b15614b7957614b776000614732565b505b600260009054906101000a900473ffffffffffffffffffffffffffffffffffffffff1673ffffffffffffffffffffffffffffffffffffffff166338cc48316040518163ffffffff1660e01b8152600401602060405180830381600087803b158015614be357600080fd5b505af1158015614bf7573d6000803e3d6000fd5b505050506040513d6020811015614c0d57600080fd5b810190808051906020019092919050505073ffffffffffffffffffffffffffffffffffffffff16600160009054906101000a900473ffffffffffffffffffffffffffffffffffffffff1673ffffffffffffffffffffffffffffffffffffffff1614614d5857600260009054906101000a900473ffffffffffffffffffffffffffffffffffffffff1673ffffffffffffffffffffffffffffffffffffffff166338cc48316040518163ffffffff1660e01b8152600401602060405180830381600087803b158015614cdc57600080fd5b505af1158015614cf0573d6000803e3d6000fd5b505050506040513d6020811015614d0657600080fd5b8101908080519060200190929190505050600160006101000a81548173ffffffffffffffffffffffffffffffffffffffff021916908373ffffffffffffffffffffffffffffffffffffffff1602179055505b6000600160009054906101000a900473ffffffffffffffffffffffffffffffffffffffff1673ffffffffffffffffffffffffffffffffffffffff16632ef3accc86856040518363ffffffff1660e01b81526004018080602001838152602001828103825284818151815260200191508051906020019080838360005b83811015614def578082015181840152602081019050614dd4565b50505050905090810190601f168015614e1c5780820380516001836020036101000a031916815260200191505b509350505050602060405180830381600087803b158015614e3c57600080fd5b505af1158015614e50573d6000803e3d6000fd5b505050506040513d6020811015614e6657600080fd5b81019080805190602001909291905050509050823a02670de0b6b3a764000001811115614e99576000801b91505061503f565b6060614ea48561559d565b9050600160009054906101000a900473ffffffffffffffffffffffffffffffffffffffff1673ffffffffffffffffffffffffffffffffffffffff1663c55c1cb68360008985896040518663ffffffff1660e01b8152600401808581526020018060200180602001848152602001838103835286818151815260200191508051906020019080838360005b83811015614f49578082015181840152602081019050614f2e565b50505050905090810190601f168015614f765780820380516001836020036101000a031916815260200191505b50838103825285818151815260200191508051906020019080838360005b83811015614faf578082015181840152602081019050614f94565b50505050905090810190601f168015614fdc5780820380516001836020036101000a031916815260200191505b5096505050505050506020604051808303818588803b158015614ffe57600080fd5b505af1158015615012573d6000803e3d6000fd5b50505050506040513d602081101561502957600080fd5b8101908080519060200190929190505050925050505b9392505050565b600080615066731d3b2638a7cc9f2cb3d298a3da7a90b67e5506ed614727565b111561510857731d3b2638a7cc9f2cb3d298a3da7a90b67e5506ed600260006101000a81548173ffffffffffffffffffffffffffffffffffffffff021916908373ffffffffffffffffffffffffffffffffffffffff1602179055506150ff6040518060400160405280600b81526020017f6574685f6d61696e6e657400000000000000000000000000000000000000000081525061561d565b6001905061559a565b600061512773c03a2615d5efaf5f49f60b7bb6583eaec212fdf1614727565b11156151c95773c03a2615d5efaf5f49f60b7bb6583eaec212fdf1600260006101000a81548173ffffffffffffffffffffffffffffffffffffffff021916908373ffffffffffffffffffffffffffffffffffffffff1602179055506151c06040518060400160405280600c81526020017f6574685f726f707374656e33000000000000000000000000000000000000000081525061561d565b6001905061559a565b60006151e873b7a07bcf2ba2f2703b24c0691b5278999c59ac7e614727565b111561528a5773b7a07bcf2ba2f2703b24c0691b5278999c59ac7e600260006101000a81548173ffffffffffffffffffffffffffffffffffffffff021916908373ffffffffffffffffffffffffffffffffffffffff1602179055506152816040518060400160405280600981526020017f6574685f6b6f76616e000000000000000000000000000000000000000000000081525061561d565b6001905061559a565b60006152a973146500cfd35b22e4a392fe0adc06de1a1368ed48614727565b111561534b5773146500cfd35b22e4a392fe0adc06de1a1368ed48600260006101000a81548173ffffffffffffffffffffffffffffffffffffffff021916908373ffffffffffffffffffffffffffffffffffffffff1602179055506153426040518060400160405280600b81526020017f6574685f72696e6b65627900000000000000000000000000000000000000000081525061561d565b6001905061559a565b600061536a73a2998efd205fb9d4b4963afb70778d6354ad3a41614727565b111561540c5773a2998efd205fb9d4b4963afb70778d6354ad3a41600260006101000a81548173ffffffffffffffffffffffffffffffffffffffff021916908373ffffffffffffffffffffffffffffffffffffffff1602179055506154036040518060400160405280600a81526020017f6574685f676f65726c690000000000000000000000000000000000000000000081525061561d565b6001905061559a565b600061542b736f485c8bf6fc43ea212e93bbf8ce046c7f1cb475614727565b111561548f57736f485c8bf6fc43ea212e93bbf8ce046c7f1cb475600260006101000a81548173ffffffffffffffffffffffffffffffffffffffff021916908373ffffffffffffffffffffffffffffffffffffffff1602179055506001905061559a565b60006154ae7320e12a1f859b3feae5fb2a0a32c18f5a65555bbf614727565b1115615512577320e12a1f859b3feae5fb2a0a32c18f5a65555bbf600260006101000a81548173ffffffffffffffffffffffffffffffffffffffff021916908373ffffffffffffffffffffffffffffffffffffffff1602179055506001905061559a565b60006155317351efaf4c8b3c9afbd5ab9f4bbc82784ab6ef8faa614727565b1115615595577351efaf4c8b3c9afbd5ab9f4bbc82784ab6ef8faa600260006101000a81548173ffffffffffffffffffffffffffffffffffffffff021916908373ffffffffffffffffffffffffffffffffffffffff1602179055506001905061559a565b600090505b90565b60606155a7615637565b6155af615ac1565b6155bb81610400615643565b6155c48161568d565b60008090505b8351811015615606576155f98482815181106155e257fe5b60200260200101518361569b90919063ffffffff16565b80806001019150506155ca565b50615610816156c0565b8060000151915050919050565b8060039080519060200190615633929190615adb565b5050565b60405180590338823950565b600081905060006020828161565457fe5b061461566d576020818161566457fe5b06602003810190505b808360200181815250506040518084526000815281810160405250505050565b6156988160046156ce565b50565b6156a882600283516156ef565b6156bb818361582f90919063ffffffff16565b505050565b6156cb8160076156ce565b50565b6156eb601f60058360ff16901b17836158da90919063ffffffff16565b5050565b6017811161571b576157168160058460ff16901b60ff1617846158da90919063ffffffff16565b61582a565b60ff811161575c57615740601860058460ff16901b17846158da90919063ffffffff16565b6157568160018561591a9092919063ffffffff16565b50615829565b61ffff811161579e57615782601960058460ff16901b17846158da90919063ffffffff16565b6157988160028561591a9092919063ffffffff16565b50615828565b63ffffffff81116157e2576157c6601a60058460ff16901b17846158da90919063ffffffff16565b6157dc8160048561591a9092919063ffffffff16565b50615827565b67ffffffffffffffff81116158265761580e601b60058460ff16901b17846158da90919063ffffffff16565b6158248160088561591a9092919063ffffffff16565b505b5b5b5b5b505050565b615837615ac1565b826020015183600001515183510111156158675761586683600261586086602001518651615981565b0261599d565b5b60008060008451905085518051602081830101945086518101825260208701935050505b602081106158ae578151835260208301925060208201915060208103905061588b565b60006001826020036101000a039050801983511681855116818117865250508694505050505092915050565b81602001516001836000015151011115615900576158ff82600284602001510261599d565b5b815180516020818301018381536001820183525050505050565b615922615ac1565b8360200151846000015151830111156159505761594f846002615949876020015186615981565b0261599d565b5b60006001836101000a0390508451805184818301018684198251161781528582018352505050849150509392505050565b60008183111561599357829050615997565b8190505b92915050565b6060826000015190506159b08383615643565b6159ba838261582f565b50505050565b6040518060e0016040528060008019168152602001600073ffffffffffffffffffffffffffffffffffffffff16815260200160008152602001600081526020016000815260200160008152602001600081525090565b6040518060800160405280600073ffffffffffffffffffffffffffffffffffffffff16815260200160008152602001600080191681526020016000151581525090565b6040518060800160405280600073ffffffffffffffffffffffffffffffffffffffff1681526020016000815260200160008152602001600080191681525090565b60405180608001604052806004905b6060815260200190600190039081615aa95790505090565b604051806040016040528060608152602001600081525090565b828054600181600116156101000203166002900490600052602060002090601f016020900481019282601f10615b1c57805160ff1916838001178555615b4a565b82800160010185558215615b4a579182015b82811115615b49578251825591602001919060010190615b2e565b5b509050615b579190615b5b565b5090565b615b7d91905b80821115615b79576000816000905550600101615b61565b5090565b9056fe4d7573742073656c656374204865616473206f72205461696c7320746f20626574a265627a7a72315820ad02220e2296783056bbc2b597ab8d354b2b5572164546b364581c98079efd2064736f6c634300050c0032",
  "source": "import \"./Ownable.sol\";\r\nimport \"./Destroyable.sol\";\r\nimport \"./provableAPI.sol\";\r\nimport \"./Accountable.sol\";\r\nimport \"./Winnable.sol\";\r\nimport \"./Randomised.sol\";\r\nimport \"./FlipOut.sol\";\r\nimport \"./RollOut.sol\";\r\nimport \"./DrawOut.sol\";\r\n\r\npragma solidity 0.5.12;\r\n\r\ncontract Callable is Ownable, Destroyable, usingProvable, Accountable, Winnable, Randomised, FlipOut, RollOut, DrawOut  {\r\n\r\n//Callable contract inherits from all 3 games so that this single contract instance is created that will allow all functionality and interoperability with DApp\r\n\r\n    function getContractInfo() external view returns(address contractAddress, uint256 balance, uint256 pendingAmount){\r\n        contractAddress = owner;\r\n        balance = contractBalance;\r\n        pendingAmount = pendingPayouts;\r\n    }\r\n\r\n\r\n    function getUserInfo() external view returns(address user, uint256 balance, uint256 pendingBets) {\r\n        user = msg.sender;\r\n        balance = punters[msg.sender].balance;\r\n        pendingBets = punters[msg.sender].pendingBets;\r\n    }\r\n\r\n}\r\n",
  "sourcePath": "D:/Justin/Documents/Justin/Ethereum/blockPunt/contracts/Callable.sol",
  "compiler": {
    "name": "solc",
    "version": "0.5.12+commit.7709ece9.Emscripten.clang"
  },
  "schemaVersion": "3.0.16",
  "updatedAt": "2020-10-24T08:22:08.993Z",
  "devdoc": {
    "methods": {}
  },
  "userdoc": {
    "methods": {}
  }
}