{
  "contractName": "DrawOut",
  "abi": [
    {
      "anonymous": false,
      "inputs": [
        {
          "indexed": true,
          "internalType": "address",
          "name": "player",
          "type": "address"
        },
        {
          "indexed": true,
          "internalType": "bytes32",
          "name": "queryId",
          "type": "bytes32"
        },
        {
          "indexed": false,
          "internalType": "uint256",
          "name": "amountBet",
          "type": "uint256"
        },
        {
          "indexed": false,
          "internalType": "uint256",
          "name": "balanceBeforeBet",
          "type": "uint256"
        }
      ],
      "name": "BetPlaced",
      "type": "event"
    },
    {
      "anonymous": false,
      "inputs": [
        {
          "indexed": true,
          "internalType": "address",
          "name": "toAccount",
          "type": "address"
        },
        {
          "indexed": false,
          "internalType": "uint256",
          "name": "amountWithdrawn",
          "type": "uint256"
        }
      ],
      "name": "ContractBalanceWithdrawn",
      "type": "event"
    },
    {
      "anonymous": false,
      "inputs": [
        {
          "indexed": true,
          "internalType": "address",
          "name": "fromAccount",
          "type": "address"
        },
        {
          "indexed": false,
          "internalType": "uint256",
          "name": "amountDeposited",
          "type": "uint256"
        },
        {
          "indexed": false,
          "internalType": "uint256",
          "name": "newBalance",
          "type": "uint256"
        }
      ],
      "name": "ContractDepositMade",
      "type": "event"
    },
    {
      "anonymous": false,
      "inputs": [
        {
          "indexed": true,
          "internalType": "address",
          "name": "player",
          "type": "address"
        },
        {
          "indexed": true,
          "internalType": "bytes32",
          "name": "queryId",
          "type": "bytes32"
        },
        {
          "indexed": false,
          "internalType": "uint256",
          "name": "houseCard",
          "type": "uint256"
        },
        {
          "indexed": false,
          "internalType": "uint256",
          "name": "userCard",
          "type": "uint256"
        },
        {
          "indexed": false,
          "internalType": "bool",
          "name": "choseHigher",
          "type": "bool"
        },
        {
          "indexed": false,
          "internalType": "uint256",
          "name": "betAmount",
          "type": "uint256"
        },
        {
          "indexed": false,
          "internalType": "uint256",
          "name": "payOutAmount",
          "type": "uint256"
        },
        {
          "indexed": false,
          "internalType": "string",
          "name": "winner",
          "type": "string"
        }
      ],
      "name": "DrawOutResults",
      "type": "event"
    },
    {
      "anonymous": false,
      "inputs": [
        {
          "indexed": true,
          "internalType": "address",
          "name": "player",
          "type": "address"
        },
        {
          "indexed": true,
          "internalType": "bytes32",
          "name": "queryId",
          "type": "bytes32"
        },
        {
          "indexed": false,
          "internalType": "uint256",
          "name": "latestNumber",
          "type": "uint256"
        },
        {
          "indexed": false,
          "internalType": "uint256",
          "name": "Heads1orTails0",
          "type": "uint256"
        }
      ],
      "name": "FlipNumberReceived",
      "type": "event"
    },
    {
      "anonymous": false,
      "inputs": [
        {
          "indexed": true,
          "internalType": "address",
          "name": "player",
          "type": "address"
        },
        {
          "indexed": true,
          "internalType": "bytes32",
          "name": "queryId",
          "type": "bytes32"
        },
        {
          "indexed": false,
          "internalType": "string",
          "name": "flipResult",
          "type": "string"
        },
        {
          "indexed": false,
          "internalType": "string",
          "name": "choice",
          "type": "string"
        },
        {
          "indexed": false,
          "internalType": "string",
          "name": "winner",
          "type": "string"
        },
        {
          "indexed": false,
          "internalType": "uint256",
          "name": "betAmount",
          "type": "uint256"
        },
        {
          "indexed": false,
          "internalType": "uint256",
          "name": "payOutAmount",
          "type": "uint256"
        }
      ],
      "name": "FlipOutResults",
      "type": "event"
    },
    {
      "anonymous": false,
      "inputs": [
        {
          "indexed": true,
          "internalType": "address",
          "name": "player",
          "type": "address"
        },
        {
          "indexed": false,
          "internalType": "uint256",
          "name": "latestNumber",
          "type": "uint256"
        },
        {
          "indexed": false,
          "internalType": "uint256",
          "name": "houseCard",
          "type": "uint256"
        }
      ],
      "name": "HouseCard_Received",
      "type": "event"
    },
    {
      "anonymous": false,
      "inputs": [
        {
          "indexed": true,
          "internalType": "address",
          "name": "toAccount",
          "type": "address"
        },
        {
          "indexed": false,
          "internalType": "uint256",
          "name": "amountWithdrawn",
          "type": "uint256"
        }
      ],
      "name": "PlayerFundsWithdrawn",
      "type": "event"
    },
    {
      "anonymous": false,
      "inputs": [
        {
          "indexed": true,
          "internalType": "address",
          "name": "player",
          "type": "address"
        },
        {
          "indexed": true,
          "internalType": "bytes32",
          "name": "queryId",
          "type": "bytes32"
        },
        {
          "indexed": false,
          "internalType": "uint256",
          "name": "latestNumber",
          "type": "uint256"
        },
        {
          "indexed": false,
          "internalType": "uint256",
          "name": "diceNumber",
          "type": "uint256"
        }
      ],
      "name": "RollNumberReceived",
      "type": "event"
    },
    {
      "anonymous": false,
      "inputs": [
        {
          "indexed": true,
          "internalType": "address",
          "name": "player",
          "type": "address"
        },
        {
          "indexed": true,
          "internalType": "bytes32",
          "name": "queryId",
          "type": "bytes32"
        },
        {
          "indexed": false,
          "internalType": "uint256",
          "name": "rollResult",
          "type": "uint256"
        },
        {
          "indexed": false,
          "internalType": "uint256",
          "name": "choice",
          "type": "uint256"
        },
        {
          "indexed": false,
          "internalType": "string",
          "name": "winner",
          "type": "string"
        },
        {
          "indexed": false,
          "internalType": "uint256",
          "name": "betAmount",
          "type": "uint256"
        },
        {
          "indexed": false,
          "internalType": "uint256",
          "name": "payOutAmount",
          "type": "uint256"
        }
      ],
      "name": "RollOutResults",
      "type": "event"
    },
    {
      "anonymous": false,
      "inputs": [
        {
          "indexed": true,
          "internalType": "address",
          "name": "player",
          "type": "address"
        },
        {
          "indexed": true,
          "internalType": "bytes32",
          "name": "queryId",
          "type": "bytes32"
        },
        {
          "indexed": false,
          "internalType": "uint256",
          "name": "latestNumber",
          "type": "uint256"
        },
        {
          "indexed": false,
          "internalType": "uint256",
          "name": "userCard",
          "type": "uint256"
        }
      ],
      "name": "UserCard_Received",
      "type": "event"
    },
    {
      "anonymous": false,
      "inputs": [
        {
          "indexed": true,
          "internalType": "address",
          "name": "fromAccount",
          "type": "address"
        },
        {
          "indexed": false,
          "internalType": "uint256",
          "name": "amountDeposited",
          "type": "uint256"
        },
        {
          "indexed": false,
          "internalType": "uint256",
          "name": "newBalance",
          "type": "uint256"
        }
      ],
      "name": "UserDepositMade",
      "type": "event"
    },
    {
      "constant": false,
      "inputs": [],
      "name": "Destroy",
      "outputs": [],
      "payable": false,
      "stateMutability": "nonpayable",
      "type": "function"
    },
    {
      "constant": false,
      "inputs": [
        {
          "internalType": "bytes32",
          "name": "_queryId",
          "type": "bytes32"
        },
        {
          "internalType": "string",
          "name": "_result",
          "type": "string"
        }
      ],
      "name": "__callback",
      "outputs": [],
      "payable": false,
      "stateMutability": "nonpayable",
      "type": "function"
    },
    {
      "constant": false,
      "inputs": [
        {
          "internalType": "bytes32",
          "name": "_myid",
          "type": "bytes32"
        },
        {
          "internalType": "string",
          "name": "_result",
          "type": "string"
        },
        {
          "internalType": "bytes",
          "name": "_proof",
          "type": "bytes"
        }
      ],
      "name": "__callback",
      "outputs": [],
      "payable": false,
      "stateMutability": "nonpayable",
      "type": "function"
    },
    {
      "constant": false,
      "inputs": [],
      "name": "addBettingFunds",
      "outputs": [],
      "payable": true,
      "stateMutability": "payable",
      "type": "function"
    },
    {
      "constant": true,
      "inputs": [
        {
          "internalType": "bytes32",
          "name": "",
          "type": "bytes32"
        }
      ],
      "name": "bets",
      "outputs": [
        {
          "internalType": "bytes32",
          "name": "id",
          "type": "bytes32"
        },
        {
          "internalType": "address",
          "name": "player",
          "type": "address"
        },
        {
          "internalType": "uint256",
          "name": "gameRef",
          "type": "uint256"
        },
        {
          "internalType": "uint256",
          "name": "betAmount",
          "type": "uint256"
        },
        {
          "internalType": "uint256",
          "name": "choice",
          "type": "uint256"
        },
        {
          "internalType": "uint256",
          "name": "queryPrice",
          "type": "uint256"
        },
        {
          "internalType": "uint256",
          "name": "result",
          "type": "uint256"
        }
      ],
      "payable": false,
      "stateMutability": "view",
      "type": "function"
    },
    {
      "constant": true,
      "inputs": [
        {
          "internalType": "address",
          "name": "",
          "type": "address"
        }
      ],
      "name": "cards",
      "outputs": [
        {
          "internalType": "address",
          "name": "user",
          "type": "address"
        },
        {
          "internalType": "uint256",
          "name": "houseCard",
          "type": "uint256"
        },
        {
          "internalType": "bytes32",
          "name": "cardId",
          "type": "bytes32"
        },
        {
          "internalType": "bool",
          "name": "waiting",
          "type": "bool"
        }
      ],
      "payable": false,
      "stateMutability": "view",
      "type": "function"
    },
    {
      "constant": false,
      "inputs": [],
      "name": "depositToContract",
      "outputs": [],
      "payable": true,
      "stateMutability": "payable",
      "type": "function"
    },
    {
      "constant": true,
      "inputs": [],
      "name": "freeCallBack",
      "outputs": [
        {
          "internalType": "bool",
          "name": "",
          "type": "bool"
        }
      ],
      "payable": false,
      "stateMutability": "view",
      "type": "function"
    },
    {
      "constant": true,
      "inputs": [],
      "name": "owner",
      "outputs": [
        {
          "internalType": "address",
          "name": "",
          "type": "address"
        }
      ],
      "payable": false,
      "stateMutability": "view",
      "type": "function"
    },
    {
      "constant": false,
      "inputs": [
        {
          "internalType": "address",
          "name": "punter",
          "type": "address"
        },
        {
          "internalType": "bytes32",
          "name": "query_id",
          "type": "bytes32"
        },
        {
          "internalType": "uint256",
          "name": "result",
          "type": "uint256"
        },
        {
          "internalType": "uint256",
          "name": "game",
          "type": "uint256"
        }
      ],
      "name": "payOut",
      "outputs": [],
      "payable": false,
      "stateMutability": "nonpayable",
      "type": "function"
    },
    {
      "constant": true,
      "inputs": [
        {
          "internalType": "address",
          "name": "",
          "type": "address"
        }
      ],
      "name": "punters",
      "outputs": [
        {
          "internalType": "address",
          "name": "playerAddress",
          "type": "address"
        },
        {
          "internalType": "uint256",
          "name": "balance",
          "type": "uint256"
        },
        {
          "internalType": "uint256",
          "name": "pendingBets",
          "type": "uint256"
        },
        {
          "internalType": "bytes32",
          "name": "latestQueryId",
          "type": "bytes32"
        }
      ],
      "payable": false,
      "stateMutability": "view",
      "type": "function"
    },
    {
      "constant": false,
      "inputs": [
        {
          "internalType": "address",
          "name": "punter",
          "type": "address"
        },
        {
          "internalType": "uint256",
          "name": "gameRef",
          "type": "uint256"
        },
        {
          "internalType": "uint256",
          "name": "betAmount",
          "type": "uint256"
        },
        {
          "internalType": "uint256",
          "name": "choice",
          "type": "uint256"
        },
        {
          "internalType": "uint256",
          "name": "query_price",
          "type": "uint256"
        }
      ],
      "name": "requestNumber",
      "outputs": [],
      "payable": true,
      "stateMutability": "payable",
      "type": "function"
    },
    {
      "constant": false,
      "inputs": [],
      "name": "withdrawBettingFunds",
      "outputs": [],
      "payable": false,
      "stateMutability": "nonpayable",
      "type": "function"
    },
    {
      "constant": false,
      "inputs": [],
      "name": "withdrawContractBalance",
      "outputs": [],
      "payable": false,
      "stateMutability": "nonpayable",
      "type": "function"
    },
    {
      "constant": false,
      "inputs": [
        {
          "internalType": "uint256",
          "name": "amountToBet",
          "type": "uint256"
        }
      ],
      "name": "drawHouseCard",
      "outputs": [],
      "payable": false,
      "stateMutability": "nonpayable",
      "type": "function"
    },
    {
      "constant": false,
      "inputs": [
        {
          "internalType": "uint256",
          "name": "high",
          "type": "uint256"
        }
      ],
      "name": "drawUserCard",
      "outputs": [],
      "payable": false,
      "stateMutability": "nonpayable",
      "type": "function"
    }
  ],
  "bytecode": "0x60806040526001600860006101000a81548160ff021916908315150217905550336000806101000a81548173ffffffffffffffffffffffffffffffffffffffff021916908373ffffffffffffffffffffffffffffffffffffffff1602179055506153df8061006e6000396000f3fe6080604052600436106100f25760003560e01c80638da5cb5b1161008a578063c902c3ae11610059578063c902c3ae146105eb578063cafc419f14610690578063df11460e14610736578063f58fef8e14610740576100f2565b80638da5cb5b146105045780639745cd1f1461055b578063bfab3db9146105ca578063c8f781c2146105e1576100f2565b806327dc297e116100c657806327dc297e146101e457806338bbfa50146102b657806370908f211461041f578063853b8850146104c9576100f2565b8062dd440f146100f75780630eee99cf146101325780631a1cc0a5146101495780631b76946614610178575b600080fd5b34801561010357600080fd5b506101306004803603602081101561011a57600080fd5b8101908080359060200190929190505050610757565b005b34801561013e57600080fd5b50610147610926565b005b34801561015557600080fd5b5061015e610b05565b604051808215151515815260200191505060405180910390f35b6101e2600480360360a081101561018e57600080fd5b81019080803573ffffffffffffffffffffffffffffffffffffffff16906020019092919080359060200190929190803590602001909291908035906020019092919080359060200190929190505050610b18565b005b3480156101f057600080fd5b506102b46004803603604081101561020757600080fd5b81019080803590602001909291908035906020019064010000000081111561022e57600080fd5b82018360208201111561024057600080fd5b8035906020019184600183028401116401000000008311171561026257600080fd5b91908080601f016020809104026020016040519081016040528093929190818152602001838380828437600081840152601f19601f820116905080830192505050505050509192919290505050610d37565b005b3480156102c257600080fd5b5061041d600480360360608110156102d957600080fd5b81019080803590602001909291908035906020019064010000000081111561030057600080fd5b82018360208201111561031257600080fd5b8035906020019184600183028401116401000000008311171561033457600080fd5b91908080601f016020809104026020016040519081016040528093929190818152602001838380828437600081840152601f19601f8201169050808301925050505050505091929192908035906020019064010000000081111561039757600080fd5b8201836020820111156103a957600080fd5b803590602001918460018302840111640100000000831117156103cb57600080fd5b91908080601f016020809104026020016040519081016040528093929190818152602001838380828437600081840152601f19601f820116905080830192505050505050509192919290505050611145565b005b34801561042b57600080fd5b5061046e6004803603602081101561044257600080fd5b81019080803573ffffffffffffffffffffffffffffffffffffffff169060200190929190505050611168565b604051808573ffffffffffffffffffffffffffffffffffffffff1673ffffffffffffffffffffffffffffffffffffffff1681526020018481526020018381526020018215151515815260200194505050505060405180910390f35b3480156104d557600080fd5b50610502600480360360208110156104ec57600080fd5b81019080803590602001909291905050506111c5565b005b34801561051057600080fd5b50610519611888565b604051808273ffffffffffffffffffffffffffffffffffffffff1673ffffffffffffffffffffffffffffffffffffffff16815260200191505060405180910390f35b34801561056757600080fd5b506105c86004803603608081101561057e57600080fd5b81019080803573ffffffffffffffffffffffffffffffffffffffff1690602001909291908035906020019092919080359060200190929190803590602001909291905050506118ad565b005b3480156105d657600080fd5b506105df612879565b005b6105e961299a565b005b3480156105f757600080fd5b506106246004803603602081101561060e57600080fd5b8101908080359060200190929190505050612adc565b604051808881526020018773ffffffffffffffffffffffffffffffffffffffff1673ffffffffffffffffffffffffffffffffffffffff16815260200186815260200185815260200184815260200183815260200182815260200197505050505050505060405180910390f35b34801561069c57600080fd5b506106df600480360360208110156106b357600080fd5b81019080803573ffffffffffffffffffffffffffffffffffffffff169060200190929190505050612b3e565b604051808573ffffffffffffffffffffffffffffffffffffffff1673ffffffffffffffffffffffffffffffffffffffff16815260200184815260200183815260200182815260200194505050505060405180910390f35b61073e612b8e565b005b34801561074c57600080fd5b50610755612ec4565b005b60008114806107665750600181145b6107d8576040517f08c379a00000000000000000000000000000000000000000000000000000000081526004018080602001828103825260178152602001807f4d7573742063686f6f73652068696768206f72206c6f7700000000000000000081525060200191505060405180910390fd5b60011515600a60003373ffffffffffffffffffffffffffffffffffffffff1673ffffffffffffffffffffffffffffffffffffffff16815260200190815260200160002060030160009054906101000a900460ff161515146108a1576040517f08c379a000000000000000000000000000000000000000000000000000000000815260040180806020018281038252600f8152602001807f4d7573742062652077616974696e67000000000000000000000000000000000081525060200191505060405180910390fd5b6000600a60003373ffffffffffffffffffffffffffffffffffffffff1673ffffffffffffffffffffffffffffffffffffffff168152602001908152602001600020600201549050610922336003600b60008581526020019081526020016000206003015485600b600087815260200190815260200160002060050154610b18565b5050565b6000600960003373ffffffffffffffffffffffffffffffffffffffff1673ffffffffffffffffffffffffffffffffffffffff16815260200190815260200160002060010154116109de576040517f08c379a00000000000000000000000000000000000000000000000000000000081526004018080602001828103825260118152602001807f43616e6e6f74207769746864726177203000000000000000000000000000000081525060200191505060405180910390fd5b6000600960003373ffffffffffffffffffffffffffffffffffffffff1673ffffffffffffffffffffffffffffffffffffffff1681526020019081526020016000206001015490506000600960003373ffffffffffffffffffffffffffffffffffffffff1673ffffffffffffffffffffffffffffffffffffffff168152602001908152602001600020600101819055503373ffffffffffffffffffffffffffffffffffffffff166108fc829081150290604051600060405180830381858888f19350505050158015610ab3573d6000803e3d6000fd5b503373ffffffffffffffffffffffffffffffffffffffff167fdc13ef7ce79641e7f89a0adb1f73831b0832805639eefe811c8173e09751306d826040518082815260200191505060405180910390a250565b600860009054906101000a900460ff1681565b6000801515600860009054906101000a900460ff1615151415610b3d57819050610b5d565b600090506000600860006101000a81548160ff0219169083151502179055505b60008090506000610b7382600162030d40612f36565b9050610b7d6151ea565b8181600001818152505088816020019073ffffffffffffffffffffffffffffffffffffffff16908173ffffffffffffffffffffffffffffffffffffffff1681525050878160400181815250508681606001818152505085816080018181525050838160a00181815250508060c001515080600b60008481526020019081526020016000206000820151816000015560208201518160010160006101000a81548173ffffffffffffffffffffffffffffffffffffffff021916908373ffffffffffffffffffffffffffffffffffffffff16021790555060408201518160020155606082015181600301556080820151816004015560a0820151816005015560c0820151816006015590505080600001518973ffffffffffffffffffffffffffffffffffffffff167f680397c45077ee300a8ffc23b8df8f67de5ada41abab7430a35945e03c283cb3836060015160096000866020015173ffffffffffffffffffffffffffffffffffffffff1673ffffffffffffffffffffffffffffffffffffffff16815260200190815260200160002060010154604051808381526020018281526020019250505060405180910390a3505050505050505050565b610d3f6134d1565b73ffffffffffffffffffffffffffffffffffffffff163373ffffffffffffffffffffffffffffffffffffffff1614610d7657600080fd5b6000600b600084815260200190815260200160002060010160009054906101000a900473ffffffffffffffffffffffffffffffffffffffff16905082600960008373ffffffffffffffffffffffffffffffffffffffff1673ffffffffffffffffffffffffffffffffffffffff168152602001908152602001600020600301819055506000826040516020018082805190602001908083835b60208310610e315780518252602082019150602081019050602083039250610e0e565b6001836020036101000a0380198251168184511680821785525050505050509050019150506040516020818303038152906040528051906020012060001c90506001600b6000868152602001908152602001600020600201541415610f5f5760028181610e9a57fe5b06600b600086815260200190815260200160002060060181905550610eed8285600b600088815260200190815260200160002060060154600b6000898152602001908152602001600020600201546118ad565b838273ffffffffffffffffffffffffffffffffffffffff167f3e0b428f99f88317a267eb30f49f168a7d82cb56220b5e3c4ebfba8c71c4dfca83600b600089815260200190815260200160002060060154604051808381526020018281526020019250505060405180910390a361113f565b6002600b600086815260200190815260200160002060020154141561105057600160068281610f8a57fe5b0601600b600086815260200190815260200160002060060181905550610fde8285600b600088815260200190815260200160002060060154600b6000898152602001908152602001600020600201546118ad565b838273ffffffffffffffffffffffffffffffffffffffff167f4abcbda462a94726d98871d89dc3d68df4c87af956c88bff9e26eb6fd8f8d24983600b600089815260200190815260200160002060060154604051808381526020018281526020019250505060405180910390a361113e565b6003600b600086815260200190815260200160002060020154141561113d576001600d828161107b57fe5b0601600b6000868152602001908152602001600020600601819055506110cf8285600b600088815260200190815260200160002060060154600b6000898152602001908152602001600020600201546118ad565b838273ffffffffffffffffffffffffffffffffffffffff167f10426ca2b14c787eb34a20cb459b266c77e6c79ac3eedb0972e4bbf26510ffc783600b600089815260200190815260200160002060060154604051808381526020018281526020019250505060405180910390a35b5b5b50505050565b6000801b600460008060001b815260200190815260200160002081905550505050565b600a6020528060005260406000206000915090508060000160009054906101000a900473ffffffffffffffffffffffffffffffffffffffff16908060010154908060020154908060030160009054906101000a900460ff16905084565b60011515600a60003373ffffffffffffffffffffffffffffffffffffffff1673ffffffffffffffffffffffffffffffffffffffff16815260200190815260200160002060030160009054906101000a900460ff161515141561128f576040517f08c379a000000000000000000000000000000000000000000000000000000000815260040180806020018281038252601a8152602001807f43616e6e6f742062652077616974696e6720666f72206361726400000000000081525060200191505060405180910390fd5b600066038d7ea4c680008202905060006112a76137f1565b9050808201600960003373ffffffffffffffffffffffffffffffffffffffff1673ffffffffffffffffffffffffffffffffffffffff16815260200190815260200160002060020154600960003373ffffffffffffffffffffffffffffffffffffffff1673ffffffffffffffffffffffffffffffffffffffff168152602001908152602001600020600101540310156113a7576040517f08c379a00000000000000000000000000000000000000000000000000000000081526004018080602001828103825260148152602001807f4e6f7420656e6f756768206c697175696469747900000000000000000000000081525060200191505060405180910390fd5b80600d830201600754600654031015611428576040517f08c379a00000000000000000000000000000000000000000000000000000000081526004018080602001828103825260198152602001807f436f6e74726163742063616e6e6f7420636f766572206265740000000000000081525060200191505060405180910390fd5b80600d830201600760008282540192505081905550808201600960003373ffffffffffffffffffffffffffffffffffffffff1673ffffffffffffffffffffffffffffffffffffffff1681526020019081526020016000206002016000828254019250508190555060003342604051602001808373ffffffffffffffffffffffffffffffffffffffff1673ffffffffffffffffffffffffffffffffffffffff1660601b8152601401828152602001925050506040516020818303038152906040528051906020012060001c905060006001600d838161150257fe5b06019050600181141580156115185750600d8114155b156117ca5760006115288361383a565b9050611532615240565b8060000151508181604001818152505082816020018181525050600181606001901515908115158152505080600a60003373ffffffffffffffffffffffffffffffffffffffff1673ffffffffffffffffffffffffffffffffffffffff16815260200190815260200160002060008201518160000160006101000a81548173ffffffffffffffffffffffffffffffffffffffff021916908373ffffffffffffffffffffffffffffffffffffffff160217905550602082015181600101556040820151816002015560608201518160030160006101000a81548160ff0219169083151502179055509050506116236151ea565b8281600001818152505033816020019073ffffffffffffffffffffffffffffffffffffffff16908173ffffffffffffffffffffffffffffffffffffffff168152505080604001515086816060018181525050806080015150858160a0018181525050838160c001818152505080600b60008581526020019081526020016000206000820151816000015560208201518160010160006101000a81548173ffffffffffffffffffffffffffffffffffffffff021916908373ffffffffffffffffffffffffffffffffffffffff16021790555060408201518160020155606082015181600301556080820151816004015560a0820151816005015560c08201518160060155905050823373ffffffffffffffffffffffffffffffffffffffff167f680397c45077ee300a8ffc23b8df8f67de5ada41abab7430a35945e03c283cb389600960003373ffffffffffffffffffffffffffffffffffffffff1673ffffffffffffffffffffffffffffffffffffffff16815260200190815260200160002060010154604051808381526020018281526020019250505060405180910390a350505061182b565b8360076000828254039250508190555083600960003373ffffffffffffffffffffffffffffffffffffffff1673ffffffffffffffffffffffffffffffffffffffff168152602001908152602001600020600201600082825403925050819055505b3373ffffffffffffffffffffffffffffffffffffffff167f53e656066f9d7765a5368bc7e7a2a117332bd7cd23212158818dbeea67b405938383604051808381526020018281526020019250505060405180910390a25050505050565b6000809054906101000a900473ffffffffffffffffffffffffffffffffffffffff1681565b6000600b60008581526020019081526020016000206003015490506000600b60008681526020019081526020016000206005015490508160066000828254019250508190555081600960008873ffffffffffffffffffffffffffffffffffffffff1673ffffffffffffffffffffffffffffffffffffffff168152602001908152602001600020600101600082825403925050819055506001831415611e65576000600283029050600b600087815260200190815260200160002060040154851415611bec5780600960008973ffffffffffffffffffffffffffffffffffffffff1673ffffffffffffffffffffffffffffffffffffffff168152602001908152602001600020600101600082825401925050819055508181016006600082825403925050819055506001851415611ae457858773ffffffffffffffffffffffffffffffffffffffff167f0c9a151e6d7e4ad0bcfa7a62050b282805d04c54e59654db19dbadd7cb377a9c858460405180806020018060200180602001868152602001858152602001848103845260058152602001807f4865616473000000000000000000000000000000000000000000000000000000815250602001848103835260058152602001807f4865616473000000000000000000000000000000000000000000000000000000815250602001848103825260068152602001807f506c6179657200000000000000000000000000000000000000000000000000008152506020019550505050505060405180910390a3611be7565b858773ffffffffffffffffffffffffffffffffffffffff167f0c9a151e6d7e4ad0bcfa7a62050b282805d04c54e59654db19dbadd7cb377a9c858460405180806020018060200180602001868152602001858152602001848103845260058152602001807f5461696c73000000000000000000000000000000000000000000000000000000815250602001848103835260058152602001807f5461696c73000000000000000000000000000000000000000000000000000000815250602001848103825260068152602001807f506c6179657200000000000000000000000000000000000000000000000000008152506020019550505050505060405180910390a35b611e50565b81600960008973ffffffffffffffffffffffffffffffffffffffff1673ffffffffffffffffffffffffffffffffffffffff168152602001908152602001600020600101600082825403925050819055506001851415611d4c57858773ffffffffffffffffffffffffffffffffffffffff167f0c9a151e6d7e4ad0bcfa7a62050b282805d04c54e59654db19dbadd7cb377a9c858660405180806020018060200180602001868152602001858152602001848103845260058152602001807f4865616473000000000000000000000000000000000000000000000000000000815250602001848103835260058152602001807f5461696c73000000000000000000000000000000000000000000000000000000815250602001848103825260058152602001807f486f7573650000000000000000000000000000000000000000000000000000008152506020019550505050505060405180910390a3611e4f565b858773ffffffffffffffffffffffffffffffffffffffff167f0c9a151e6d7e4ad0bcfa7a62050b282805d04c54e59654db19dbadd7cb377a9c858660405180806020018060200180602001868152602001858152602001848103845260058152602001807f5461696c73000000000000000000000000000000000000000000000000000000815250602001848103835260058152602001807f4865616473000000000000000000000000000000000000000000000000000000815250602001848103825260058152602001807f486f7573650000000000000000000000000000000000000000000000000000008152506020019550505050505060405180910390a35b5b60028302600760008282540392505081905550505b60028314156120cd576000600683029050600b600087815260200190815260200160002060040154851415611fb15780600960008973ffffffffffffffffffffffffffffffffffffffff1673ffffffffffffffffffffffffffffffffffffffff16815260200190815260200160002060010160008282540192505081905550818101600660008282540392505081905550858773ffffffffffffffffffffffffffffffffffffffff167ff0f1a71001487cdd2b5333e3fe895c9deb3fd1ed644fc1563fd75591b714062a87600b60008b81526020019081526020016000206004015487866040518085815260200184815260200180602001848152602001838152602001828103825260068152602001807f506c6179657200000000000000000000000000000000000000000000000000008152506020019550505050505060405180910390a36120b8565b81600960008973ffffffffffffffffffffffffffffffffffffffff1673ffffffffffffffffffffffffffffffffffffffff16815260200190815260200160002060010160008282540392505081905550858773ffffffffffffffffffffffffffffffffffffffff167ff0f1a71001487cdd2b5333e3fe895c9deb3fd1ed644fc1563fd75591b714062a87600b60008b81526020019081526020016000206004015487886040518085815260200184815260200180602001848152602001838152602001828103825260058152602001807f486f7573650000000000000000000000000000000000000000000000000000008152506020019550505050505060405180910390a35b60068302600760008282540392505081905550505b60038314156128215760011515600a60008873ffffffffffffffffffffffffffffffffffffffff1673ffffffffffffffffffffffffffffffffffffffff16815260200190815260200160002060030160009054906101000a900460ff1615151461219f576040517f08c379a000000000000000000000000000000000000000000000000000000000815260040180806020018281038252600f8152602001807f4d7573742062652077616974696e67000000000000000000000000000000000081525060200191505060405180910390fd5b6000801b600a60008873ffffffffffffffffffffffffffffffffffffffff1673ffffffffffffffffffffffffffffffffffffffff1681526020019081526020016000206002015411612259576040517f08c379a00000000000000000000000000000000000000000000000000000000081526004018080602001828103825260168152602001807f4d757374206861766520686f757365636172642069640000000000000000000081525060200191505060405180910390fd5b6000801b600a60008873ffffffffffffffffffffffffffffffffffffffff1673ffffffffffffffffffffffffffffffffffffffff168152602001908152602001600020600201819055506000600a60008873ffffffffffffffffffffffffffffffffffffffff1673ffffffffffffffffffffffffffffffffffffffff16815260200190815260200160002060030160006101000a81548160ff0219169083151502179055506000600a60008873ffffffffffffffffffffffffffffffffffffffff1673ffffffffffffffffffffffffffffffffffffffff1681526020019081526020016000206001015490506000600a60008973ffffffffffffffffffffffffffffffffffffffff1673ffffffffffffffffffffffffffffffffffffffff1681526020019081526020016000206001018190555060006001600b60008981526020019081526020016000206004015414156123b357600190505b6000600b60008981526020019081526020016000206004015414156123d757600090505b60006002831415612406576001151582151514156123fa57600b85029050612401565b6082850290505b6125b5565b60038314156124335760011515821515141561242757600d8502905061242e565b6041850290505b6125b4565b60048314156124605760011515821515141561245457600e8502905061245b565b602a850290505b6125b3565b600583141561248d5760011515821515141561248157601085029050612488565b6020850290505b6125b2565b60068314156124ba576001151582151514156124ae576012850290506124b5565b601a850290505b6125b1565b60078314156124ce576015850290506125b0565b60088314156124fb576001151582151514156124ef57601a850290506124f6565b6012850290505b6125af565b60098314156125285760011515821515141561251c57602085029050612523565b6010850290505b6125ae565b600a8314156125555760011515821515141561254957602a85029050612550565b600e850290505b6125ad565b600b831415612582576001151582151514156125765760418502905061257d565b600d850290505b6125ac565b600c8314156125ab576001151582151514156125a3576082850290506125aa565b600b850290505b5b5b5b5b5b5b5b5b5b5b5b6000879050600a82816125c457fe5b049150600115158315151480156125da57508381115b806125f45750600015158315151480156125f357508381105b5b1561270c5781600960008c73ffffffffffffffffffffffffffffffffffffffff1673ffffffffffffffffffffffffffffffffffffffff16815260200190815260200160002060010160008282540192505081905550848201600660008282540392505081905550888a73ffffffffffffffffffffffffffffffffffffffff167f3f49e8a1c02bb092374df7b4bf984f5f1e89085d4745000dd2d8507511083b068684878b88604051808681526020018581526020018415151515815260200183815260200182815260200180602001828103825260068152602001807f506c617965720000000000000000000000000000000000000000000000000000815250602001965050505050505060405180910390a3612809565b84600960008c73ffffffffffffffffffffffffffffffffffffffff1673ffffffffffffffffffffffffffffffffffffffff16815260200190815260200160002060010160008282540392505081905550888a73ffffffffffffffffffffffffffffffffffffffff167f3f49e8a1c02bb092374df7b4bf984f5f1e89085d4745000dd2d8507511083b068684878b8c604051808681526020018581526020018415151515815260200183815260200182815260200180602001828103825260058152602001807f486f757365000000000000000000000000000000000000000000000000000000815250602001965050505050505060405180910390a35b600d8602600760008282540392505081905550505050505b81600960008873ffffffffffffffffffffffffffffffffffffffff1673ffffffffffffffffffffffffffffffffffffffff16815260200190815260200160002060020160008282540392505081905550505050505050565b6000809054906101000a900473ffffffffffffffffffffffffffffffffffffffff1673ffffffffffffffffffffffffffffffffffffffff163373ffffffffffffffffffffffffffffffffffffffff16146128d257600080fd5b6000600654905060006006819055503373ffffffffffffffffffffffffffffffffffffffff166108fc829081150290604051600060405180830381858888f19350505050158015612927573d6000803e3d6000fd5b506000809054906101000a900473ffffffffffffffffffffffffffffffffffffffff1673ffffffffffffffffffffffffffffffffffffffff167f9ca86e26e8d02952f920895df7583aa717e8ebc63cd0708c0879da89b9a07445826040518082815260200191505060405180910390a250565b6000809054906101000a900473ffffffffffffffffffffffffffffffffffffffff1673ffffffffffffffffffffffffffffffffffffffff163373ffffffffffffffffffffffffffffffffffffffff16146129f357600080fd5b66470de4df82000080341015612a71576040517f08c379a00000000000000000000000000000000000000000000000000000000081526004018080602001828103825260118152602001807f32302066696e6e6579206d696e696d756d00000000000000000000000000000081525060200191505060405180910390fd5b346006600082825401925050819055503373ffffffffffffffffffffffffffffffffffffffff167f350a7000a835544193f030ad53ca1f667390855a6373fd43a2a998c98bfbf85634600654604051808381526020018281526020019250505060405180910390a250565b600b6020528060005260406000206000915090508060000154908060010160009054906101000a900473ffffffffffffffffffffffffffffffffffffffff16908060020154908060030154908060040154908060050154908060060154905087565b60096020528060005260406000206000915090508060000160009054906101000a900473ffffffffffffffffffffffffffffffffffffffff16908060010154908060020154908060030154905084565b66038d7ea4c6800080341015612c0c576040517f08c379a00000000000000000000000000000000000000000000000000000000081526004018080602001828103825260108152602001807f312066696e6e6579206d696e696d756d0000000000000000000000000000000081525060200191505060405180910390fd5b612c14615283565b33816000019073ffffffffffffffffffffffffffffffffffffffff16908173ffffffffffffffffffffffffffffffffffffffff1681525050600960003373ffffffffffffffffffffffffffffffffffffffff1673ffffffffffffffffffffffffffffffffffffffff16815260200190815260200160002060010154816020018181525050600960003373ffffffffffffffffffffffffffffffffffffffff1673ffffffffffffffffffffffffffffffffffffffff16815260200190815260200160002060020154816040018181525050600960003373ffffffffffffffffffffffffffffffffffffffff1673ffffffffffffffffffffffffffffffffffffffff1681526020019081526020016000206003015481606001818152505080600960003373ffffffffffffffffffffffffffffffffffffffff1673ffffffffffffffffffffffffffffffffffffffff16815260200190815260200160002060008201518160000160006101000a81548173ffffffffffffffffffffffffffffffffffffffff021916908373ffffffffffffffffffffffffffffffffffffffff16021790555060208201518160010155604082015181600201556060820151816003015590505034600960003373ffffffffffffffffffffffffffffffffffffffff1673ffffffffffffffffffffffffffffffffffffffff168152602001908152602001600020600101600082825401925050819055503373ffffffffffffffffffffffffffffffffffffffff167f155efc6f27878074d7b21fde35c660b361cb83869a21c2409ed1a562f17e172934600960003373ffffffffffffffffffffffffffffffffffffffff1673ffffffffffffffffffffffffffffffffffffffff16815260200190815260200160002060010154604051808381526020018281526020019250505060405180910390a25050565b6000809054906101000a900473ffffffffffffffffffffffffffffffffffffffff1673ffffffffffffffffffffffffffffffffffffffff163373ffffffffffffffffffffffffffffffffffffffff1614612f1d57600080fd5b3373ffffffffffffffffffffffffffffffffffffffff16ff5b60008083118015612f48575060208311155b612f5157600080fd5b600a84029350606060016040519080825280601f01601f191660200182016040528015612f8d5781602001600182028038833980820191505090505b5090508360f81b81600081518110612fa157fe5b60200101907effffffffffffffffffffffffffffffffffffffffffffffffffffffffffffff1916908160001a905350606060206040519080825280601f01601f1916602001820160405280156130065781602001600182028038833980820191505090505b509050606060206040519080825280601f01601f19166020018201604052801561303f5781602001600182028038833980820191505090505b509050600061304c613847565b905060208352424118600143034018602084015260208252806020830152606060206040519080825280601f01601f1916602001820160405280156130a05781602001600182028038833980820191505090505b509050886020820152606060086040519080825280601f01601f1916602001820160405280156130df5781602001600182028038833980820191505090505b5090506130f28260186008846000613b67565b506130fb6152c4565b604051806080016040528087815260200188815260200186815260200184815250905060006131606040518060400160405280600681526020017f72616e646f6d0000000000000000000000000000000000000000000000000000815250838c613bc6565b9050606060086040519080825280601f01601f1916602001820160405280156131985781602001600182028038833980820191505090505b50905060208401517f0100000000000000000000000000000000000000000000000000000000000000810460278301537e01000000000000000000000000000000000000000000000000000000000000810460268301537d010000000000000000000000000000000000000000000000000000000000810460258301537c0100000000000000000000000000000000000000000000000000000000810460248301537b01000000000000000000000000000000000000000000000000000000810460238301537a0100000000000000000000000000000000000000000000000000008104602283015379010000000000000000000000000000000000000000000000000081046021830153780100000000000000000000000000000000000000000000000081046020830153506134be8282856001600481106132d757fe5b60200201516002876000600481106132eb57fe5b60200201516040518082805190602001908083835b602083106133235780518252602082019150602081019050602083039250613300565b6001836020036101000a038019825116818451168082178552505050505050905001915050602060405180830381855afa158015613365573d6000803e3d6000fd5b5050506040513d602081101561337a57600080fd5b81019080805190602001909291905050508760026004811061339857fe5b60200201516040516020018085805190602001908083835b602083106133d357805182526020820191506020810190506020830392506133b0565b6001836020036101000a03801982511681845116808217855250505050505090500184805190602001908083835b602083106134245780518252602082019150602081019050602083039250613401565b6001836020036101000a03801982511681845116808217855250505050505090500183815260200182805190602001908083835b6020831061347b5780518252602082019150602081019050602083039250613458565b6001836020036101000a03801982511681845116808217855250505050505090500194505050505060405160208183030381529060405280519060200120613f35565b8199505050505050505050509392505050565b60008073ffffffffffffffffffffffffffffffffffffffff16600260009054906101000a900473ffffffffffffffffffffffffffffffffffffffff1673ffffffffffffffffffffffffffffffffffffffff16148061355957506000613557600260009054906101000a900473ffffffffffffffffffffffffffffffffffffffff16613f51565b145b1561356a576135686000613f5c565b505b600260009054906101000a900473ffffffffffffffffffffffffffffffffffffffff1673ffffffffffffffffffffffffffffffffffffffff166338cc48316040518163ffffffff1660e01b8152600401602060405180830381600087803b1580156135d457600080fd5b505af11580156135e8573d6000803e3d6000fd5b505050506040513d60208110156135fe57600080fd5b810190808051906020019092919050505073ffffffffffffffffffffffffffffffffffffffff16600160009054906101000a900473ffffffffffffffffffffffffffffffffffffffff1673ffffffffffffffffffffffffffffffffffffffff161461374957600260009054906101000a900473ffffffffffffffffffffffffffffffffffffffff1673ffffffffffffffffffffffffffffffffffffffff166338cc48316040518163ffffffff1660e01b8152600401602060405180830381600087803b1580156136cd57600080fd5b505af11580156136e1573d6000803e3d6000fd5b505050506040513d60208110156136f757600080fd5b8101908080519060200190929190505050600160006101000a81548173ffffffffffffffffffffffffffffffffffffffff021916908373ffffffffffffffffffffffffffffffffffffffff1602179055505b600160009054906101000a900473ffffffffffffffffffffffffffffffffffffffff1673ffffffffffffffffffffffffffffffffffffffff1663c281d19e6040518163ffffffff1660e01b815260040160206040518083038186803b1580156137b157600080fd5b505afa1580156137c5573d6000803e3d6000fd5b505050506040513d60208110156137db57600080fd5b8101908080519060200190929190505050905090565b60006138356040518060400160405280600581526020017f707269636500000000000000000000000000000000000000000000000000000081525062030d40613f6d565b905090565b60008160001b9050919050565b60008073ffffffffffffffffffffffffffffffffffffffff16600260009054906101000a900473ffffffffffffffffffffffffffffffffffffffff1673ffffffffffffffffffffffffffffffffffffffff1614806138cf575060006138cd600260009054906101000a900473ffffffffffffffffffffffffffffffffffffffff16613f51565b145b156138e0576138de6000613f5c565b505b600260009054906101000a900473ffffffffffffffffffffffffffffffffffffffff1673ffffffffffffffffffffffffffffffffffffffff166338cc48316040518163ffffffff1660e01b8152600401602060405180830381600087803b15801561394a57600080fd5b505af115801561395e573d6000803e3d6000fd5b505050506040513d602081101561397457600080fd5b810190808051906020019092919050505073ffffffffffffffffffffffffffffffffffffffff16600160009054906101000a900473ffffffffffffffffffffffffffffffffffffffff1673ffffffffffffffffffffffffffffffffffffffff1614613abf57600260009054906101000a900473ffffffffffffffffffffffffffffffffffffffff1673ffffffffffffffffffffffffffffffffffffffff166338cc48316040518163ffffffff1660e01b8152600401602060405180830381600087803b158015613a4357600080fd5b505af1158015613a57573d6000803e3d6000fd5b505050506040513d6020811015613a6d57600080fd5b8101908080519060200190929190505050600160006101000a81548173ffffffffffffffffffffffffffffffffffffffff021916908373ffffffffffffffffffffffffffffffffffffffff1602179055505b600160009054906101000a900473ffffffffffffffffffffffffffffffffffffffff1673ffffffffffffffffffffffffffffffffffffffff1663abaa5f3e6040518163ffffffff1660e01b815260040160206040518083038186803b158015613b2757600080fd5b505afa158015613b3b573d6000803e3d6000fd5b505050506040513d6020811015613b5157600080fd5b8101908080519060200190929190505050905090565b6060600082850190508084511015613b7e57600080fd5b600086602001905060008460200190505b868860200101821015613bb75781890151808288015250602082019150602081019050613b8f565b85935050505095945050505050565b60008073ffffffffffffffffffffffffffffffffffffffff16600260009054906101000a900473ffffffffffffffffffffffffffffffffffffffff1673ffffffffffffffffffffffffffffffffffffffff161480613c4e57506000613c4c600260009054906101000a900473ffffffffffffffffffffffffffffffffffffffff16613f51565b145b15613c5f57613c5d6000613f5c565b505b600260009054906101000a900473ffffffffffffffffffffffffffffffffffffffff1673ffffffffffffffffffffffffffffffffffffffff166338cc48316040518163ffffffff1660e01b8152600401602060405180830381600087803b158015613cc957600080fd5b505af1158015613cdd573d6000803e3d6000fd5b505050506040513d6020811015613cf357600080fd5b810190808051906020019092919050505073ffffffffffffffffffffffffffffffffffffffff16600160009054906101000a900473ffffffffffffffffffffffffffffffffffffffff1673ffffffffffffffffffffffffffffffffffffffff1614613e3e57600260009054906101000a900473ffffffffffffffffffffffffffffffffffffffff1673ffffffffffffffffffffffffffffffffffffffff166338cc48316040518163ffffffff1660e01b8152600401602060405180830381600087803b158015613dc257600080fd5b505af1158015613dd6573d6000803e3d6000fd5b505050506040513d6020811015613dec57600080fd5b8101908080519060200190929190505050600160006101000a81548173ffffffffffffffffffffffffffffffffffffffff021916908373ffffffffffffffffffffffffffffffffffffffff1602179055505b60606004604051908082528060200260200182016040528015613e7557816020015b6060815260200190600190039081613e605790505b50905083600060048110613e8557fe5b602002015181600081518110613e9757fe5b602002602001018190525083600160048110613eaf57fe5b602002015181600181518110613ec157fe5b602002602001018190525083600260048110613ed957fe5b602002015181600281518110613eeb57fe5b602002602001018190525083600360048110613f0357fe5b602002015181600381518110613f1557fe5b6020026020010181905250613f2b85828561430a565b9150509392505050565b8060046000848152602001908152602001600020819055505050565b6000813b9050919050565b6000613f66614870565b9050919050565b60008073ffffffffffffffffffffffffffffffffffffffff16600260009054906101000a900473ffffffffffffffffffffffffffffffffffffffff1673ffffffffffffffffffffffffffffffffffffffff161480613ff557506000613ff3600260009054906101000a900473ffffffffffffffffffffffffffffffffffffffff16613f51565b145b15614006576140046000613f5c565b505b600260009054906101000a900473ffffffffffffffffffffffffffffffffffffffff1673ffffffffffffffffffffffffffffffffffffffff166338cc48316040518163ffffffff1660e01b8152600401602060405180830381600087803b15801561407057600080fd5b505af1158015614084573d6000803e3d6000fd5b505050506040513d602081101561409a57600080fd5b810190808051906020019092919050505073ffffffffffffffffffffffffffffffffffffffff16600160009054906101000a900473ffffffffffffffffffffffffffffffffffffffff1673ffffffffffffffffffffffffffffffffffffffff16146141e557600260009054906101000a900473ffffffffffffffffffffffffffffffffffffffff1673ffffffffffffffffffffffffffffffffffffffff166338cc48316040518163ffffffff1660e01b8152600401602060405180830381600087803b15801561416957600080fd5b505af115801561417d573d6000803e3d6000fd5b505050506040513d602081101561419357600080fd5b8101908080519060200190929190505050600160006101000a81548173ffffffffffffffffffffffffffffffffffffffff021916908373ffffffffffffffffffffffffffffffffffffffff1602179055505b600160009054906101000a900473ffffffffffffffffffffffffffffffffffffffff1673ffffffffffffffffffffffffffffffffffffffff16632ef3accc84846040518363ffffffff1660e01b81526004018080602001838152602001828103825284818151815260200191508051906020019080838360005b8381101561427a57808201518184015260208101905061425f565b50505050905090810190601f1680156142a75780820380516001836020036101000a031916815260200191505b509350505050602060405180830381600087803b1580156142c757600080fd5b505af11580156142db573d6000803e3d6000fd5b505050506040513d60208110156142f157600080fd5b8101908080519060200190929190505050905092915050565b60008073ffffffffffffffffffffffffffffffffffffffff16600260009054906101000a900473ffffffffffffffffffffffffffffffffffffffff1673ffffffffffffffffffffffffffffffffffffffff16148061439257506000614390600260009054906101000a900473ffffffffffffffffffffffffffffffffffffffff16613f51565b145b156143a3576143a16000613f5c565b505b600260009054906101000a900473ffffffffffffffffffffffffffffffffffffffff1673ffffffffffffffffffffffffffffffffffffffff166338cc48316040518163ffffffff1660e01b8152600401602060405180830381600087803b15801561440d57600080fd5b505af1158015614421573d6000803e3d6000fd5b505050506040513d602081101561443757600080fd5b810190808051906020019092919050505073ffffffffffffffffffffffffffffffffffffffff16600160009054906101000a900473ffffffffffffffffffffffffffffffffffffffff1673ffffffffffffffffffffffffffffffffffffffff161461458257600260009054906101000a900473ffffffffffffffffffffffffffffffffffffffff1673ffffffffffffffffffffffffffffffffffffffff166338cc48316040518163ffffffff1660e01b8152600401602060405180830381600087803b15801561450657600080fd5b505af115801561451a573d6000803e3d6000fd5b505050506040513d602081101561453057600080fd5b8101908080519060200190929190505050600160006101000a81548173ffffffffffffffffffffffffffffffffffffffff021916908373ffffffffffffffffffffffffffffffffffffffff1602179055505b6000600160009054906101000a900473ffffffffffffffffffffffffffffffffffffffff1673ffffffffffffffffffffffffffffffffffffffff16632ef3accc86856040518363ffffffff1660e01b81526004018080602001838152602001828103825284818151815260200191508051906020019080838360005b838110156146195780820151818401526020810190506145fe565b50505050905090810190601f1680156146465780820380516001836020036101000a031916815260200191505b509350505050602060405180830381600087803b15801561466657600080fd5b505af115801561467a573d6000803e3d6000fd5b505050506040513d602081101561469057600080fd5b81019080805190602001909291905050509050823a02670de0b6b3a7640000018111156146c3576000801b915050614869565b60606146ce85614dc7565b9050600160009054906101000a900473ffffffffffffffffffffffffffffffffffffffff1673ffffffffffffffffffffffffffffffffffffffff1663c55c1cb68360008985896040518663ffffffff1660e01b8152600401808581526020018060200180602001848152602001838103835286818151815260200191508051906020019080838360005b83811015614773578082015181840152602081019050614758565b50505050905090810190601f1680156147a05780820380516001836020036101000a031916815260200191505b50838103825285818151815260200191508051906020019080838360005b838110156147d95780820151818401526020810190506147be565b50505050905090810190601f1680156148065780820380516001836020036101000a031916815260200191505b5096505050505050506020604051808303818588803b15801561482857600080fd5b505af115801561483c573d6000803e3d6000fd5b50505050506040513d602081101561485357600080fd5b8101908080519060200190929190505050925050505b9392505050565b600080614890731d3b2638a7cc9f2cb3d298a3da7a90b67e5506ed613f51565b111561493257731d3b2638a7cc9f2cb3d298a3da7a90b67e5506ed600260006101000a81548173ffffffffffffffffffffffffffffffffffffffff021916908373ffffffffffffffffffffffffffffffffffffffff1602179055506149296040518060400160405280600b81526020017f6574685f6d61696e6e6574000000000000000000000000000000000000000000815250614e47565b60019050614dc4565b600061495173c03a2615d5efaf5f49f60b7bb6583eaec212fdf1613f51565b11156149f35773c03a2615d5efaf5f49f60b7bb6583eaec212fdf1600260006101000a81548173ffffffffffffffffffffffffffffffffffffffff021916908373ffffffffffffffffffffffffffffffffffffffff1602179055506149ea6040518060400160405280600c81526020017f6574685f726f707374656e330000000000000000000000000000000000000000815250614e47565b60019050614dc4565b6000614a1273b7a07bcf2ba2f2703b24c0691b5278999c59ac7e613f51565b1115614ab45773b7a07bcf2ba2f2703b24c0691b5278999c59ac7e600260006101000a81548173ffffffffffffffffffffffffffffffffffffffff021916908373ffffffffffffffffffffffffffffffffffffffff160217905550614aab6040518060400160405280600981526020017f6574685f6b6f76616e0000000000000000000000000000000000000000000000815250614e47565b60019050614dc4565b6000614ad373146500cfd35b22e4a392fe0adc06de1a1368ed48613f51565b1115614b755773146500cfd35b22e4a392fe0adc06de1a1368ed48600260006101000a81548173ffffffffffffffffffffffffffffffffffffffff021916908373ffffffffffffffffffffffffffffffffffffffff160217905550614b6c6040518060400160405280600b81526020017f6574685f72696e6b656279000000000000000000000000000000000000000000815250614e47565b60019050614dc4565b6000614b9473a2998efd205fb9d4b4963afb70778d6354ad3a41613f51565b1115614c365773a2998efd205fb9d4b4963afb70778d6354ad3a41600260006101000a81548173ffffffffffffffffffffffffffffffffffffffff021916908373ffffffffffffffffffffffffffffffffffffffff160217905550614c2d6040518060400160405280600a81526020017f6574685f676f65726c6900000000000000000000000000000000000000000000815250614e47565b60019050614dc4565b6000614c55736f485c8bf6fc43ea212e93bbf8ce046c7f1cb475613f51565b1115614cb957736f485c8bf6fc43ea212e93bbf8ce046c7f1cb475600260006101000a81548173ffffffffffffffffffffffffffffffffffffffff021916908373ffffffffffffffffffffffffffffffffffffffff16021790555060019050614dc4565b6000614cd87320e12a1f859b3feae5fb2a0a32c18f5a65555bbf613f51565b1115614d3c577320e12a1f859b3feae5fb2a0a32c18f5a65555bbf600260006101000a81548173ffffffffffffffffffffffffffffffffffffffff021916908373ffffffffffffffffffffffffffffffffffffffff16021790555060019050614dc4565b6000614d5b7351efaf4c8b3c9afbd5ab9f4bbc82784ab6ef8faa613f51565b1115614dbf577351efaf4c8b3c9afbd5ab9f4bbc82784ab6ef8faa600260006101000a81548173ffffffffffffffffffffffffffffffffffffffff021916908373ffffffffffffffffffffffffffffffffffffffff16021790555060019050614dc4565b600090505b90565b6060614dd1614e61565b614dd96152eb565b614de581610400614e6d565b614dee81614eb7565b60008090505b8351811015614e3057614e23848281518110614e0c57fe5b602002602001015183614ec590919063ffffffff16565b8080600101915050614df4565b50614e3a81614eea565b8060000151915050919050565b8060039080519060200190614e5d929190615305565b5050565b60405180590338823950565b6000819050600060208281614e7e57fe5b0614614e975760208181614e8e57fe5b06602003810190505b808360200181815250506040518084526000815281810160405250505050565b614ec2816004614ef8565b50565b614ed28260028351614f19565b614ee5818361505990919063ffffffff16565b505050565b614ef5816007614ef8565b50565b614f15601f60058360ff16901b178361510490919063ffffffff16565b5050565b60178111614f4557614f408160058460ff16901b60ff16178461510490919063ffffffff16565b615054565b60ff8111614f8657614f6a601860058460ff16901b178461510490919063ffffffff16565b614f80816001856151449092919063ffffffff16565b50615053565b61ffff8111614fc857614fac601960058460ff16901b178461510490919063ffffffff16565b614fc2816002856151449092919063ffffffff16565b50615052565b63ffffffff811161500c57614ff0601a60058460ff16901b178461510490919063ffffffff16565b615006816004856151449092919063ffffffff16565b50615051565b67ffffffffffffffff811161505057615038601b60058460ff16901b178461510490919063ffffffff16565b61504e816008856151449092919063ffffffff16565b505b5b5b5b5b505050565b6150616152eb565b826020015183600001515183510111156150915761509083600261508a866020015186516151ab565b026151c7565b5b60008060008451905085518051602081830101945086518101825260208701935050505b602081106150d857815183526020830192506020820191506020810390506150b5565b60006001826020036101000a039050801983511681855116818117865250508694505050505092915050565b8160200151600183600001515101111561512a576151298260028460200151026151c7565b5b815180516020818301018381536001820183525050505050565b61514c6152eb565b83602001518460000151518301111561517a576151798460026151738760200151866151ab565b026151c7565b5b60006001836101000a0390508451805184818301018684198251161781528582018352505050849150509392505050565b6000818311156151bd578290506151c1565b8190505b92915050565b6060826000015190506151da8383614e6d565b6151e48382615059565b50505050565b6040518060e0016040528060008019168152602001600073ffffffffffffffffffffffffffffffffffffffff16815260200160008152602001600081526020016000815260200160008152602001600081525090565b6040518060800160405280600073ffffffffffffffffffffffffffffffffffffffff16815260200160008152602001600080191681526020016000151581525090565b6040518060800160405280600073ffffffffffffffffffffffffffffffffffffffff1681526020016000815260200160008152602001600080191681525090565b60405180608001604052806004905b60608152602001906001900390816152d35790505090565b604051806040016040528060608152602001600081525090565b828054600181600116156101000203166002900490600052602060002090601f016020900481019282601f1061534657805160ff1916838001178555615374565b82800160010185558215615374579182015b82811115615373578251825591602001919060010190615358565b5b5090506153819190615385565b5090565b6153a791905b808211156153a357600081600090555060010161538b565b5090565b9056fea265627a7a72315820328f9c8e88cba1787f11cc85e7a5b940423900a508cc46272ae99ad53c076a2c64736f6c634300050c0032",
  "source": "import \"./Ownable.sol\";\r\nimport \"./Destroyable.sol\";\r\nimport \"./provableAPI.sol\";\r\nimport \"./Accountable.sol\";\r\nimport \"./Winnable.sol\";\r\nimport \"./Randomised.sol\";\r\n\r\npragma solidity 0.5.12;\r\n\r\ncontract DrawOut is Ownable, Destroyable, usingProvable, Accountable, Winnable, Randomised {\r\n\r\n    function drawHouseCard(uint256 amountToBet) public {\r\n        require(cards[msg.sender].waiting != true, \"Cannot be waiting for card\");\r\n\r\n        uint256 betAmount = amountToBet * 1e15;         //takes integer and turns it into finney amount\r\n        uint256 queryPrice = getQueryPrice();\r\n\r\n        require(punters[msg.sender].balance - punters[msg.sender].pendingBets >= betAmount + queryPrice, \"Not enough liquidity\");\r\n        require(contractBalance - pendingPayouts >= (betAmount * 13) + queryPrice, \"Contract cannot cover bet\");\r\n\r\n        //instead of deducting from contract and player balances at start of bet, it is all handled at the end of the bet\r\n        //to ensure both the contract and player have enough liquidity to cover all bets (in the case of starting new bets while other bets are pending)\r\n        //the pending bet balances are included in the require statements above that check that there are enough funds to initiate a bet\r\n\r\n        pendingPayouts += ((betAmount * 13) + queryPrice);        //maximum payout amount ( + queryPrice) for this game is added to contract's pending bet balances, which is checked against all incoming bets\r\n        punters[msg.sender].pendingBets += (betAmount + queryPrice);       //betAmount ( + queryPrice) added to player's pending bets and deducted at conclusion of bet\r\n\r\n        uint256 random = uint256(keccak256(abi.encodePacked(msg.sender, now)));         //pseudo-random number generator for the house card only as this is no critical for outcome or decision\r\n        uint256 card = ((random % 13) + 1);     //provides number between 1 and 13, inclusive (which would be Ace through King)\r\n\r\n        if (card != 1 && card != 13) {      //if card is 1 or 13 (Ace or King) no bet is initiated and event will fire showing card value for DApp event listener\r\n            //if card is not 1 or 13 then house card is created along with a bytes32 id (using pseudo-random number generator from above)\r\n            //then a bet is created (using the id created within this contract) here instead of in the Randomised contract (since we are not requesting a number from the oracle)\r\n\r\n            bytes32 id = convert(random);       //converts random number from above to a bytes32 id\r\n\r\n            Card memory newCard;        //house card will be stored here until conclusion of bet\r\n            newCard.user;\r\n            newCard.cardId = id;\r\n            newCard.houseCard = card;\r\n            newCard.waiting = true;\r\n\r\n            cards[msg.sender] = newCard;\r\n\r\n            Bet memory newBet;         //bet initiated here as we are not requesting number for housecard, just using pseudo-random number generator (above)\r\n            newBet.id = id;\r\n            newBet.player = msg.sender;\r\n            newBet.gameRef;\r\n            newBet.betAmount = betAmount;\r\n            newBet.choice;\r\n            newBet.queryPrice = queryPrice;\r\n            newBet.result = card;\r\n\r\n            bets[id] = newBet;\r\n\r\n            emit BetPlaced(msg.sender, id, betAmount, punters[msg.sender].balance);\r\n        } else {\r\n            pendingPayouts -= betAmount;\r\n            punters[msg.sender].pendingBets -= betAmount;\r\n        }\r\n        emit HouseCard_Received(msg.sender, random, card);\r\n    }\r\n\r\n    function drawUserCard(uint256 high) public {\r\n        require(high == 0 || high == 1, \"Must choose high or low\");     //0 for low, 1 for high\r\n        require(cards[msg.sender].waiting == true, \"Must be waiting\");\r\n        bytes32 id = cards[msg.sender].cardId;    //id from card mapping was used for bet mapping also (when house card was drawn) - can access this bet using the id stored in the card mapping tied to this user\r\n\r\n        requestNumber(msg.sender, 3, bets[id].betAmount, high, bets[id].queryPrice);         //requestNumber function is in Randomised contract\r\n    }\r\n\r\n\r\n    function convert(uint256 n) private pure returns (bytes32) {        //takes uint and spits out bytes32\r\n        return bytes32(n);\r\n    }\r\n}\r\n",
  "sourcePath": "D:\\Justin\\Documents\\Justin\\Ethereum\\blockPunt\\contracts\\DrawOut.sol",
  "compiler": {
    "name": "solc",
    "version": "0.5.12+commit.7709ece9.Emscripten.clang"
  },
  "schemaVersion": "3.0.16",
  "updatedAt": "2020-10-24T08:19:39.046Z",
  "devdoc": {
    "methods": {}
  },
  "userdoc": {
    "methods": {}
  }
}