{
  "contractName": "FlipOut",
  "abi": [
    {
      "anonymous": false,
      "inputs": [
        {
          "indexed": true,
          "internalType": "address",
          "name": "player",
          "type": "address"
        },
        {
          "indexed": true,
          "internalType": "bytes32",
          "name": "queryId",
          "type": "bytes32"
        },
        {
          "indexed": false,
          "internalType": "uint256",
          "name": "amountBet",
          "type": "uint256"
        },
        {
          "indexed": false,
          "internalType": "uint256",
          "name": "balanceBeforeBet",
          "type": "uint256"
        }
      ],
      "name": "BetPlaced",
      "type": "event"
    },
    {
      "anonymous": false,
      "inputs": [
        {
          "indexed": true,
          "internalType": "address",
          "name": "toAccount",
          "type": "address"
        },
        {
          "indexed": false,
          "internalType": "uint256",
          "name": "amountWithdrawn",
          "type": "uint256"
        }
      ],
      "name": "ContractBalanceWithdrawn",
      "type": "event"
    },
    {
      "anonymous": false,
      "inputs": [
        {
          "indexed": true,
          "internalType": "address",
          "name": "fromAccount",
          "type": "address"
        },
        {
          "indexed": false,
          "internalType": "uint256",
          "name": "amountDeposited",
          "type": "uint256"
        },
        {
          "indexed": false,
          "internalType": "uint256",
          "name": "newBalance",
          "type": "uint256"
        }
      ],
      "name": "ContractDepositMade",
      "type": "event"
    },
    {
      "anonymous": false,
      "inputs": [
        {
          "indexed": true,
          "internalType": "address",
          "name": "player",
          "type": "address"
        },
        {
          "indexed": true,
          "internalType": "bytes32",
          "name": "queryId",
          "type": "bytes32"
        },
        {
          "indexed": false,
          "internalType": "uint256",
          "name": "houseCard",
          "type": "uint256"
        },
        {
          "indexed": false,
          "internalType": "uint256",
          "name": "userCard",
          "type": "uint256"
        },
        {
          "indexed": false,
          "internalType": "bool",
          "name": "choseHigher",
          "type": "bool"
        },
        {
          "indexed": false,
          "internalType": "uint256",
          "name": "betAmount",
          "type": "uint256"
        },
        {
          "indexed": false,
          "internalType": "uint256",
          "name": "payOutAmount",
          "type": "uint256"
        },
        {
          "indexed": false,
          "internalType": "string",
          "name": "winner",
          "type": "string"
        }
      ],
      "name": "DrawOutResults",
      "type": "event"
    },
    {
      "anonymous": false,
      "inputs": [
        {
          "indexed": true,
          "internalType": "address",
          "name": "player",
          "type": "address"
        },
        {
          "indexed": true,
          "internalType": "bytes32",
          "name": "queryId",
          "type": "bytes32"
        },
        {
          "indexed": false,
          "internalType": "uint256",
          "name": "latestNumber",
          "type": "uint256"
        },
        {
          "indexed": false,
          "internalType": "uint256",
          "name": "Heads1orTails0",
          "type": "uint256"
        }
      ],
      "name": "FlipNumberReceived",
      "type": "event"
    },
    {
      "anonymous": false,
      "inputs": [
        {
          "indexed": true,
          "internalType": "address",
          "name": "player",
          "type": "address"
        },
        {
          "indexed": true,
          "internalType": "bytes32",
          "name": "queryId",
          "type": "bytes32"
        },
        {
          "indexed": false,
          "internalType": "string",
          "name": "flipResult",
          "type": "string"
        },
        {
          "indexed": false,
          "internalType": "string",
          "name": "choice",
          "type": "string"
        },
        {
          "indexed": false,
          "internalType": "string",
          "name": "winner",
          "type": "string"
        },
        {
          "indexed": false,
          "internalType": "uint256",
          "name": "betAmount",
          "type": "uint256"
        },
        {
          "indexed": false,
          "internalType": "uint256",
          "name": "payOutAmount",
          "type": "uint256"
        }
      ],
      "name": "FlipOutResults",
      "type": "event"
    },
    {
      "anonymous": false,
      "inputs": [
        {
          "indexed": true,
          "internalType": "address",
          "name": "player",
          "type": "address"
        },
        {
          "indexed": false,
          "internalType": "uint256",
          "name": "latestNumber",
          "type": "uint256"
        },
        {
          "indexed": false,
          "internalType": "uint256",
          "name": "houseCard",
          "type": "uint256"
        }
      ],
      "name": "HouseCard_Received",
      "type": "event"
    },
    {
      "anonymous": false,
      "inputs": [
        {
          "indexed": true,
          "internalType": "address",
          "name": "toAccount",
          "type": "address"
        },
        {
          "indexed": false,
          "internalType": "uint256",
          "name": "amountWithdrawn",
          "type": "uint256"
        }
      ],
      "name": "PlayerFundsWithdrawn",
      "type": "event"
    },
    {
      "anonymous": false,
      "inputs": [
        {
          "indexed": true,
          "internalType": "address",
          "name": "player",
          "type": "address"
        },
        {
          "indexed": true,
          "internalType": "bytes32",
          "name": "queryId",
          "type": "bytes32"
        },
        {
          "indexed": false,
          "internalType": "uint256",
          "name": "latestNumber",
          "type": "uint256"
        },
        {
          "indexed": false,
          "internalType": "uint256",
          "name": "diceNumber",
          "type": "uint256"
        }
      ],
      "name": "RollNumberReceived",
      "type": "event"
    },
    {
      "anonymous": false,
      "inputs": [
        {
          "indexed": true,
          "internalType": "address",
          "name": "player",
          "type": "address"
        },
        {
          "indexed": true,
          "internalType": "bytes32",
          "name": "queryId",
          "type": "bytes32"
        },
        {
          "indexed": false,
          "internalType": "uint256",
          "name": "rollResult",
          "type": "uint256"
        },
        {
          "indexed": false,
          "internalType": "uint256",
          "name": "choice",
          "type": "uint256"
        },
        {
          "indexed": false,
          "internalType": "string",
          "name": "winner",
          "type": "string"
        },
        {
          "indexed": false,
          "internalType": "uint256",
          "name": "betAmount",
          "type": "uint256"
        },
        {
          "indexed": false,
          "internalType": "uint256",
          "name": "payOutAmount",
          "type": "uint256"
        }
      ],
      "name": "RollOutResults",
      "type": "event"
    },
    {
      "anonymous": false,
      "inputs": [
        {
          "indexed": true,
          "internalType": "address",
          "name": "player",
          "type": "address"
        },
        {
          "indexed": true,
          "internalType": "bytes32",
          "name": "queryId",
          "type": "bytes32"
        },
        {
          "indexed": false,
          "internalType": "uint256",
          "name": "latestNumber",
          "type": "uint256"
        },
        {
          "indexed": false,
          "internalType": "uint256",
          "name": "userCard",
          "type": "uint256"
        }
      ],
      "name": "UserCard_Received",
      "type": "event"
    },
    {
      "anonymous": false,
      "inputs": [
        {
          "indexed": true,
          "internalType": "address",
          "name": "fromAccount",
          "type": "address"
        },
        {
          "indexed": false,
          "internalType": "uint256",
          "name": "amountDeposited",
          "type": "uint256"
        },
        {
          "indexed": false,
          "internalType": "uint256",
          "name": "newBalance",
          "type": "uint256"
        }
      ],
      "name": "UserDepositMade",
      "type": "event"
    },
    {
      "constant": false,
      "inputs": [],
      "name": "Destroy",
      "outputs": [],
      "payable": false,
      "stateMutability": "nonpayable",
      "type": "function"
    },
    {
      "constant": false,
      "inputs": [
        {
          "internalType": "bytes32",
          "name": "_queryId",
          "type": "bytes32"
        },
        {
          "internalType": "string",
          "name": "_result",
          "type": "string"
        }
      ],
      "name": "__callback",
      "outputs": [],
      "payable": false,
      "stateMutability": "nonpayable",
      "type": "function"
    },
    {
      "constant": false,
      "inputs": [
        {
          "internalType": "bytes32",
          "name": "_myid",
          "type": "bytes32"
        },
        {
          "internalType": "string",
          "name": "_result",
          "type": "string"
        },
        {
          "internalType": "bytes",
          "name": "_proof",
          "type": "bytes"
        }
      ],
      "name": "__callback",
      "outputs": [],
      "payable": false,
      "stateMutability": "nonpayable",
      "type": "function"
    },
    {
      "constant": false,
      "inputs": [],
      "name": "addBettingFunds",
      "outputs": [],
      "payable": true,
      "stateMutability": "payable",
      "type": "function"
    },
    {
      "constant": true,
      "inputs": [
        {
          "internalType": "bytes32",
          "name": "",
          "type": "bytes32"
        }
      ],
      "name": "bets",
      "outputs": [
        {
          "internalType": "bytes32",
          "name": "id",
          "type": "bytes32"
        },
        {
          "internalType": "address",
          "name": "player",
          "type": "address"
        },
        {
          "internalType": "uint256",
          "name": "gameRef",
          "type": "uint256"
        },
        {
          "internalType": "uint256",
          "name": "betAmount",
          "type": "uint256"
        },
        {
          "internalType": "uint256",
          "name": "choice",
          "type": "uint256"
        },
        {
          "internalType": "uint256",
          "name": "queryPrice",
          "type": "uint256"
        },
        {
          "internalType": "uint256",
          "name": "result",
          "type": "uint256"
        }
      ],
      "payable": false,
      "stateMutability": "view",
      "type": "function"
    },
    {
      "constant": true,
      "inputs": [
        {
          "internalType": "address",
          "name": "",
          "type": "address"
        }
      ],
      "name": "cards",
      "outputs": [
        {
          "internalType": "address",
          "name": "user",
          "type": "address"
        },
        {
          "internalType": "uint256",
          "name": "houseCard",
          "type": "uint256"
        },
        {
          "internalType": "bytes32",
          "name": "cardId",
          "type": "bytes32"
        },
        {
          "internalType": "bool",
          "name": "waiting",
          "type": "bool"
        }
      ],
      "payable": false,
      "stateMutability": "view",
      "type": "function"
    },
    {
      "constant": false,
      "inputs": [],
      "name": "depositToContract",
      "outputs": [],
      "payable": true,
      "stateMutability": "payable",
      "type": "function"
    },
    {
      "constant": true,
      "inputs": [],
      "name": "freeCallBack",
      "outputs": [
        {
          "internalType": "bool",
          "name": "",
          "type": "bool"
        }
      ],
      "payable": false,
      "stateMutability": "view",
      "type": "function"
    },
    {
      "constant": true,
      "inputs": [],
      "name": "owner",
      "outputs": [
        {
          "internalType": "address",
          "name": "",
          "type": "address"
        }
      ],
      "payable": false,
      "stateMutability": "view",
      "type": "function"
    },
    {
      "constant": false,
      "inputs": [
        {
          "internalType": "address",
          "name": "punter",
          "type": "address"
        },
        {
          "internalType": "bytes32",
          "name": "query_id",
          "type": "bytes32"
        },
        {
          "internalType": "uint256",
          "name": "result",
          "type": "uint256"
        },
        {
          "internalType": "uint256",
          "name": "game",
          "type": "uint256"
        }
      ],
      "name": "payOut",
      "outputs": [],
      "payable": false,
      "stateMutability": "nonpayable",
      "type": "function"
    },
    {
      "constant": true,
      "inputs": [
        {
          "internalType": "address",
          "name": "",
          "type": "address"
        }
      ],
      "name": "punters",
      "outputs": [
        {
          "internalType": "address",
          "name": "playerAddress",
          "type": "address"
        },
        {
          "internalType": "uint256",
          "name": "balance",
          "type": "uint256"
        },
        {
          "internalType": "uint256",
          "name": "pendingBets",
          "type": "uint256"
        },
        {
          "internalType": "bytes32",
          "name": "latestQueryId",
          "type": "bytes32"
        }
      ],
      "payable": false,
      "stateMutability": "view",
      "type": "function"
    },
    {
      "constant": false,
      "inputs": [
        {
          "internalType": "address",
          "name": "punter",
          "type": "address"
        },
        {
          "internalType": "uint256",
          "name": "gameRef",
          "type": "uint256"
        },
        {
          "internalType": "uint256",
          "name": "betAmount",
          "type": "uint256"
        },
        {
          "internalType": "uint256",
          "name": "choice",
          "type": "uint256"
        },
        {
          "internalType": "uint256",
          "name": "query_price",
          "type": "uint256"
        }
      ],
      "name": "requestNumber",
      "outputs": [],
      "payable": true,
      "stateMutability": "payable",
      "type": "function"
    },
    {
      "constant": false,
      "inputs": [],
      "name": "withdrawBettingFunds",
      "outputs": [],
      "payable": false,
      "stateMutability": "nonpayable",
      "type": "function"
    },
    {
      "constant": false,
      "inputs": [],
      "name": "withdrawContractBalance",
      "outputs": [],
      "payable": false,
      "stateMutability": "nonpayable",
      "type": "function"
    },
    {
      "constant": false,
      "inputs": [
        {
          "internalType": "uint256",
          "name": "amountToBet",
          "type": "uint256"
        },
        {
          "internalType": "uint256",
          "name": "betChoice",
          "type": "uint256"
        }
      ],
      "name": "flipIt",
      "outputs": [],
      "payable": false,
      "stateMutability": "nonpayable",
      "type": "function"
    }
  ],
  "bytecode": "0x60806040526001600860006101000a81548160ff021916908315150217905550336000806101000a81548173ffffffffffffffffffffffffffffffffffffffff021916908373ffffffffffffffffffffffffffffffffffffffff160217905550614dd28061006e6000396000f3fe6080604052600436106100e85760003560e01c80638da5cb5b1161008a578063c902c3ae11610059578063c902c3ae146105b0578063cafc419f14610655578063df11460e146106fb578063f58fef8e14610705576100e8565b80638da5cb5b146104c95780639745cd1f14610520578063bfab3db91461058f578063c8f781c2146105a6576100e8565b806327dc297e116100c657806327dc297e1461019f57806338bbfa5014610271578063512a5637146103da57806370908f211461041f576100e8565b80630eee99cf146100ed5780631a1cc0a5146101045780631b76946614610133575b600080fd5b3480156100f957600080fd5b5061010261071c565b005b34801561011057600080fd5b506101196108fb565b604051808215151515815260200191505060405180910390f35b61019d600480360360a081101561014957600080fd5b81019080803573ffffffffffffffffffffffffffffffffffffffff1690602001909291908035906020019092919080359060200190929190803590602001909291908035906020019092919050505061090e565b005b3480156101ab57600080fd5b5061026f600480360360408110156101c257600080fd5b8101908080359060200190929190803590602001906401000000008111156101e957600080fd5b8201836020820111156101fb57600080fd5b8035906020019184600183028401116401000000008311171561021d57600080fd5b91908080601f016020809104026020016040519081016040528093929190818152602001838380828437600081840152601f19601f820116905080830192505050505050509192919290505050610b2d565b005b34801561027d57600080fd5b506103d86004803603606081101561029457600080fd5b8101908080359060200190929190803590602001906401000000008111156102bb57600080fd5b8201836020820111156102cd57600080fd5b803590602001918460018302840111640100000000831117156102ef57600080fd5b91908080601f016020809104026020016040519081016040528093929190818152602001838380828437600081840152601f19601f8201169050808301925050505050505091929192908035906020019064010000000081111561035257600080fd5b82018360208201111561036457600080fd5b8035906020019184600183028401116401000000008311171561038657600080fd5b91908080601f016020809104026020016040519081016040528093929190818152602001838380828437600081840152601f19601f820116905080830192505050505050509192919290505050610f3b565b005b3480156103e657600080fd5b5061041d600480360360408110156103fd57600080fd5b810190808035906020019092919080359060200190929190505050610f5e565b005b34801561042b57600080fd5b5061046e6004803603602081101561044257600080fd5b81019080803573ffffffffffffffffffffffffffffffffffffffff16906020019092919050505061124d565b604051808573ffffffffffffffffffffffffffffffffffffffff1673ffffffffffffffffffffffffffffffffffffffff1681526020018481526020018381526020018215151515815260200194505050505060405180910390f35b3480156104d557600080fd5b506104de6112aa565b604051808273ffffffffffffffffffffffffffffffffffffffff1673ffffffffffffffffffffffffffffffffffffffff16815260200191505060405180910390f35b34801561052c57600080fd5b5061058d6004803603608081101561054357600080fd5b81019080803573ffffffffffffffffffffffffffffffffffffffff1690602001909291908035906020019092919080359060200190929190803590602001909291905050506112cf565b005b34801561059b57600080fd5b506105a461229b565b005b6105ae6123bc565b005b3480156105bc57600080fd5b506105e9600480360360208110156105d357600080fd5b81019080803590602001909291905050506124fe565b604051808881526020018773ffffffffffffffffffffffffffffffffffffffff1673ffffffffffffffffffffffffffffffffffffffff16815260200186815260200185815260200184815260200183815260200182815260200197505050505050505060405180910390f35b34801561066157600080fd5b506106a46004803603602081101561067857600080fd5b81019080803573ffffffffffffffffffffffffffffffffffffffff169060200190929190505050612560565b604051808573ffffffffffffffffffffffffffffffffffffffff1673ffffffffffffffffffffffffffffffffffffffff16815260200184815260200183815260200182815260200194505050505060405180910390f35b6107036125b0565b005b34801561071157600080fd5b5061071a6128e6565b005b6000600960003373ffffffffffffffffffffffffffffffffffffffff1673ffffffffffffffffffffffffffffffffffffffff16815260200190815260200160002060010154116107d4576040517f08c379a00000000000000000000000000000000000000000000000000000000081526004018080602001828103825260118152602001807f43616e6e6f74207769746864726177203000000000000000000000000000000081525060200191505060405180910390fd5b6000600960003373ffffffffffffffffffffffffffffffffffffffff1673ffffffffffffffffffffffffffffffffffffffff1681526020019081526020016000206001015490506000600960003373ffffffffffffffffffffffffffffffffffffffff1673ffffffffffffffffffffffffffffffffffffffff168152602001908152602001600020600101819055503373ffffffffffffffffffffffffffffffffffffffff166108fc829081150290604051600060405180830381858888f193505050501580156108a9573d6000803e3d6000fd5b503373ffffffffffffffffffffffffffffffffffffffff167fdc13ef7ce79641e7f89a0adb1f73831b0832805639eefe811c8173e09751306d826040518082815260200191505060405180910390a250565b600860009054906101000a900460ff1681565b6000801515600860009054906101000a900460ff161515141561093357819050610953565b600090506000600860006101000a81548160ff0219169083151502179055505b6000809050600061096982600162030d40612958565b9050610973614bff565b8181600001818152505088816020019073ffffffffffffffffffffffffffffffffffffffff16908173ffffffffffffffffffffffffffffffffffffffff1681525050878160400181815250508681606001818152505085816080018181525050838160a00181815250508060c001515080600b60008481526020019081526020016000206000820151816000015560208201518160010160006101000a81548173ffffffffffffffffffffffffffffffffffffffff021916908373ffffffffffffffffffffffffffffffffffffffff16021790555060408201518160020155606082015181600301556080820151816004015560a0820151816005015560c0820151816006015590505080600001518973ffffffffffffffffffffffffffffffffffffffff167f680397c45077ee300a8ffc23b8df8f67de5ada41abab7430a35945e03c283cb3836060015160096000866020015173ffffffffffffffffffffffffffffffffffffffff1673ffffffffffffffffffffffffffffffffffffffff16815260200190815260200160002060010154604051808381526020018281526020019250505060405180910390a3505050505050505050565b610b35612ef3565b73ffffffffffffffffffffffffffffffffffffffff163373ffffffffffffffffffffffffffffffffffffffff1614610b6c57600080fd5b6000600b600084815260200190815260200160002060010160009054906101000a900473ffffffffffffffffffffffffffffffffffffffff16905082600960008373ffffffffffffffffffffffffffffffffffffffff1673ffffffffffffffffffffffffffffffffffffffff168152602001908152602001600020600301819055506000826040516020018082805190602001908083835b60208310610c275780518252602082019150602081019050602083039250610c04565b6001836020036101000a0380198251168184511680821785525050505050509050019150506040516020818303038152906040528051906020012060001c90506001600b6000868152602001908152602001600020600201541415610d555760028181610c9057fe5b06600b600086815260200190815260200160002060060181905550610ce38285600b600088815260200190815260200160002060060154600b6000898152602001908152602001600020600201546112cf565b838273ffffffffffffffffffffffffffffffffffffffff167f3e0b428f99f88317a267eb30f49f168a7d82cb56220b5e3c4ebfba8c71c4dfca83600b600089815260200190815260200160002060060154604051808381526020018281526020019250505060405180910390a3610f35565b6002600b6000868152602001908152602001600020600201541415610e4657600160068281610d8057fe5b0601600b600086815260200190815260200160002060060181905550610dd48285600b600088815260200190815260200160002060060154600b6000898152602001908152602001600020600201546112cf565b838273ffffffffffffffffffffffffffffffffffffffff167f4abcbda462a94726d98871d89dc3d68df4c87af956c88bff9e26eb6fd8f8d24983600b600089815260200190815260200160002060060154604051808381526020018281526020019250505060405180910390a3610f34565b6003600b6000868152602001908152602001600020600201541415610f33576001600d8281610e7157fe5b0601600b600086815260200190815260200160002060060181905550610ec58285600b600088815260200190815260200160002060060154600b6000898152602001908152602001600020600201546112cf565b838273ffffffffffffffffffffffffffffffffffffffff167f10426ca2b14c787eb34a20cb459b266c77e6c79ac3eedb0972e4bbf26510ffc783600b600089815260200190815260200160002060060154604051808381526020018281526020019250505060405180910390a35b5b5b50505050565b6000801b600460008060001b815260200190815260200160002081905550505050565b6001821015610fd5576040517f08c379a00000000000000000000000000000000000000000000000000000000081526004018080602001828103825260128152602001807f4d7573742062657420736f6d657468696e67000000000000000000000000000081525060200191505060405180910390fd5b6001811480610fe45750600081145b611039576040517f08c379a0000000000000000000000000000000000000000000000000000000008152600401808060200182810382526021815260200180614d7d6021913960400191505060405180910390fd5b600066038d7ea4c68000830290506000611051613213565b9050808201600960003373ffffffffffffffffffffffffffffffffffffffff1673ffffffffffffffffffffffffffffffffffffffff16815260200190815260200160002060020154600960003373ffffffffffffffffffffffffffffffffffffffff1673ffffffffffffffffffffffffffffffffffffffff16815260200190815260200160002060010154031015611151576040517f08c379a00000000000000000000000000000000000000000000000000000000081526004018080602001828103825260148152602001807f4e6f7420656e6f756768206c697175696469747900000000000000000000000081525060200191505060405180910390fd5b8060028302016007546006540310156111d2576040517f08c379a00000000000000000000000000000000000000000000000000000000081526004018080602001828103825260198152602001807f436f6e74726163742063616e6e6f7420636f766572206265740000000000000081525060200191505060405180910390fd5b806002830201600760008282540192505081905550808201600960003373ffffffffffffffffffffffffffffffffffffffff1673ffffffffffffffffffffffffffffffffffffffff1681526020019081526020016000206002016000828254019250508190555061124733600184868561090e565b50505050565b600a6020528060005260406000206000915090508060000160009054906101000a900473ffffffffffffffffffffffffffffffffffffffff16908060010154908060020154908060030160009054906101000a900460ff16905084565b6000809054906101000a900473ffffffffffffffffffffffffffffffffffffffff1681565b6000600b60008581526020019081526020016000206003015490506000600b60008681526020019081526020016000206005015490508160066000828254019250508190555081600960008873ffffffffffffffffffffffffffffffffffffffff1673ffffffffffffffffffffffffffffffffffffffff168152602001908152602001600020600101600082825403925050819055506001831415611887576000600283029050600b60008781526020019081526020016000206004015485141561160e5780600960008973ffffffffffffffffffffffffffffffffffffffff1673ffffffffffffffffffffffffffffffffffffffff16815260200190815260200160002060010160008282540192505081905550818101600660008282540392505081905550600185141561150657858773ffffffffffffffffffffffffffffffffffffffff167f0c9a151e6d7e4ad0bcfa7a62050b282805d04c54e59654db19dbadd7cb377a9c858460405180806020018060200180602001868152602001858152602001848103845260058152602001807f4865616473000000000000000000000000000000000000000000000000000000815250602001848103835260058152602001807f4865616473000000000000000000000000000000000000000000000000000000815250602001848103825260068152602001807f506c6179657200000000000000000000000000000000000000000000000000008152506020019550505050505060405180910390a3611609565b858773ffffffffffffffffffffffffffffffffffffffff167f0c9a151e6d7e4ad0bcfa7a62050b282805d04c54e59654db19dbadd7cb377a9c858460405180806020018060200180602001868152602001858152602001848103845260058152602001807f5461696c73000000000000000000000000000000000000000000000000000000815250602001848103835260058152602001807f5461696c73000000000000000000000000000000000000000000000000000000815250602001848103825260068152602001807f506c6179657200000000000000000000000000000000000000000000000000008152506020019550505050505060405180910390a35b611872565b81600960008973ffffffffffffffffffffffffffffffffffffffff1673ffffffffffffffffffffffffffffffffffffffff16815260200190815260200160002060010160008282540392505081905550600185141561176e57858773ffffffffffffffffffffffffffffffffffffffff167f0c9a151e6d7e4ad0bcfa7a62050b282805d04c54e59654db19dbadd7cb377a9c858660405180806020018060200180602001868152602001858152602001848103845260058152602001807f4865616473000000000000000000000000000000000000000000000000000000815250602001848103835260058152602001807f5461696c73000000000000000000000000000000000000000000000000000000815250602001848103825260058152602001807f486f7573650000000000000000000000000000000000000000000000000000008152506020019550505050505060405180910390a3611871565b858773ffffffffffffffffffffffffffffffffffffffff167f0c9a151e6d7e4ad0bcfa7a62050b282805d04c54e59654db19dbadd7cb377a9c858660405180806020018060200180602001868152602001858152602001848103845260058152602001807f5461696c73000000000000000000000000000000000000000000000000000000815250602001848103835260058152602001807f4865616473000000000000000000000000000000000000000000000000000000815250602001848103825260058152602001807f486f7573650000000000000000000000000000000000000000000000000000008152506020019550505050505060405180910390a35b5b60028302600760008282540392505081905550505b6002831415611aef576000600683029050600b6000878152602001908152602001600020600401548514156119d35780600960008973ffffffffffffffffffffffffffffffffffffffff1673ffffffffffffffffffffffffffffffffffffffff16815260200190815260200160002060010160008282540192505081905550818101600660008282540392505081905550858773ffffffffffffffffffffffffffffffffffffffff167ff0f1a71001487cdd2b5333e3fe895c9deb3fd1ed644fc1563fd75591b714062a87600b60008b81526020019081526020016000206004015487866040518085815260200184815260200180602001848152602001838152602001828103825260068152602001807f506c6179657200000000000000000000000000000000000000000000000000008152506020019550505050505060405180910390a3611ada565b81600960008973ffffffffffffffffffffffffffffffffffffffff1673ffffffffffffffffffffffffffffffffffffffff16815260200190815260200160002060010160008282540392505081905550858773ffffffffffffffffffffffffffffffffffffffff167ff0f1a71001487cdd2b5333e3fe895c9deb3fd1ed644fc1563fd75591b714062a87600b60008b81526020019081526020016000206004015487886040518085815260200184815260200180602001848152602001838152602001828103825260058152602001807f486f7573650000000000000000000000000000000000000000000000000000008152506020019550505050505060405180910390a35b60068302600760008282540392505081905550505b60038314156122435760011515600a60008873ffffffffffffffffffffffffffffffffffffffff1673ffffffffffffffffffffffffffffffffffffffff16815260200190815260200160002060030160009054906101000a900460ff16151514611bc1576040517f08c379a000000000000000000000000000000000000000000000000000000000815260040180806020018281038252600f8152602001807f4d7573742062652077616974696e67000000000000000000000000000000000081525060200191505060405180910390fd5b6000801b600a60008873ffffffffffffffffffffffffffffffffffffffff1673ffffffffffffffffffffffffffffffffffffffff1681526020019081526020016000206002015411611c7b576040517f08c379a00000000000000000000000000000000000000000000000000000000081526004018080602001828103825260168152602001807f4d757374206861766520686f757365636172642069640000000000000000000081525060200191505060405180910390fd5b6000801b600a60008873ffffffffffffffffffffffffffffffffffffffff1673ffffffffffffffffffffffffffffffffffffffff168152602001908152602001600020600201819055506000600a60008873ffffffffffffffffffffffffffffffffffffffff1673ffffffffffffffffffffffffffffffffffffffff16815260200190815260200160002060030160006101000a81548160ff0219169083151502179055506000600a60008873ffffffffffffffffffffffffffffffffffffffff1673ffffffffffffffffffffffffffffffffffffffff1681526020019081526020016000206001015490506000600a60008973ffffffffffffffffffffffffffffffffffffffff1673ffffffffffffffffffffffffffffffffffffffff1681526020019081526020016000206001018190555060006001600b6000898152602001908152602001600020600401541415611dd557600190505b6000600b6000898152602001908152602001600020600401541415611df957600090505b60006002831415611e2857600115158215151415611e1c57600b85029050611e23565b6082850290505b611fd7565b6003831415611e5557600115158215151415611e4957600d85029050611e50565b6041850290505b611fd6565b6004831415611e8257600115158215151415611e7657600e85029050611e7d565b602a850290505b611fd5565b6005831415611eaf57600115158215151415611ea357601085029050611eaa565b6020850290505b611fd4565b6006831415611edc57600115158215151415611ed057601285029050611ed7565b601a850290505b611fd3565b6007831415611ef057601585029050611fd2565b6008831415611f1d57600115158215151415611f1157601a85029050611f18565b6012850290505b611fd1565b6009831415611f4a57600115158215151415611f3e57602085029050611f45565b6010850290505b611fd0565b600a831415611f7757600115158215151415611f6b57602a85029050611f72565b600e850290505b611fcf565b600b831415611fa457600115158215151415611f9857604185029050611f9f565b600d850290505b611fce565b600c831415611fcd57600115158215151415611fc557608285029050611fcc565b600b850290505b5b5b5b5b5b5b5b5b5b5b5b6000879050600a8281611fe657fe5b04915060011515831515148015611ffc57508381115b8061201657506000151583151514801561201557508381105b5b1561212e5781600960008c73ffffffffffffffffffffffffffffffffffffffff1673ffffffffffffffffffffffffffffffffffffffff16815260200190815260200160002060010160008282540192505081905550848201600660008282540392505081905550888a73ffffffffffffffffffffffffffffffffffffffff167f3f49e8a1c02bb092374df7b4bf984f5f1e89085d4745000dd2d8507511083b068684878b88604051808681526020018581526020018415151515815260200183815260200182815260200180602001828103825260068152602001807f506c617965720000000000000000000000000000000000000000000000000000815250602001965050505050505060405180910390a361222b565b84600960008c73ffffffffffffffffffffffffffffffffffffffff1673ffffffffffffffffffffffffffffffffffffffff16815260200190815260200160002060010160008282540392505081905550888a73ffffffffffffffffffffffffffffffffffffffff167f3f49e8a1c02bb092374df7b4bf984f5f1e89085d4745000dd2d8507511083b068684878b8c604051808681526020018581526020018415151515815260200183815260200182815260200180602001828103825260058152602001807f486f757365000000000000000000000000000000000000000000000000000000815250602001965050505050505060405180910390a35b600d8602600760008282540392505081905550505050505b81600960008873ffffffffffffffffffffffffffffffffffffffff1673ffffffffffffffffffffffffffffffffffffffff16815260200190815260200160002060020160008282540392505081905550505050505050565b6000809054906101000a900473ffffffffffffffffffffffffffffffffffffffff1673ffffffffffffffffffffffffffffffffffffffff163373ffffffffffffffffffffffffffffffffffffffff16146122f457600080fd5b6000600654905060006006819055503373ffffffffffffffffffffffffffffffffffffffff166108fc829081150290604051600060405180830381858888f19350505050158015612349573d6000803e3d6000fd5b506000809054906101000a900473ffffffffffffffffffffffffffffffffffffffff1673ffffffffffffffffffffffffffffffffffffffff167f9ca86e26e8d02952f920895df7583aa717e8ebc63cd0708c0879da89b9a07445826040518082815260200191505060405180910390a250565b6000809054906101000a900473ffffffffffffffffffffffffffffffffffffffff1673ffffffffffffffffffffffffffffffffffffffff163373ffffffffffffffffffffffffffffffffffffffff161461241557600080fd5b66470de4df82000080341015612493576040517f08c379a00000000000000000000000000000000000000000000000000000000081526004018080602001828103825260118152602001807f32302066696e6e6579206d696e696d756d00000000000000000000000000000081525060200191505060405180910390fd5b346006600082825401925050819055503373ffffffffffffffffffffffffffffffffffffffff167f350a7000a835544193f030ad53ca1f667390855a6373fd43a2a998c98bfbf85634600654604051808381526020018281526020019250505060405180910390a250565b600b6020528060005260406000206000915090508060000154908060010160009054906101000a900473ffffffffffffffffffffffffffffffffffffffff16908060020154908060030154908060040154908060050154908060060154905087565b60096020528060005260406000206000915090508060000160009054906101000a900473ffffffffffffffffffffffffffffffffffffffff16908060010154908060020154908060030154905084565b66038d7ea4c680008034101561262e576040517f08c379a00000000000000000000000000000000000000000000000000000000081526004018080602001828103825260108152602001807f312066696e6e6579206d696e696d756d0000000000000000000000000000000081525060200191505060405180910390fd5b612636614c55565b33816000019073ffffffffffffffffffffffffffffffffffffffff16908173ffffffffffffffffffffffffffffffffffffffff1681525050600960003373ffffffffffffffffffffffffffffffffffffffff1673ffffffffffffffffffffffffffffffffffffffff16815260200190815260200160002060010154816020018181525050600960003373ffffffffffffffffffffffffffffffffffffffff1673ffffffffffffffffffffffffffffffffffffffff16815260200190815260200160002060020154816040018181525050600960003373ffffffffffffffffffffffffffffffffffffffff1673ffffffffffffffffffffffffffffffffffffffff1681526020019081526020016000206003015481606001818152505080600960003373ffffffffffffffffffffffffffffffffffffffff1673ffffffffffffffffffffffffffffffffffffffff16815260200190815260200160002060008201518160000160006101000a81548173ffffffffffffffffffffffffffffffffffffffff021916908373ffffffffffffffffffffffffffffffffffffffff16021790555060208201518160010155604082015181600201556060820151816003015590505034600960003373ffffffffffffffffffffffffffffffffffffffff1673ffffffffffffffffffffffffffffffffffffffff168152602001908152602001600020600101600082825401925050819055503373ffffffffffffffffffffffffffffffffffffffff167f155efc6f27878074d7b21fde35c660b361cb83869a21c2409ed1a562f17e172934600960003373ffffffffffffffffffffffffffffffffffffffff1673ffffffffffffffffffffffffffffffffffffffff16815260200190815260200160002060010154604051808381526020018281526020019250505060405180910390a25050565b6000809054906101000a900473ffffffffffffffffffffffffffffffffffffffff1673ffffffffffffffffffffffffffffffffffffffff163373ffffffffffffffffffffffffffffffffffffffff161461293f57600080fd5b3373ffffffffffffffffffffffffffffffffffffffff16ff5b6000808311801561296a575060208311155b61297357600080fd5b600a84029350606060016040519080825280601f01601f1916602001820160405280156129af5781602001600182028038833980820191505090505b5090508360f81b816000815181106129c357fe5b60200101907effffffffffffffffffffffffffffffffffffffffffffffffffffffffffffff1916908160001a905350606060206040519080825280601f01601f191660200182016040528015612a285781602001600182028038833980820191505090505b509050606060206040519080825280601f01601f191660200182016040528015612a615781602001600182028038833980820191505090505b5090506000612a6e61325c565b905060208352424118600143034018602084015260208252806020830152606060206040519080825280601f01601f191660200182016040528015612ac25781602001600182028038833980820191505090505b509050886020820152606060086040519080825280601f01601f191660200182016040528015612b015781602001600182028038833980820191505090505b509050612b14826018600884600061357c565b50612b1d614c96565b60405180608001604052808781526020018881526020018681526020018481525090506000612b826040518060400160405280600681526020017f72616e646f6d0000000000000000000000000000000000000000000000000000815250838c6135db565b9050606060086040519080825280601f01601f191660200182016040528015612bba5781602001600182028038833980820191505090505b50905060208401517f0100000000000000000000000000000000000000000000000000000000000000810460278301537e01000000000000000000000000000000000000000000000000000000000000810460268301537d010000000000000000000000000000000000000000000000000000000000810460258301537c0100000000000000000000000000000000000000000000000000000000810460248301537b01000000000000000000000000000000000000000000000000000000810460238301537a010000000000000000000000000000000000000000000000000000810460228301537901000000000000000000000000000000000000000000000000008104602183015378010000000000000000000000000000000000000000000000008104602083015350612ee0828285600160048110612cf957fe5b6020020151600287600060048110612d0d57fe5b60200201516040518082805190602001908083835b60208310612d455780518252602082019150602081019050602083039250612d22565b6001836020036101000a038019825116818451168082178552505050505050905001915050602060405180830381855afa158015612d87573d6000803e3d6000fd5b5050506040513d6020811015612d9c57600080fd5b810190808051906020019092919050505087600260048110612dba57fe5b60200201516040516020018085805190602001908083835b60208310612df55780518252602082019150602081019050602083039250612dd2565b6001836020036101000a03801982511681845116808217855250505050505090500184805190602001908083835b60208310612e465780518252602082019150602081019050602083039250612e23565b6001836020036101000a03801982511681845116808217855250505050505090500183815260200182805190602001908083835b60208310612e9d5780518252602082019150602081019050602083039250612e7a565b6001836020036101000a0380198251168184511680821785525050505050509050019450505050506040516020818303038152906040528051906020012061394a565b8199505050505050505050509392505050565b60008073ffffffffffffffffffffffffffffffffffffffff16600260009054906101000a900473ffffffffffffffffffffffffffffffffffffffff1673ffffffffffffffffffffffffffffffffffffffff161480612f7b57506000612f79600260009054906101000a900473ffffffffffffffffffffffffffffffffffffffff16613966565b145b15612f8c57612f8a6000613971565b505b600260009054906101000a900473ffffffffffffffffffffffffffffffffffffffff1673ffffffffffffffffffffffffffffffffffffffff166338cc48316040518163ffffffff1660e01b8152600401602060405180830381600087803b158015612ff657600080fd5b505af115801561300a573d6000803e3d6000fd5b505050506040513d602081101561302057600080fd5b810190808051906020019092919050505073ffffffffffffffffffffffffffffffffffffffff16600160009054906101000a900473ffffffffffffffffffffffffffffffffffffffff1673ffffffffffffffffffffffffffffffffffffffff161461316b57600260009054906101000a900473ffffffffffffffffffffffffffffffffffffffff1673ffffffffffffffffffffffffffffffffffffffff166338cc48316040518163ffffffff1660e01b8152600401602060405180830381600087803b1580156130ef57600080fd5b505af1158015613103573d6000803e3d6000fd5b505050506040513d602081101561311957600080fd5b8101908080519060200190929190505050600160006101000a81548173ffffffffffffffffffffffffffffffffffffffff021916908373ffffffffffffffffffffffffffffffffffffffff1602179055505b600160009054906101000a900473ffffffffffffffffffffffffffffffffffffffff1673ffffffffffffffffffffffffffffffffffffffff1663c281d19e6040518163ffffffff1660e01b815260040160206040518083038186803b1580156131d357600080fd5b505afa1580156131e7573d6000803e3d6000fd5b505050506040513d60208110156131fd57600080fd5b8101908080519060200190929190505050905090565b60006132576040518060400160405280600581526020017f707269636500000000000000000000000000000000000000000000000000000081525062030d40613982565b905090565b60008073ffffffffffffffffffffffffffffffffffffffff16600260009054906101000a900473ffffffffffffffffffffffffffffffffffffffff1673ffffffffffffffffffffffffffffffffffffffff1614806132e4575060006132e2600260009054906101000a900473ffffffffffffffffffffffffffffffffffffffff16613966565b145b156132f5576132f36000613971565b505b600260009054906101000a900473ffffffffffffffffffffffffffffffffffffffff1673ffffffffffffffffffffffffffffffffffffffff166338cc48316040518163ffffffff1660e01b8152600401602060405180830381600087803b15801561335f57600080fd5b505af1158015613373573d6000803e3d6000fd5b505050506040513d602081101561338957600080fd5b810190808051906020019092919050505073ffffffffffffffffffffffffffffffffffffffff16600160009054906101000a900473ffffffffffffffffffffffffffffffffffffffff1673ffffffffffffffffffffffffffffffffffffffff16146134d457600260009054906101000a900473ffffffffffffffffffffffffffffffffffffffff1673ffffffffffffffffffffffffffffffffffffffff166338cc48316040518163ffffffff1660e01b8152600401602060405180830381600087803b15801561345857600080fd5b505af115801561346c573d6000803e3d6000fd5b505050506040513d602081101561348257600080fd5b8101908080519060200190929190505050600160006101000a81548173ffffffffffffffffffffffffffffffffffffffff021916908373ffffffffffffffffffffffffffffffffffffffff1602179055505b600160009054906101000a900473ffffffffffffffffffffffffffffffffffffffff1673ffffffffffffffffffffffffffffffffffffffff1663abaa5f3e6040518163ffffffff1660e01b815260040160206040518083038186803b15801561353c57600080fd5b505afa158015613550573d6000803e3d6000fd5b505050506040513d602081101561356657600080fd5b8101908080519060200190929190505050905090565b606060008285019050808451101561359357600080fd5b600086602001905060008460200190505b8688602001018210156135cc57818901518082880152506020820191506020810190506135a4565b85935050505095945050505050565b60008073ffffffffffffffffffffffffffffffffffffffff16600260009054906101000a900473ffffffffffffffffffffffffffffffffffffffff1673ffffffffffffffffffffffffffffffffffffffff16148061366357506000613661600260009054906101000a900473ffffffffffffffffffffffffffffffffffffffff16613966565b145b15613674576136726000613971565b505b600260009054906101000a900473ffffffffffffffffffffffffffffffffffffffff1673ffffffffffffffffffffffffffffffffffffffff166338cc48316040518163ffffffff1660e01b8152600401602060405180830381600087803b1580156136de57600080fd5b505af11580156136f2573d6000803e3d6000fd5b505050506040513d602081101561370857600080fd5b810190808051906020019092919050505073ffffffffffffffffffffffffffffffffffffffff16600160009054906101000a900473ffffffffffffffffffffffffffffffffffffffff1673ffffffffffffffffffffffffffffffffffffffff161461385357600260009054906101000a900473ffffffffffffffffffffffffffffffffffffffff1673ffffffffffffffffffffffffffffffffffffffff166338cc48316040518163ffffffff1660e01b8152600401602060405180830381600087803b1580156137d757600080fd5b505af11580156137eb573d6000803e3d6000fd5b505050506040513d602081101561380157600080fd5b8101908080519060200190929190505050600160006101000a81548173ffffffffffffffffffffffffffffffffffffffff021916908373ffffffffffffffffffffffffffffffffffffffff1602179055505b6060600460405190808252806020026020018201604052801561388a57816020015b60608152602001906001900390816138755790505b5090508360006004811061389a57fe5b6020020151816000815181106138ac57fe5b6020026020010181905250836001600481106138c457fe5b6020020151816001815181106138d657fe5b6020026020010181905250836002600481106138ee57fe5b60200201518160028151811061390057fe5b60200260200101819052508360036004811061391857fe5b60200201518160038151811061392a57fe5b6020026020010181905250613940858285613d1f565b9150509392505050565b8060046000848152602001908152602001600020819055505050565b6000813b9050919050565b600061397b614285565b9050919050565b60008073ffffffffffffffffffffffffffffffffffffffff16600260009054906101000a900473ffffffffffffffffffffffffffffffffffffffff1673ffffffffffffffffffffffffffffffffffffffff161480613a0a57506000613a08600260009054906101000a900473ffffffffffffffffffffffffffffffffffffffff16613966565b145b15613a1b57613a196000613971565b505b600260009054906101000a900473ffffffffffffffffffffffffffffffffffffffff1673ffffffffffffffffffffffffffffffffffffffff166338cc48316040518163ffffffff1660e01b8152600401602060405180830381600087803b158015613a8557600080fd5b505af1158015613a99573d6000803e3d6000fd5b505050506040513d6020811015613aaf57600080fd5b810190808051906020019092919050505073ffffffffffffffffffffffffffffffffffffffff16600160009054906101000a900473ffffffffffffffffffffffffffffffffffffffff1673ffffffffffffffffffffffffffffffffffffffff1614613bfa57600260009054906101000a900473ffffffffffffffffffffffffffffffffffffffff1673ffffffffffffffffffffffffffffffffffffffff166338cc48316040518163ffffffff1660e01b8152600401602060405180830381600087803b158015613b7e57600080fd5b505af1158015613b92573d6000803e3d6000fd5b505050506040513d6020811015613ba857600080fd5b8101908080519060200190929190505050600160006101000a81548173ffffffffffffffffffffffffffffffffffffffff021916908373ffffffffffffffffffffffffffffffffffffffff1602179055505b600160009054906101000a900473ffffffffffffffffffffffffffffffffffffffff1673ffffffffffffffffffffffffffffffffffffffff16632ef3accc84846040518363ffffffff1660e01b81526004018080602001838152602001828103825284818151815260200191508051906020019080838360005b83811015613c8f578082015181840152602081019050613c74565b50505050905090810190601f168015613cbc5780820380516001836020036101000a031916815260200191505b509350505050602060405180830381600087803b158015613cdc57600080fd5b505af1158015613cf0573d6000803e3d6000fd5b505050506040513d6020811015613d0657600080fd5b8101908080519060200190929190505050905092915050565b60008073ffffffffffffffffffffffffffffffffffffffff16600260009054906101000a900473ffffffffffffffffffffffffffffffffffffffff1673ffffffffffffffffffffffffffffffffffffffff161480613da757506000613da5600260009054906101000a900473ffffffffffffffffffffffffffffffffffffffff16613966565b145b15613db857613db66000613971565b505b600260009054906101000a900473ffffffffffffffffffffffffffffffffffffffff1673ffffffffffffffffffffffffffffffffffffffff166338cc48316040518163ffffffff1660e01b8152600401602060405180830381600087803b158015613e2257600080fd5b505af1158015613e36573d6000803e3d6000fd5b505050506040513d6020811015613e4c57600080fd5b810190808051906020019092919050505073ffffffffffffffffffffffffffffffffffffffff16600160009054906101000a900473ffffffffffffffffffffffffffffffffffffffff1673ffffffffffffffffffffffffffffffffffffffff1614613f9757600260009054906101000a900473ffffffffffffffffffffffffffffffffffffffff1673ffffffffffffffffffffffffffffffffffffffff166338cc48316040518163ffffffff1660e01b8152600401602060405180830381600087803b158015613f1b57600080fd5b505af1158015613f2f573d6000803e3d6000fd5b505050506040513d6020811015613f4557600080fd5b8101908080519060200190929190505050600160006101000a81548173ffffffffffffffffffffffffffffffffffffffff021916908373ffffffffffffffffffffffffffffffffffffffff1602179055505b6000600160009054906101000a900473ffffffffffffffffffffffffffffffffffffffff1673ffffffffffffffffffffffffffffffffffffffff16632ef3accc86856040518363ffffffff1660e01b81526004018080602001838152602001828103825284818151815260200191508051906020019080838360005b8381101561402e578082015181840152602081019050614013565b50505050905090810190601f16801561405b5780820380516001836020036101000a031916815260200191505b509350505050602060405180830381600087803b15801561407b57600080fd5b505af115801561408f573d6000803e3d6000fd5b505050506040513d60208110156140a557600080fd5b81019080805190602001909291905050509050823a02670de0b6b3a7640000018111156140d8576000801b91505061427e565b60606140e3856147dc565b9050600160009054906101000a900473ffffffffffffffffffffffffffffffffffffffff1673ffffffffffffffffffffffffffffffffffffffff1663c55c1cb68360008985896040518663ffffffff1660e01b8152600401808581526020018060200180602001848152602001838103835286818151815260200191508051906020019080838360005b8381101561418857808201518184015260208101905061416d565b50505050905090810190601f1680156141b55780820380516001836020036101000a031916815260200191505b50838103825285818151815260200191508051906020019080838360005b838110156141ee5780820151818401526020810190506141d3565b50505050905090810190601f16801561421b5780820380516001836020036101000a031916815260200191505b5096505050505050506020604051808303818588803b15801561423d57600080fd5b505af1158015614251573d6000803e3d6000fd5b50505050506040513d602081101561426857600080fd5b8101908080519060200190929190505050925050505b9392505050565b6000806142a5731d3b2638a7cc9f2cb3d298a3da7a90b67e5506ed613966565b111561434757731d3b2638a7cc9f2cb3d298a3da7a90b67e5506ed600260006101000a81548173ffffffffffffffffffffffffffffffffffffffff021916908373ffffffffffffffffffffffffffffffffffffffff16021790555061433e6040518060400160405280600b81526020017f6574685f6d61696e6e657400000000000000000000000000000000000000000081525061485c565b600190506147d9565b600061436673c03a2615d5efaf5f49f60b7bb6583eaec212fdf1613966565b11156144085773c03a2615d5efaf5f49f60b7bb6583eaec212fdf1600260006101000a81548173ffffffffffffffffffffffffffffffffffffffff021916908373ffffffffffffffffffffffffffffffffffffffff1602179055506143ff6040518060400160405280600c81526020017f6574685f726f707374656e33000000000000000000000000000000000000000081525061485c565b600190506147d9565b600061442773b7a07bcf2ba2f2703b24c0691b5278999c59ac7e613966565b11156144c95773b7a07bcf2ba2f2703b24c0691b5278999c59ac7e600260006101000a81548173ffffffffffffffffffffffffffffffffffffffff021916908373ffffffffffffffffffffffffffffffffffffffff1602179055506144c06040518060400160405280600981526020017f6574685f6b6f76616e000000000000000000000000000000000000000000000081525061485c565b600190506147d9565b60006144e873146500cfd35b22e4a392fe0adc06de1a1368ed48613966565b111561458a5773146500cfd35b22e4a392fe0adc06de1a1368ed48600260006101000a81548173ffffffffffffffffffffffffffffffffffffffff021916908373ffffffffffffffffffffffffffffffffffffffff1602179055506145816040518060400160405280600b81526020017f6574685f72696e6b65627900000000000000000000000000000000000000000081525061485c565b600190506147d9565b60006145a973a2998efd205fb9d4b4963afb70778d6354ad3a41613966565b111561464b5773a2998efd205fb9d4b4963afb70778d6354ad3a41600260006101000a81548173ffffffffffffffffffffffffffffffffffffffff021916908373ffffffffffffffffffffffffffffffffffffffff1602179055506146426040518060400160405280600a81526020017f6574685f676f65726c690000000000000000000000000000000000000000000081525061485c565b600190506147d9565b600061466a736f485c8bf6fc43ea212e93bbf8ce046c7f1cb475613966565b11156146ce57736f485c8bf6fc43ea212e93bbf8ce046c7f1cb475600260006101000a81548173ffffffffffffffffffffffffffffffffffffffff021916908373ffffffffffffffffffffffffffffffffffffffff160217905550600190506147d9565b60006146ed7320e12a1f859b3feae5fb2a0a32c18f5a65555bbf613966565b1115614751577320e12a1f859b3feae5fb2a0a32c18f5a65555bbf600260006101000a81548173ffffffffffffffffffffffffffffffffffffffff021916908373ffffffffffffffffffffffffffffffffffffffff160217905550600190506147d9565b60006147707351efaf4c8b3c9afbd5ab9f4bbc82784ab6ef8faa613966565b11156147d4577351efaf4c8b3c9afbd5ab9f4bbc82784ab6ef8faa600260006101000a81548173ffffffffffffffffffffffffffffffffffffffff021916908373ffffffffffffffffffffffffffffffffffffffff160217905550600190506147d9565b600090505b90565b60606147e6614876565b6147ee614cbd565b6147fa81610400614882565b614803816148cc565b60008090505b83518110156148455761483884828151811061482157fe5b6020026020010151836148da90919063ffffffff16565b8080600101915050614809565b5061484f816148ff565b8060000151915050919050565b8060039080519060200190614872929190614cd7565b5050565b60405180590338823950565b600081905060006020828161489357fe5b06146148ac57602081816148a357fe5b06602003810190505b808360200181815250506040518084526000815281810160405250505050565b6148d781600461490d565b50565b6148e7826002835161492e565b6148fa8183614a6e90919063ffffffff16565b505050565b61490a81600761490d565b50565b61492a601f60058360ff16901b1783614b1990919063ffffffff16565b5050565b6017811161495a576149558160058460ff16901b60ff161784614b1990919063ffffffff16565b614a69565b60ff811161499b5761497f601860058460ff16901b1784614b1990919063ffffffff16565b61499581600185614b599092919063ffffffff16565b50614a68565b61ffff81116149dd576149c1601960058460ff16901b1784614b1990919063ffffffff16565b6149d781600285614b599092919063ffffffff16565b50614a67565b63ffffffff8111614a2157614a05601a60058460ff16901b1784614b1990919063ffffffff16565b614a1b81600485614b599092919063ffffffff16565b50614a66565b67ffffffffffffffff8111614a6557614a4d601b60058460ff16901b1784614b1990919063ffffffff16565b614a6381600885614b599092919063ffffffff16565b505b5b5b5b5b505050565b614a76614cbd565b82602001518360000151518351011115614aa657614aa5836002614a9f86602001518651614bc0565b02614bdc565b5b60008060008451905085518051602081830101945086518101825260208701935050505b60208110614aed5781518352602083019250602082019150602081039050614aca565b60006001826020036101000a039050801983511681855116818117865250508694505050505092915050565b81602001516001836000015151011115614b3f57614b3e826002846020015102614bdc565b5b815180516020818301018381536001820183525050505050565b614b61614cbd565b836020015184600001515183011115614b8f57614b8e846002614b88876020015186614bc0565b02614bdc565b5b60006001836101000a0390508451805184818301018684198251161781528582018352505050849150509392505050565b600081831115614bd257829050614bd6565b8190505b92915050565b606082600001519050614bef8383614882565b614bf98382614a6e565b50505050565b6040518060e0016040528060008019168152602001600073ffffffffffffffffffffffffffffffffffffffff16815260200160008152602001600081526020016000815260200160008152602001600081525090565b6040518060800160405280600073ffffffffffffffffffffffffffffffffffffffff1681526020016000815260200160008152602001600080191681525090565b60405180608001604052806004905b6060815260200190600190039081614ca55790505090565b604051806040016040528060608152602001600081525090565b828054600181600116156101000203166002900490600052602060002090601f016020900481019282601f10614d1857805160ff1916838001178555614d46565b82800160010185558215614d46579182015b82811115614d45578251825591602001919060010190614d2a565b5b509050614d539190614d57565b5090565b614d7991905b80821115614d75576000816000905550600101614d5d565b5090565b9056fe4d7573742073656c656374204865616473206f72205461696c7320746f20626574a265627a7a72315820adc458921014b91f571600ee0918f605b318aed54a66cf7df06d8a14d695606c64736f6c634300050c0032",
  "source": "import \"./Ownable.sol\";\r\nimport \"./Destroyable.sol\";\r\nimport \"./provableAPI.sol\";\r\nimport \"./Accountable.sol\";\r\nimport \"./Winnable.sol\";\r\nimport \"./Randomised.sol\";\r\n\r\npragma solidity 0.5.12;\r\n\r\ncontract FlipOut is Ownable, Destroyable, usingProvable, Accountable, Winnable, Randomised {\r\n\r\n    function flipIt(uint256 amountToBet, uint256 betChoice) public {\r\n\r\n        require(amountToBet >= 1, \"Must bet something\");\r\n        require(betChoice == 1 || betChoice == 0, \"Must select Heads or Tails to bet\");\r\n\r\n        uint256 betAmount = amountToBet * 1e15;         //takes integer and turns it into finney amount\r\n        uint256 queryPrice = getQueryPrice();\r\n\r\n        require(punters[msg.sender].balance - punters[msg.sender].pendingBets >= betAmount + queryPrice, \"Not enough liquidity\");\r\n        require(contractBalance - pendingPayouts >= (betAmount * 2) + queryPrice, \"Contract cannot cover bet\");\r\n\r\n        //instead of deducting from contract and player balances at start of bet, it is all handled at the end of the bet\r\n        //to ensure both the contract and player have enough liquidity to cover all bets (in the case of starting new bets while other bets are pending)\r\n        //the pending bet balances are included in the require statements above that check that there are enough funds to initiate a bet\r\n\r\n        pendingPayouts += ((betAmount * 2) + queryPrice);        //maximum payout amount ( + queryPrice) for this game is added to contract's pending bet balances, which is checked against all incoming bets\r\n        punters[msg.sender].pendingBets += (betAmount + queryPrice);       //betAmount ( + queryPrice) added to player's pending bets and deducted at conclusion of bet\r\n\r\n        requestNumber(msg.sender, 1, betAmount, betChoice, queryPrice);         //requestNumber function is in Randomised contract\r\n    }\r\n\r\n\r\n}\r\n",
  "sourcePath": "D:\\Justin\\Documents\\Justin\\Ethereum\\blockPunt\\contracts\\FlipOut.sol",
  "compiler": {
    "name": "solc",
    "version": "0.5.12+commit.7709ece9.Emscripten.clang"
  },
  "schemaVersion": "3.0.16",
  "updatedAt": "2020-10-24T08:19:39.084Z",
  "devdoc": {
    "methods": {}
  },
  "userdoc": {
    "methods": {}
  }
}