{
  "contractName": "Randomised",
  "abi": [
    {
      "anonymous": false,
      "inputs": [
        {
          "indexed": true,
          "internalType": "address",
          "name": "player",
          "type": "address"
        },
        {
          "indexed": true,
          "internalType": "bytes32",
          "name": "queryId",
          "type": "bytes32"
        },
        {
          "indexed": false,
          "internalType": "uint256",
          "name": "amountBet",
          "type": "uint256"
        },
        {
          "indexed": false,
          "internalType": "uint256",
          "name": "balanceBeforeBet",
          "type": "uint256"
        }
      ],
      "name": "BetPlaced",
      "type": "event"
    },
    {
      "anonymous": false,
      "inputs": [
        {
          "indexed": true,
          "internalType": "address",
          "name": "toAccount",
          "type": "address"
        },
        {
          "indexed": false,
          "internalType": "uint256",
          "name": "amountWithdrawn",
          "type": "uint256"
        }
      ],
      "name": "ContractBalanceWithdrawn",
      "type": "event"
    },
    {
      "anonymous": false,
      "inputs": [
        {
          "indexed": true,
          "internalType": "address",
          "name": "fromAccount",
          "type": "address"
        },
        {
          "indexed": false,
          "internalType": "uint256",
          "name": "amountDeposited",
          "type": "uint256"
        },
        {
          "indexed": false,
          "internalType": "uint256",
          "name": "newBalance",
          "type": "uint256"
        }
      ],
      "name": "ContractDepositMade",
      "type": "event"
    },
    {
      "anonymous": false,
      "inputs": [
        {
          "indexed": true,
          "internalType": "address",
          "name": "player",
          "type": "address"
        },
        {
          "indexed": true,
          "internalType": "bytes32",
          "name": "queryId",
          "type": "bytes32"
        },
        {
          "indexed": false,
          "internalType": "uint256",
          "name": "houseCard",
          "type": "uint256"
        },
        {
          "indexed": false,
          "internalType": "uint256",
          "name": "userCard",
          "type": "uint256"
        },
        {
          "indexed": false,
          "internalType": "bool",
          "name": "choseHigher",
          "type": "bool"
        },
        {
          "indexed": false,
          "internalType": "uint256",
          "name": "betAmount",
          "type": "uint256"
        },
        {
          "indexed": false,
          "internalType": "uint256",
          "name": "payOutAmount",
          "type": "uint256"
        },
        {
          "indexed": false,
          "internalType": "string",
          "name": "winner",
          "type": "string"
        }
      ],
      "name": "DrawOutResults",
      "type": "event"
    },
    {
      "anonymous": false,
      "inputs": [
        {
          "indexed": true,
          "internalType": "address",
          "name": "player",
          "type": "address"
        },
        {
          "indexed": true,
          "internalType": "bytes32",
          "name": "queryId",
          "type": "bytes32"
        },
        {
          "indexed": false,
          "internalType": "uint256",
          "name": "latestNumber",
          "type": "uint256"
        },
        {
          "indexed": false,
          "internalType": "uint256",
          "name": "Heads1orTails0",
          "type": "uint256"
        }
      ],
      "name": "FlipNumberReceived",
      "type": "event"
    },
    {
      "anonymous": false,
      "inputs": [
        {
          "indexed": true,
          "internalType": "address",
          "name": "player",
          "type": "address"
        },
        {
          "indexed": true,
          "internalType": "bytes32",
          "name": "queryId",
          "type": "bytes32"
        },
        {
          "indexed": false,
          "internalType": "string",
          "name": "flipResult",
          "type": "string"
        },
        {
          "indexed": false,
          "internalType": "string",
          "name": "choice",
          "type": "string"
        },
        {
          "indexed": false,
          "internalType": "string",
          "name": "winner",
          "type": "string"
        },
        {
          "indexed": false,
          "internalType": "uint256",
          "name": "betAmount",
          "type": "uint256"
        },
        {
          "indexed": false,
          "internalType": "uint256",
          "name": "payOutAmount",
          "type": "uint256"
        }
      ],
      "name": "FlipOutResults",
      "type": "event"
    },
    {
      "anonymous": false,
      "inputs": [
        {
          "indexed": true,
          "internalType": "address",
          "name": "player",
          "type": "address"
        },
        {
          "indexed": false,
          "internalType": "uint256",
          "name": "latestNumber",
          "type": "uint256"
        },
        {
          "indexed": false,
          "internalType": "uint256",
          "name": "houseCard",
          "type": "uint256"
        }
      ],
      "name": "HouseCard_Received",
      "type": "event"
    },
    {
      "anonymous": false,
      "inputs": [
        {
          "indexed": true,
          "internalType": "address",
          "name": "toAccount",
          "type": "address"
        },
        {
          "indexed": false,
          "internalType": "uint256",
          "name": "amountWithdrawn",
          "type": "uint256"
        }
      ],
      "name": "PlayerFundsWithdrawn",
      "type": "event"
    },
    {
      "anonymous": false,
      "inputs": [
        {
          "indexed": true,
          "internalType": "address",
          "name": "player",
          "type": "address"
        },
        {
          "indexed": true,
          "internalType": "bytes32",
          "name": "queryId",
          "type": "bytes32"
        },
        {
          "indexed": false,
          "internalType": "uint256",
          "name": "latestNumber",
          "type": "uint256"
        },
        {
          "indexed": false,
          "internalType": "uint256",
          "name": "diceNumber",
          "type": "uint256"
        }
      ],
      "name": "RollNumberReceived",
      "type": "event"
    },
    {
      "anonymous": false,
      "inputs": [
        {
          "indexed": true,
          "internalType": "address",
          "name": "player",
          "type": "address"
        },
        {
          "indexed": true,
          "internalType": "bytes32",
          "name": "queryId",
          "type": "bytes32"
        },
        {
          "indexed": false,
          "internalType": "uint256",
          "name": "rollResult",
          "type": "uint256"
        },
        {
          "indexed": false,
          "internalType": "uint256",
          "name": "choice",
          "type": "uint256"
        },
        {
          "indexed": false,
          "internalType": "string",
          "name": "winner",
          "type": "string"
        },
        {
          "indexed": false,
          "internalType": "uint256",
          "name": "betAmount",
          "type": "uint256"
        },
        {
          "indexed": false,
          "internalType": "uint256",
          "name": "payOutAmount",
          "type": "uint256"
        }
      ],
      "name": "RollOutResults",
      "type": "event"
    },
    {
      "anonymous": false,
      "inputs": [
        {
          "indexed": true,
          "internalType": "address",
          "name": "player",
          "type": "address"
        },
        {
          "indexed": true,
          "internalType": "bytes32",
          "name": "queryId",
          "type": "bytes32"
        },
        {
          "indexed": false,
          "internalType": "uint256",
          "name": "latestNumber",
          "type": "uint256"
        },
        {
          "indexed": false,
          "internalType": "uint256",
          "name": "userCard",
          "type": "uint256"
        }
      ],
      "name": "UserCard_Received",
      "type": "event"
    },
    {
      "anonymous": false,
      "inputs": [
        {
          "indexed": true,
          "internalType": "address",
          "name": "fromAccount",
          "type": "address"
        },
        {
          "indexed": false,
          "internalType": "uint256",
          "name": "amountDeposited",
          "type": "uint256"
        },
        {
          "indexed": false,
          "internalType": "uint256",
          "name": "newBalance",
          "type": "uint256"
        }
      ],
      "name": "UserDepositMade",
      "type": "event"
    },
    {
      "constant": false,
      "inputs": [],
      "name": "Destroy",
      "outputs": [],
      "payable": false,
      "stateMutability": "nonpayable",
      "type": "function"
    },
    {
      "constant": false,
      "inputs": [],
      "name": "addBettingFunds",
      "outputs": [],
      "payable": true,
      "stateMutability": "payable",
      "type": "function"
    },
    {
      "constant": true,
      "inputs": [
        {
          "internalType": "bytes32",
          "name": "",
          "type": "bytes32"
        }
      ],
      "name": "bets",
      "outputs": [
        {
          "internalType": "bytes32",
          "name": "id",
          "type": "bytes32"
        },
        {
          "internalType": "address",
          "name": "player",
          "type": "address"
        },
        {
          "internalType": "uint256",
          "name": "gameRef",
          "type": "uint256"
        },
        {
          "internalType": "uint256",
          "name": "betAmount",
          "type": "uint256"
        },
        {
          "internalType": "uint256",
          "name": "choice",
          "type": "uint256"
        },
        {
          "internalType": "uint256",
          "name": "queryPrice",
          "type": "uint256"
        },
        {
          "internalType": "uint256",
          "name": "result",
          "type": "uint256"
        }
      ],
      "payable": false,
      "stateMutability": "view",
      "type": "function"
    },
    {
      "constant": true,
      "inputs": [
        {
          "internalType": "address",
          "name": "",
          "type": "address"
        }
      ],
      "name": "cards",
      "outputs": [
        {
          "internalType": "address",
          "name": "user",
          "type": "address"
        },
        {
          "internalType": "uint256",
          "name": "houseCard",
          "type": "uint256"
        },
        {
          "internalType": "bytes32",
          "name": "cardId",
          "type": "bytes32"
        },
        {
          "internalType": "bool",
          "name": "waiting",
          "type": "bool"
        }
      ],
      "payable": false,
      "stateMutability": "view",
      "type": "function"
    },
    {
      "constant": false,
      "inputs": [],
      "name": "depositToContract",
      "outputs": [],
      "payable": true,
      "stateMutability": "payable",
      "type": "function"
    },
    {
      "constant": true,
      "inputs": [],
      "name": "freeCallBack",
      "outputs": [
        {
          "internalType": "bool",
          "name": "",
          "type": "bool"
        }
      ],
      "payable": false,
      "stateMutability": "view",
      "type": "function"
    },
    {
      "constant": true,
      "inputs": [],
      "name": "owner",
      "outputs": [
        {
          "internalType": "address",
          "name": "",
          "type": "address"
        }
      ],
      "payable": false,
      "stateMutability": "view",
      "type": "function"
    },
    {
      "constant": false,
      "inputs": [
        {
          "internalType": "address",
          "name": "punter",
          "type": "address"
        },
        {
          "internalType": "bytes32",
          "name": "query_id",
          "type": "bytes32"
        },
        {
          "internalType": "uint256",
          "name": "result",
          "type": "uint256"
        },
        {
          "internalType": "uint256",
          "name": "game",
          "type": "uint256"
        }
      ],
      "name": "payOut",
      "outputs": [],
      "payable": false,
      "stateMutability": "nonpayable",
      "type": "function"
    },
    {
      "constant": true,
      "inputs": [
        {
          "internalType": "address",
          "name": "",
          "type": "address"
        }
      ],
      "name": "punters",
      "outputs": [
        {
          "internalType": "address",
          "name": "playerAddress",
          "type": "address"
        },
        {
          "internalType": "uint256",
          "name": "balance",
          "type": "uint256"
        },
        {
          "internalType": "uint256",
          "name": "pendingBets",
          "type": "uint256"
        },
        {
          "internalType": "bytes32",
          "name": "latestQueryId",
          "type": "bytes32"
        }
      ],
      "payable": false,
      "stateMutability": "view",
      "type": "function"
    },
    {
      "constant": false,
      "inputs": [],
      "name": "withdrawBettingFunds",
      "outputs": [],
      "payable": false,
      "stateMutability": "nonpayable",
      "type": "function"
    },
    {
      "constant": false,
      "inputs": [],
      "name": "withdrawContractBalance",
      "outputs": [],
      "payable": false,
      "stateMutability": "nonpayable",
      "type": "function"
    },
    {
      "constant": false,
      "inputs": [
        {
          "internalType": "bytes32",
          "name": "_queryId",
          "type": "bytes32"
        },
        {
          "internalType": "string",
          "name": "_result",
          "type": "string"
        }
      ],
      "name": "__callback",
      "outputs": [],
      "payable": false,
      "stateMutability": "nonpayable",
      "type": "function"
    },
    {
      "constant": false,
      "inputs": [
        {
          "internalType": "bytes32",
          "name": "_myid",
          "type": "bytes32"
        },
        {
          "internalType": "string",
          "name": "_result",
          "type": "string"
        },
        {
          "internalType": "bytes",
          "name": "_proof",
          "type": "bytes"
        }
      ],
      "name": "__callback",
      "outputs": [],
      "payable": false,
      "stateMutability": "nonpayable",
      "type": "function"
    },
    {
      "constant": false,
      "inputs": [
        {
          "internalType": "address",
          "name": "punter",
          "type": "address"
        },
        {
          "internalType": "uint256",
          "name": "gameRef",
          "type": "uint256"
        },
        {
          "internalType": "uint256",
          "name": "betAmount",
          "type": "uint256"
        },
        {
          "internalType": "uint256",
          "name": "choice",
          "type": "uint256"
        },
        {
          "internalType": "uint256",
          "name": "query_price",
          "type": "uint256"
        }
      ],
      "name": "requestNumber",
      "outputs": [],
      "payable": true,
      "stateMutability": "payable",
      "type": "function"
    }
  ],
  "bytecode": "0x60806040526001600860006101000a81548160ff021916908315150217905550336000806101000a81548173ffffffffffffffffffffffffffffffffffffffff021916908373ffffffffffffffffffffffffffffffffffffffff16021790555061468c8061006e6000396000f3fe6080604052600436106100dd5760003560e01c80639745cd1f1161007f578063c902c3ae11610059578063c902c3ae14610560578063cafc419f14610605578063df11460e146106ab578063f58fef8e146106b5576100dd565b80639745cd1f146104d0578063bfab3db91461053f578063c8f781c214610556576100dd565b806327dc297e116100bb57806327dc297e1461019457806338bbfa501461026657806370908f21146103cf5780638da5cb5b14610479576100dd565b80630eee99cf146100e25780631a1cc0a5146100f95780631b76946614610128575b600080fd5b3480156100ee57600080fd5b506100f76106cc565b005b34801561010557600080fd5b5061010e6108ab565b604051808215151515815260200191505060405180910390f35b610192600480360360a081101561013e57600080fd5b81019080803573ffffffffffffffffffffffffffffffffffffffff169060200190929190803590602001909291908035906020019092919080359060200190929190803590602001909291905050506108be565b005b3480156101a057600080fd5b50610264600480360360408110156101b757600080fd5b8101908080359060200190929190803590602001906401000000008111156101de57600080fd5b8201836020820111156101f057600080fd5b8035906020019184600183028401116401000000008311171561021257600080fd5b91908080601f016020809104026020016040519081016040528093929190818152602001838380828437600081840152601f19601f820116905080830192505050505050509192919290505050610add565b005b34801561027257600080fd5b506103cd6004803603606081101561028957600080fd5b8101908080359060200190929190803590602001906401000000008111156102b057600080fd5b8201836020820111156102c257600080fd5b803590602001918460018302840111640100000000831117156102e457600080fd5b91908080601f016020809104026020016040519081016040528093929190818152602001838380828437600081840152601f19601f8201169050808301925050505050505091929192908035906020019064010000000081111561034757600080fd5b82018360208201111561035957600080fd5b8035906020019184600183028401116401000000008311171561037b57600080fd5b91908080601f016020809104026020016040519081016040528093929190818152602001838380828437600081840152601f19601f820116905080830192505050505050509192919290505050610eeb565b005b3480156103db57600080fd5b5061041e600480360360208110156103f257600080fd5b81019080803573ffffffffffffffffffffffffffffffffffffffff169060200190929190505050610f0e565b604051808573ffffffffffffffffffffffffffffffffffffffff1673ffffffffffffffffffffffffffffffffffffffff1681526020018481526020018381526020018215151515815260200194505050505060405180910390f35b34801561048557600080fd5b5061048e610f6b565b604051808273ffffffffffffffffffffffffffffffffffffffff1673ffffffffffffffffffffffffffffffffffffffff16815260200191505060405180910390f35b3480156104dc57600080fd5b5061053d600480360360808110156104f357600080fd5b81019080803573ffffffffffffffffffffffffffffffffffffffff169060200190929190803590602001909291908035906020019092919080359060200190929190505050610f90565b005b34801561054b57600080fd5b50610554611f5c565b005b61055e61207d565b005b34801561056c57600080fd5b506105996004803603602081101561058357600080fd5b81019080803590602001909291905050506121bf565b604051808881526020018773ffffffffffffffffffffffffffffffffffffffff1673ffffffffffffffffffffffffffffffffffffffff16815260200186815260200185815260200184815260200183815260200182815260200197505050505050505060405180910390f35b34801561061157600080fd5b506106546004803603602081101561062857600080fd5b81019080803573ffffffffffffffffffffffffffffffffffffffff169060200190929190505050612221565b604051808573ffffffffffffffffffffffffffffffffffffffff1673ffffffffffffffffffffffffffffffffffffffff16815260200184815260200183815260200182815260200194505050505060405180910390f35b6106b3612271565b005b3480156106c157600080fd5b506106ca6125a7565b005b6000600960003373ffffffffffffffffffffffffffffffffffffffff1673ffffffffffffffffffffffffffffffffffffffff1681526020019081526020016000206001015411610784576040517f08c379a00000000000000000000000000000000000000000000000000000000081526004018080602001828103825260118152602001807f43616e6e6f74207769746864726177203000000000000000000000000000000081525060200191505060405180910390fd5b6000600960003373ffffffffffffffffffffffffffffffffffffffff1673ffffffffffffffffffffffffffffffffffffffff1681526020019081526020016000206001015490506000600960003373ffffffffffffffffffffffffffffffffffffffff1673ffffffffffffffffffffffffffffffffffffffff168152602001908152602001600020600101819055503373ffffffffffffffffffffffffffffffffffffffff166108fc829081150290604051600060405180830381858888f19350505050158015610859573d6000803e3d6000fd5b503373ffffffffffffffffffffffffffffffffffffffff167fdc13ef7ce79641e7f89a0adb1f73831b0832805639eefe811c8173e09751306d826040518082815260200191505060405180910390a250565b600860009054906101000a900460ff1681565b6000801515600860009054906101000a900460ff16151514156108e357819050610903565b600090506000600860006101000a81548160ff0219169083151502179055505b6000809050600061091982600162030d40612619565b90506109236144da565b8181600001818152505088816020019073ffffffffffffffffffffffffffffffffffffffff16908173ffffffffffffffffffffffffffffffffffffffff1681525050878160400181815250508681606001818152505085816080018181525050838160a00181815250508060c001515080600b60008481526020019081526020016000206000820151816000015560208201518160010160006101000a81548173ffffffffffffffffffffffffffffffffffffffff021916908373ffffffffffffffffffffffffffffffffffffffff16021790555060408201518160020155606082015181600301556080820151816004015560a0820151816005015560c0820151816006015590505080600001518973ffffffffffffffffffffffffffffffffffffffff167f680397c45077ee300a8ffc23b8df8f67de5ada41abab7430a35945e03c283cb3836060015160096000866020015173ffffffffffffffffffffffffffffffffffffffff1673ffffffffffffffffffffffffffffffffffffffff16815260200190815260200160002060010154604051808381526020018281526020019250505060405180910390a3505050505050505050565b610ae5612bb4565b73ffffffffffffffffffffffffffffffffffffffff163373ffffffffffffffffffffffffffffffffffffffff1614610b1c57600080fd5b6000600b600084815260200190815260200160002060010160009054906101000a900473ffffffffffffffffffffffffffffffffffffffff16905082600960008373ffffffffffffffffffffffffffffffffffffffff1673ffffffffffffffffffffffffffffffffffffffff168152602001908152602001600020600301819055506000826040516020018082805190602001908083835b60208310610bd75780518252602082019150602081019050602083039250610bb4565b6001836020036101000a0380198251168184511680821785525050505050509050019150506040516020818303038152906040528051906020012060001c90506001600b6000868152602001908152602001600020600201541415610d055760028181610c4057fe5b06600b600086815260200190815260200160002060060181905550610c938285600b600088815260200190815260200160002060060154600b600089815260200190815260200160002060020154610f90565b838273ffffffffffffffffffffffffffffffffffffffff167f3e0b428f99f88317a267eb30f49f168a7d82cb56220b5e3c4ebfba8c71c4dfca83600b600089815260200190815260200160002060060154604051808381526020018281526020019250505060405180910390a3610ee5565b6002600b6000868152602001908152602001600020600201541415610df657600160068281610d3057fe5b0601600b600086815260200190815260200160002060060181905550610d848285600b600088815260200190815260200160002060060154600b600089815260200190815260200160002060020154610f90565b838273ffffffffffffffffffffffffffffffffffffffff167f4abcbda462a94726d98871d89dc3d68df4c87af956c88bff9e26eb6fd8f8d24983600b600089815260200190815260200160002060060154604051808381526020018281526020019250505060405180910390a3610ee4565b6003600b6000868152602001908152602001600020600201541415610ee3576001600d8281610e2157fe5b0601600b600086815260200190815260200160002060060181905550610e758285600b600088815260200190815260200160002060060154600b600089815260200190815260200160002060020154610f90565b838273ffffffffffffffffffffffffffffffffffffffff167f10426ca2b14c787eb34a20cb459b266c77e6c79ac3eedb0972e4bbf26510ffc783600b600089815260200190815260200160002060060154604051808381526020018281526020019250505060405180910390a35b5b5b50505050565b6000801b600460008060001b815260200190815260200160002081905550505050565b600a6020528060005260406000206000915090508060000160009054906101000a900473ffffffffffffffffffffffffffffffffffffffff16908060010154908060020154908060030160009054906101000a900460ff16905084565b6000809054906101000a900473ffffffffffffffffffffffffffffffffffffffff1681565b6000600b60008581526020019081526020016000206003015490506000600b60008681526020019081526020016000206005015490508160066000828254019250508190555081600960008873ffffffffffffffffffffffffffffffffffffffff1673ffffffffffffffffffffffffffffffffffffffff168152602001908152602001600020600101600082825403925050819055506001831415611548576000600283029050600b6000878152602001908152602001600020600401548514156112cf5780600960008973ffffffffffffffffffffffffffffffffffffffff1673ffffffffffffffffffffffffffffffffffffffff1681526020019081526020016000206001016000828254019250508190555081810160066000828254039250508190555060018514156111c757858773ffffffffffffffffffffffffffffffffffffffff167f0c9a151e6d7e4ad0bcfa7a62050b282805d04c54e59654db19dbadd7cb377a9c858460405180806020018060200180602001868152602001858152602001848103845260058152602001807f4865616473000000000000000000000000000000000000000000000000000000815250602001848103835260058152602001807f4865616473000000000000000000000000000000000000000000000000000000815250602001848103825260068152602001807f506c6179657200000000000000000000000000000000000000000000000000008152506020019550505050505060405180910390a36112ca565b858773ffffffffffffffffffffffffffffffffffffffff167f0c9a151e6d7e4ad0bcfa7a62050b282805d04c54e59654db19dbadd7cb377a9c858460405180806020018060200180602001868152602001858152602001848103845260058152602001807f5461696c73000000000000000000000000000000000000000000000000000000815250602001848103835260058152602001807f5461696c73000000000000000000000000000000000000000000000000000000815250602001848103825260068152602001807f506c6179657200000000000000000000000000000000000000000000000000008152506020019550505050505060405180910390a35b611533565b81600960008973ffffffffffffffffffffffffffffffffffffffff1673ffffffffffffffffffffffffffffffffffffffff16815260200190815260200160002060010160008282540392505081905550600185141561142f57858773ffffffffffffffffffffffffffffffffffffffff167f0c9a151e6d7e4ad0bcfa7a62050b282805d04c54e59654db19dbadd7cb377a9c858660405180806020018060200180602001868152602001858152602001848103845260058152602001807f4865616473000000000000000000000000000000000000000000000000000000815250602001848103835260058152602001807f5461696c73000000000000000000000000000000000000000000000000000000815250602001848103825260058152602001807f486f7573650000000000000000000000000000000000000000000000000000008152506020019550505050505060405180910390a3611532565b858773ffffffffffffffffffffffffffffffffffffffff167f0c9a151e6d7e4ad0bcfa7a62050b282805d04c54e59654db19dbadd7cb377a9c858660405180806020018060200180602001868152602001858152602001848103845260058152602001807f5461696c73000000000000000000000000000000000000000000000000000000815250602001848103835260058152602001807f4865616473000000000000000000000000000000000000000000000000000000815250602001848103825260058152602001807f486f7573650000000000000000000000000000000000000000000000000000008152506020019550505050505060405180910390a35b5b60028302600760008282540392505081905550505b60028314156117b0576000600683029050600b6000878152602001908152602001600020600401548514156116945780600960008973ffffffffffffffffffffffffffffffffffffffff1673ffffffffffffffffffffffffffffffffffffffff16815260200190815260200160002060010160008282540192505081905550818101600660008282540392505081905550858773ffffffffffffffffffffffffffffffffffffffff167ff0f1a71001487cdd2b5333e3fe895c9deb3fd1ed644fc1563fd75591b714062a87600b60008b81526020019081526020016000206004015487866040518085815260200184815260200180602001848152602001838152602001828103825260068152602001807f506c6179657200000000000000000000000000000000000000000000000000008152506020019550505050505060405180910390a361179b565b81600960008973ffffffffffffffffffffffffffffffffffffffff1673ffffffffffffffffffffffffffffffffffffffff16815260200190815260200160002060010160008282540392505081905550858773ffffffffffffffffffffffffffffffffffffffff167ff0f1a71001487cdd2b5333e3fe895c9deb3fd1ed644fc1563fd75591b714062a87600b60008b81526020019081526020016000206004015487886040518085815260200184815260200180602001848152602001838152602001828103825260058152602001807f486f7573650000000000000000000000000000000000000000000000000000008152506020019550505050505060405180910390a35b60068302600760008282540392505081905550505b6003831415611f045760011515600a60008873ffffffffffffffffffffffffffffffffffffffff1673ffffffffffffffffffffffffffffffffffffffff16815260200190815260200160002060030160009054906101000a900460ff16151514611882576040517f08c379a000000000000000000000000000000000000000000000000000000000815260040180806020018281038252600f8152602001807f4d7573742062652077616974696e67000000000000000000000000000000000081525060200191505060405180910390fd5b6000801b600a60008873ffffffffffffffffffffffffffffffffffffffff1673ffffffffffffffffffffffffffffffffffffffff168152602001908152602001600020600201541161193c576040517f08c379a00000000000000000000000000000000000000000000000000000000081526004018080602001828103825260168152602001807f4d757374206861766520686f757365636172642069640000000000000000000081525060200191505060405180910390fd5b6000801b600a60008873ffffffffffffffffffffffffffffffffffffffff1673ffffffffffffffffffffffffffffffffffffffff168152602001908152602001600020600201819055506000600a60008873ffffffffffffffffffffffffffffffffffffffff1673ffffffffffffffffffffffffffffffffffffffff16815260200190815260200160002060030160006101000a81548160ff0219169083151502179055506000600a60008873ffffffffffffffffffffffffffffffffffffffff1673ffffffffffffffffffffffffffffffffffffffff1681526020019081526020016000206001015490506000600a60008973ffffffffffffffffffffffffffffffffffffffff1673ffffffffffffffffffffffffffffffffffffffff1681526020019081526020016000206001018190555060006001600b6000898152602001908152602001600020600401541415611a9657600190505b6000600b6000898152602001908152602001600020600401541415611aba57600090505b60006002831415611ae957600115158215151415611add57600b85029050611ae4565b6082850290505b611c98565b6003831415611b1657600115158215151415611b0a57600d85029050611b11565b6041850290505b611c97565b6004831415611b4357600115158215151415611b3757600e85029050611b3e565b602a850290505b611c96565b6005831415611b7057600115158215151415611b6457601085029050611b6b565b6020850290505b611c95565b6006831415611b9d57600115158215151415611b9157601285029050611b98565b601a850290505b611c94565b6007831415611bb157601585029050611c93565b6008831415611bde57600115158215151415611bd257601a85029050611bd9565b6012850290505b611c92565b6009831415611c0b57600115158215151415611bff57602085029050611c06565b6010850290505b611c91565b600a831415611c3857600115158215151415611c2c57602a85029050611c33565b600e850290505b611c90565b600b831415611c6557600115158215151415611c5957604185029050611c60565b600d850290505b611c8f565b600c831415611c8e57600115158215151415611c8657608285029050611c8d565b600b850290505b5b5b5b5b5b5b5b5b5b5b5b6000879050600a8281611ca757fe5b04915060011515831515148015611cbd57508381115b80611cd7575060001515831515148015611cd657508381105b5b15611def5781600960008c73ffffffffffffffffffffffffffffffffffffffff1673ffffffffffffffffffffffffffffffffffffffff16815260200190815260200160002060010160008282540192505081905550848201600660008282540392505081905550888a73ffffffffffffffffffffffffffffffffffffffff167f3f49e8a1c02bb092374df7b4bf984f5f1e89085d4745000dd2d8507511083b068684878b88604051808681526020018581526020018415151515815260200183815260200182815260200180602001828103825260068152602001807f506c617965720000000000000000000000000000000000000000000000000000815250602001965050505050505060405180910390a3611eec565b84600960008c73ffffffffffffffffffffffffffffffffffffffff1673ffffffffffffffffffffffffffffffffffffffff16815260200190815260200160002060010160008282540392505081905550888a73ffffffffffffffffffffffffffffffffffffffff167f3f49e8a1c02bb092374df7b4bf984f5f1e89085d4745000dd2d8507511083b068684878b8c604051808681526020018581526020018415151515815260200183815260200182815260200180602001828103825260058152602001807f486f757365000000000000000000000000000000000000000000000000000000815250602001965050505050505060405180910390a35b600d8602600760008282540392505081905550505050505b81600960008873ffffffffffffffffffffffffffffffffffffffff1673ffffffffffffffffffffffffffffffffffffffff16815260200190815260200160002060020160008282540392505081905550505050505050565b6000809054906101000a900473ffffffffffffffffffffffffffffffffffffffff1673ffffffffffffffffffffffffffffffffffffffff163373ffffffffffffffffffffffffffffffffffffffff1614611fb557600080fd5b6000600654905060006006819055503373ffffffffffffffffffffffffffffffffffffffff166108fc829081150290604051600060405180830381858888f1935050505015801561200a573d6000803e3d6000fd5b506000809054906101000a900473ffffffffffffffffffffffffffffffffffffffff1673ffffffffffffffffffffffffffffffffffffffff167f9ca86e26e8d02952f920895df7583aa717e8ebc63cd0708c0879da89b9a07445826040518082815260200191505060405180910390a250565b6000809054906101000a900473ffffffffffffffffffffffffffffffffffffffff1673ffffffffffffffffffffffffffffffffffffffff163373ffffffffffffffffffffffffffffffffffffffff16146120d657600080fd5b66470de4df82000080341015612154576040517f08c379a00000000000000000000000000000000000000000000000000000000081526004018080602001828103825260118152602001807f32302066696e6e6579206d696e696d756d00000000000000000000000000000081525060200191505060405180910390fd5b346006600082825401925050819055503373ffffffffffffffffffffffffffffffffffffffff167f350a7000a835544193f030ad53ca1f667390855a6373fd43a2a998c98bfbf85634600654604051808381526020018281526020019250505060405180910390a250565b600b6020528060005260406000206000915090508060000154908060010160009054906101000a900473ffffffffffffffffffffffffffffffffffffffff16908060020154908060030154908060040154908060050154908060060154905087565b60096020528060005260406000206000915090508060000160009054906101000a900473ffffffffffffffffffffffffffffffffffffffff16908060010154908060020154908060030154905084565b66038d7ea4c68000803410156122ef576040517f08c379a00000000000000000000000000000000000000000000000000000000081526004018080602001828103825260108152602001807f312066696e6e6579206d696e696d756d0000000000000000000000000000000081525060200191505060405180910390fd5b6122f7614530565b33816000019073ffffffffffffffffffffffffffffffffffffffff16908173ffffffffffffffffffffffffffffffffffffffff1681525050600960003373ffffffffffffffffffffffffffffffffffffffff1673ffffffffffffffffffffffffffffffffffffffff16815260200190815260200160002060010154816020018181525050600960003373ffffffffffffffffffffffffffffffffffffffff1673ffffffffffffffffffffffffffffffffffffffff16815260200190815260200160002060020154816040018181525050600960003373ffffffffffffffffffffffffffffffffffffffff1673ffffffffffffffffffffffffffffffffffffffff1681526020019081526020016000206003015481606001818152505080600960003373ffffffffffffffffffffffffffffffffffffffff1673ffffffffffffffffffffffffffffffffffffffff16815260200190815260200160002060008201518160000160006101000a81548173ffffffffffffffffffffffffffffffffffffffff021916908373ffffffffffffffffffffffffffffffffffffffff16021790555060208201518160010155604082015181600201556060820151816003015590505034600960003373ffffffffffffffffffffffffffffffffffffffff1673ffffffffffffffffffffffffffffffffffffffff168152602001908152602001600020600101600082825401925050819055503373ffffffffffffffffffffffffffffffffffffffff167f155efc6f27878074d7b21fde35c660b361cb83869a21c2409ed1a562f17e172934600960003373ffffffffffffffffffffffffffffffffffffffff1673ffffffffffffffffffffffffffffffffffffffff16815260200190815260200160002060010154604051808381526020018281526020019250505060405180910390a25050565b6000809054906101000a900473ffffffffffffffffffffffffffffffffffffffff1673ffffffffffffffffffffffffffffffffffffffff163373ffffffffffffffffffffffffffffffffffffffff161461260057600080fd5b3373ffffffffffffffffffffffffffffffffffffffff16ff5b6000808311801561262b575060208311155b61263457600080fd5b600a84029350606060016040519080825280601f01601f1916602001820160405280156126705781602001600182028038833980820191505090505b5090508360f81b8160008151811061268457fe5b60200101907effffffffffffffffffffffffffffffffffffffffffffffffffffffffffffff1916908160001a905350606060206040519080825280601f01601f1916602001820160405280156126e95781602001600182028038833980820191505090505b509050606060206040519080825280601f01601f1916602001820160405280156127225781602001600182028038833980820191505090505b509050600061272f612ed4565b905060208352424118600143034018602084015260208252806020830152606060206040519080825280601f01601f1916602001820160405280156127835781602001600182028038833980820191505090505b509050886020820152606060086040519080825280601f01601f1916602001820160405280156127c25781602001600182028038833980820191505090505b5090506127d582601860088460006131f4565b506127de614571565b604051806080016040528087815260200188815260200186815260200184815250905060006128436040518060400160405280600681526020017f72616e646f6d0000000000000000000000000000000000000000000000000000815250838c613253565b9050606060086040519080825280601f01601f19166020018201604052801561287b5781602001600182028038833980820191505090505b50905060208401517f0100000000000000000000000000000000000000000000000000000000000000810460278301537e01000000000000000000000000000000000000000000000000000000000000810460268301537d010000000000000000000000000000000000000000000000000000000000810460258301537c0100000000000000000000000000000000000000000000000000000000810460248301537b01000000000000000000000000000000000000000000000000000000810460238301537a010000000000000000000000000000000000000000000000000000810460228301537901000000000000000000000000000000000000000000000000008104602183015378010000000000000000000000000000000000000000000000008104602083015350612ba18282856001600481106129ba57fe5b60200201516002876000600481106129ce57fe5b60200201516040518082805190602001908083835b60208310612a0657805182526020820191506020810190506020830392506129e3565b6001836020036101000a038019825116818451168082178552505050505050905001915050602060405180830381855afa158015612a48573d6000803e3d6000fd5b5050506040513d6020811015612a5d57600080fd5b810190808051906020019092919050505087600260048110612a7b57fe5b60200201516040516020018085805190602001908083835b60208310612ab65780518252602082019150602081019050602083039250612a93565b6001836020036101000a03801982511681845116808217855250505050505090500184805190602001908083835b60208310612b075780518252602082019150602081019050602083039250612ae4565b6001836020036101000a03801982511681845116808217855250505050505090500183815260200182805190602001908083835b60208310612b5e5780518252602082019150602081019050602083039250612b3b565b6001836020036101000a038019825116818451168082178552505050505050905001945050505050604051602081830303815290604052805190602001206135c2565b8199505050505050505050509392505050565b60008073ffffffffffffffffffffffffffffffffffffffff16600260009054906101000a900473ffffffffffffffffffffffffffffffffffffffff1673ffffffffffffffffffffffffffffffffffffffff161480612c3c57506000612c3a600260009054906101000a900473ffffffffffffffffffffffffffffffffffffffff166135de565b145b15612c4d57612c4b60006135e9565b505b600260009054906101000a900473ffffffffffffffffffffffffffffffffffffffff1673ffffffffffffffffffffffffffffffffffffffff166338cc48316040518163ffffffff1660e01b8152600401602060405180830381600087803b158015612cb757600080fd5b505af1158015612ccb573d6000803e3d6000fd5b505050506040513d6020811015612ce157600080fd5b810190808051906020019092919050505073ffffffffffffffffffffffffffffffffffffffff16600160009054906101000a900473ffffffffffffffffffffffffffffffffffffffff1673ffffffffffffffffffffffffffffffffffffffff1614612e2c57600260009054906101000a900473ffffffffffffffffffffffffffffffffffffffff1673ffffffffffffffffffffffffffffffffffffffff166338cc48316040518163ffffffff1660e01b8152600401602060405180830381600087803b158015612db057600080fd5b505af1158015612dc4573d6000803e3d6000fd5b505050506040513d6020811015612dda57600080fd5b8101908080519060200190929190505050600160006101000a81548173ffffffffffffffffffffffffffffffffffffffff021916908373ffffffffffffffffffffffffffffffffffffffff1602179055505b600160009054906101000a900473ffffffffffffffffffffffffffffffffffffffff1673ffffffffffffffffffffffffffffffffffffffff1663c281d19e6040518163ffffffff1660e01b815260040160206040518083038186803b158015612e9457600080fd5b505afa158015612ea8573d6000803e3d6000fd5b505050506040513d6020811015612ebe57600080fd5b8101908080519060200190929190505050905090565b60008073ffffffffffffffffffffffffffffffffffffffff16600260009054906101000a900473ffffffffffffffffffffffffffffffffffffffff1673ffffffffffffffffffffffffffffffffffffffff161480612f5c57506000612f5a600260009054906101000a900473ffffffffffffffffffffffffffffffffffffffff166135de565b145b15612f6d57612f6b60006135e9565b505b600260009054906101000a900473ffffffffffffffffffffffffffffffffffffffff1673ffffffffffffffffffffffffffffffffffffffff166338cc48316040518163ffffffff1660e01b8152600401602060405180830381600087803b158015612fd757600080fd5b505af1158015612feb573d6000803e3d6000fd5b505050506040513d602081101561300157600080fd5b810190808051906020019092919050505073ffffffffffffffffffffffffffffffffffffffff16600160009054906101000a900473ffffffffffffffffffffffffffffffffffffffff1673ffffffffffffffffffffffffffffffffffffffff161461314c57600260009054906101000a900473ffffffffffffffffffffffffffffffffffffffff1673ffffffffffffffffffffffffffffffffffffffff166338cc48316040518163ffffffff1660e01b8152600401602060405180830381600087803b1580156130d057600080fd5b505af11580156130e4573d6000803e3d6000fd5b505050506040513d60208110156130fa57600080fd5b8101908080519060200190929190505050600160006101000a81548173ffffffffffffffffffffffffffffffffffffffff021916908373ffffffffffffffffffffffffffffffffffffffff1602179055505b600160009054906101000a900473ffffffffffffffffffffffffffffffffffffffff1673ffffffffffffffffffffffffffffffffffffffff1663abaa5f3e6040518163ffffffff1660e01b815260040160206040518083038186803b1580156131b457600080fd5b505afa1580156131c8573d6000803e3d6000fd5b505050506040513d60208110156131de57600080fd5b8101908080519060200190929190505050905090565b606060008285019050808451101561320b57600080fd5b600086602001905060008460200190505b868860200101821015613244578189015180828801525060208201915060208101905061321c565b85935050505095945050505050565b60008073ffffffffffffffffffffffffffffffffffffffff16600260009054906101000a900473ffffffffffffffffffffffffffffffffffffffff1673ffffffffffffffffffffffffffffffffffffffff1614806132db575060006132d9600260009054906101000a900473ffffffffffffffffffffffffffffffffffffffff166135de565b145b156132ec576132ea60006135e9565b505b600260009054906101000a900473ffffffffffffffffffffffffffffffffffffffff1673ffffffffffffffffffffffffffffffffffffffff166338cc48316040518163ffffffff1660e01b8152600401602060405180830381600087803b15801561335657600080fd5b505af115801561336a573d6000803e3d6000fd5b505050506040513d602081101561338057600080fd5b810190808051906020019092919050505073ffffffffffffffffffffffffffffffffffffffff16600160009054906101000a900473ffffffffffffffffffffffffffffffffffffffff1673ffffffffffffffffffffffffffffffffffffffff16146134cb57600260009054906101000a900473ffffffffffffffffffffffffffffffffffffffff1673ffffffffffffffffffffffffffffffffffffffff166338cc48316040518163ffffffff1660e01b8152600401602060405180830381600087803b15801561344f57600080fd5b505af1158015613463573d6000803e3d6000fd5b505050506040513d602081101561347957600080fd5b8101908080519060200190929190505050600160006101000a81548173ffffffffffffffffffffffffffffffffffffffff021916908373ffffffffffffffffffffffffffffffffffffffff1602179055505b6060600460405190808252806020026020018201604052801561350257816020015b60608152602001906001900390816134ed5790505b5090508360006004811061351257fe5b60200201518160008151811061352457fe5b60200260200101819052508360016004811061353c57fe5b60200201518160018151811061354e57fe5b60200260200101819052508360026004811061356657fe5b60200201518160028151811061357857fe5b60200260200101819052508360036004811061359057fe5b6020020151816003815181106135a257fe5b60200260200101819052506135b88582856135fa565b9150509392505050565b8060046000848152602001908152602001600020819055505050565b6000813b9050919050565b60006135f3613b60565b9050919050565b60008073ffffffffffffffffffffffffffffffffffffffff16600260009054906101000a900473ffffffffffffffffffffffffffffffffffffffff1673ffffffffffffffffffffffffffffffffffffffff16148061368257506000613680600260009054906101000a900473ffffffffffffffffffffffffffffffffffffffff166135de565b145b156136935761369160006135e9565b505b600260009054906101000a900473ffffffffffffffffffffffffffffffffffffffff1673ffffffffffffffffffffffffffffffffffffffff166338cc48316040518163ffffffff1660e01b8152600401602060405180830381600087803b1580156136fd57600080fd5b505af1158015613711573d6000803e3d6000fd5b505050506040513d602081101561372757600080fd5b810190808051906020019092919050505073ffffffffffffffffffffffffffffffffffffffff16600160009054906101000a900473ffffffffffffffffffffffffffffffffffffffff1673ffffffffffffffffffffffffffffffffffffffff161461387257600260009054906101000a900473ffffffffffffffffffffffffffffffffffffffff1673ffffffffffffffffffffffffffffffffffffffff166338cc48316040518163ffffffff1660e01b8152600401602060405180830381600087803b1580156137f657600080fd5b505af115801561380a573d6000803e3d6000fd5b505050506040513d602081101561382057600080fd5b8101908080519060200190929190505050600160006101000a81548173ffffffffffffffffffffffffffffffffffffffff021916908373ffffffffffffffffffffffffffffffffffffffff1602179055505b6000600160009054906101000a900473ffffffffffffffffffffffffffffffffffffffff1673ffffffffffffffffffffffffffffffffffffffff16632ef3accc86856040518363ffffffff1660e01b81526004018080602001838152602001828103825284818151815260200191508051906020019080838360005b838110156139095780820151818401526020810190506138ee565b50505050905090810190601f1680156139365780820380516001836020036101000a031916815260200191505b509350505050602060405180830381600087803b15801561395657600080fd5b505af115801561396a573d6000803e3d6000fd5b505050506040513d602081101561398057600080fd5b81019080805190602001909291905050509050823a02670de0b6b3a7640000018111156139b3576000801b915050613b59565b60606139be856140b7565b9050600160009054906101000a900473ffffffffffffffffffffffffffffffffffffffff1673ffffffffffffffffffffffffffffffffffffffff1663c55c1cb68360008985896040518663ffffffff1660e01b8152600401808581526020018060200180602001848152602001838103835286818151815260200191508051906020019080838360005b83811015613a63578082015181840152602081019050613a48565b50505050905090810190601f168015613a905780820380516001836020036101000a031916815260200191505b50838103825285818151815260200191508051906020019080838360005b83811015613ac9578082015181840152602081019050613aae565b50505050905090810190601f168015613af65780820380516001836020036101000a031916815260200191505b5096505050505050506020604051808303818588803b158015613b1857600080fd5b505af1158015613b2c573d6000803e3d6000fd5b50505050506040513d6020811015613b4357600080fd5b8101908080519060200190929190505050925050505b9392505050565b600080613b80731d3b2638a7cc9f2cb3d298a3da7a90b67e5506ed6135de565b1115613c2257731d3b2638a7cc9f2cb3d298a3da7a90b67e5506ed600260006101000a81548173ffffffffffffffffffffffffffffffffffffffff021916908373ffffffffffffffffffffffffffffffffffffffff160217905550613c196040518060400160405280600b81526020017f6574685f6d61696e6e6574000000000000000000000000000000000000000000815250614137565b600190506140b4565b6000613c4173c03a2615d5efaf5f49f60b7bb6583eaec212fdf16135de565b1115613ce35773c03a2615d5efaf5f49f60b7bb6583eaec212fdf1600260006101000a81548173ffffffffffffffffffffffffffffffffffffffff021916908373ffffffffffffffffffffffffffffffffffffffff160217905550613cda6040518060400160405280600c81526020017f6574685f726f707374656e330000000000000000000000000000000000000000815250614137565b600190506140b4565b6000613d0273b7a07bcf2ba2f2703b24c0691b5278999c59ac7e6135de565b1115613da45773b7a07bcf2ba2f2703b24c0691b5278999c59ac7e600260006101000a81548173ffffffffffffffffffffffffffffffffffffffff021916908373ffffffffffffffffffffffffffffffffffffffff160217905550613d9b6040518060400160405280600981526020017f6574685f6b6f76616e0000000000000000000000000000000000000000000000815250614137565b600190506140b4565b6000613dc373146500cfd35b22e4a392fe0adc06de1a1368ed486135de565b1115613e655773146500cfd35b22e4a392fe0adc06de1a1368ed48600260006101000a81548173ffffffffffffffffffffffffffffffffffffffff021916908373ffffffffffffffffffffffffffffffffffffffff160217905550613e5c6040518060400160405280600b81526020017f6574685f72696e6b656279000000000000000000000000000000000000000000815250614137565b600190506140b4565b6000613e8473a2998efd205fb9d4b4963afb70778d6354ad3a416135de565b1115613f265773a2998efd205fb9d4b4963afb70778d6354ad3a41600260006101000a81548173ffffffffffffffffffffffffffffffffffffffff021916908373ffffffffffffffffffffffffffffffffffffffff160217905550613f1d6040518060400160405280600a81526020017f6574685f676f65726c6900000000000000000000000000000000000000000000815250614137565b600190506140b4565b6000613f45736f485c8bf6fc43ea212e93bbf8ce046c7f1cb4756135de565b1115613fa957736f485c8bf6fc43ea212e93bbf8ce046c7f1cb475600260006101000a81548173ffffffffffffffffffffffffffffffffffffffff021916908373ffffffffffffffffffffffffffffffffffffffff160217905550600190506140b4565b6000613fc87320e12a1f859b3feae5fb2a0a32c18f5a65555bbf6135de565b111561402c577320e12a1f859b3feae5fb2a0a32c18f5a65555bbf600260006101000a81548173ffffffffffffffffffffffffffffffffffffffff021916908373ffffffffffffffffffffffffffffffffffffffff160217905550600190506140b4565b600061404b7351efaf4c8b3c9afbd5ab9f4bbc82784ab6ef8faa6135de565b11156140af577351efaf4c8b3c9afbd5ab9f4bbc82784ab6ef8faa600260006101000a81548173ffffffffffffffffffffffffffffffffffffffff021916908373ffffffffffffffffffffffffffffffffffffffff160217905550600190506140b4565b600090505b90565b60606140c1614151565b6140c9614598565b6140d58161040061415d565b6140de816141a7565b60008090505b8351811015614120576141138482815181106140fc57fe5b6020026020010151836141b590919063ffffffff16565b80806001019150506140e4565b5061412a816141da565b8060000151915050919050565b806003908051906020019061414d9291906145b2565b5050565b60405180590338823950565b600081905060006020828161416e57fe5b0614614187576020818161417e57fe5b06602003810190505b808360200181815250506040518084526000815281810160405250505050565b6141b28160046141e8565b50565b6141c28260028351614209565b6141d5818361434990919063ffffffff16565b505050565b6141e58160076141e8565b50565b614205601f60058360ff16901b17836143f490919063ffffffff16565b5050565b60178111614235576142308160058460ff16901b60ff1617846143f490919063ffffffff16565b614344565b60ff81116142765761425a601860058460ff16901b17846143f490919063ffffffff16565b614270816001856144349092919063ffffffff16565b50614343565b61ffff81116142b85761429c601960058460ff16901b17846143f490919063ffffffff16565b6142b2816002856144349092919063ffffffff16565b50614342565b63ffffffff81116142fc576142e0601a60058460ff16901b17846143f490919063ffffffff16565b6142f6816004856144349092919063ffffffff16565b50614341565b67ffffffffffffffff811161434057614328601b60058460ff16901b17846143f490919063ffffffff16565b61433e816008856144349092919063ffffffff16565b505b5b5b5b5b505050565b614351614598565b826020015183600001515183510111156143815761438083600261437a8660200151865161449b565b026144b7565b5b60008060008451905085518051602081830101945086518101825260208701935050505b602081106143c857815183526020830192506020820191506020810390506143a5565b60006001826020036101000a039050801983511681855116818117865250508694505050505092915050565b8160200151600183600001515101111561441a576144198260028460200151026144b7565b5b815180516020818301018381536001820183525050505050565b61443c614598565b83602001518460000151518301111561446a5761446984600261446387602001518661449b565b026144b7565b5b60006001836101000a0390508451805184818301018684198251161781528582018352505050849150509392505050565b6000818311156144ad578290506144b1565b8190505b92915050565b6060826000015190506144ca838361415d565b6144d48382614349565b50505050565b6040518060e0016040528060008019168152602001600073ffffffffffffffffffffffffffffffffffffffff16815260200160008152602001600081526020016000815260200160008152602001600081525090565b6040518060800160405280600073ffffffffffffffffffffffffffffffffffffffff1681526020016000815260200160008152602001600080191681525090565b60405180608001604052806004905b60608152602001906001900390816145805790505090565b604051806040016040528060608152602001600081525090565b828054600181600116156101000203166002900490600052602060002090601f016020900481019282601f106145f357805160ff1916838001178555614621565b82800160010185558215614621579182015b82811115614620578251825591602001919060010190614605565b5b50905061462e9190614632565b5090565b61465491905b80821115614650576000816000905550600101614638565b5090565b9056fea265627a7a72315820e791e197e310d60576e6364e6d67b402ee27fbea24657dd916ef09a0674fbe7864736f6c634300050c0032",
  "source": "import \"./Ownable.sol\";\r\nimport \"./Destroyable.sol\";\r\nimport \"./provableAPI.sol\";\r\nimport \"./Accountable.sol\";\r\nimport \"./Winnable.sol\";\r\n\r\npragma solidity 0.5.12;\r\n\r\ncontract Randomised is Ownable, Destroyable, usingProvable, Accountable, Winnable {\r\n\r\n    uint256 constant NUM_RANDOM_BYTES_REQUESTED = 1;\r\n    uint256 constant GAS_FOR_CALLBACK = 200000;\r\n\r\n    event BetPlaced(address indexed player, bytes32 indexed queryId, uint256 amountBet, uint256 balanceBeforeBet);\r\n    event FlipNumberReceived(address indexed player, bytes32 indexed queryId, uint256 latestNumber, uint256 Heads1orTails0);\r\n    event RollNumberReceived(address indexed player, bytes32 indexed queryId, uint256 latestNumber, uint256 diceNumber);\r\n    event HouseCard_Received(address indexed player, uint256 latestNumber, uint256 houseCard);\r\n    event UserCard_Received(address indexed player, bytes32 indexed queryId, uint256 latestNumber, uint256 userCard);\r\n\r\n    function __callback(bytes32 _queryId, string memory _result/*, bytes memory _proof*/) public {\r\n        require(msg.sender == provable_cbAddress());\r\n\r\n        address punter = bets[_queryId].player;\r\n        punters[punter].latestQueryId = _queryId;\r\n\r\n\r\n        /*I have commented out the proof check as it throws the size of my contract over the allowed size\r\n        if (provable_randomDS_proofVerify__returnCode(_queryId, _result, _proof) != 0) {\r\n            pendingPayouts -= bets[_queryId].betAmount;\r\n            punters[punter].pendingBets -= bets[_queryId].betAmount;\r\n        } else {\r\n        */\r\n\r\n            uint256 randomNumber = uint256(keccak256(abi.encodePacked(_result)));\r\n\r\n            if (bets[_queryId].gameRef == 1) {      //gameRef 1 refers to FlipOut game (coin flip)\r\n                bets[_queryId].result = randomNumber % 2;       //produces number 1 or 0 (heads or tails respectively)\r\n\r\n                payOut(punter, _queryId, bets[_queryId].result, bets[_queryId].gameRef);        //payout function in Winnable contract\r\n\r\n                emit FlipNumberReceived(punter, _queryId, randomNumber, bets[_queryId].result);\r\n\r\n            } else if (bets[_queryId].gameRef == 2) {      //gameRef 2 refers to RollOut game (dice roll)\r\n                bets[_queryId].result = (randomNumber % 6) + 1;         //produces a number between 1 and 6, inclusively\r\n\r\n                payOut(punter, _queryId, bets[_queryId].result, bets[_queryId].gameRef);        //payout function in Winnable contract\r\n\r\n                emit RollNumberReceived(punter, _queryId, randomNumber, bets[_queryId].result);\r\n\r\n            } else if (bets[_queryId].gameRef == 3) {           //gameRef 3 refers to DrawOut game (high card draw game)\r\n\r\n                bets[_queryId].result = (randomNumber % 13) + 1;            //produces a number between 1 and 13, inclusively (which would be Ace through King)\r\n\r\n                payOut(punter, _queryId, bets[_queryId].result, bets[_queryId].gameRef);        //payout function in Winnable contract\r\n\r\n                emit UserCard_Received(punter, _queryId, randomNumber, bets[_queryId].result);\r\n            }\r\n       // }\r\n    }\r\n\r\n\r\n    function requestNumber(address punter, uint256 gameRef, uint256 betAmount, uint256 choice, uint256 query_price) payable public {\r\n        uint256 queryPrice;\r\n        if (freeCallBack == false) {\r\n            queryPrice = query_price;\r\n        } else {\r\n            queryPrice = 0;\r\n            freeCallBack = false;\r\n        }\r\n\r\n\r\n        uint256 QUERY_EXECUTION_DELAY = 0;\r\n        bytes32 _queryId = provable_newRandomDSQuery(\r\n            QUERY_EXECUTION_DELAY,\r\n            NUM_RANDOM_BYTES_REQUESTED,\r\n            GAS_FOR_CALLBACK\r\n        );\r\n\r\n\r\n        Bet memory newBet;          //new bet created every time a new number is requested\r\n        newBet.id = _queryId;\r\n        newBet.player = punter;\r\n        newBet.gameRef = gameRef;\r\n        newBet.betAmount = betAmount;\r\n        newBet.choice = choice;\r\n        newBet.queryPrice = queryPrice;\r\n        newBet.result;\r\n\r\n        bets[_queryId] = newBet;\r\n\r\n        emit BetPlaced(punter, newBet.id, newBet.betAmount, punters[newBet.player].balance);\r\n    }\r\n\r\n\r\n    function getQueryPrice() internal returns (uint256 price) {\r\n         price = provable_getPrice(\"price\", GAS_FOR_CALLBACK);\r\n    }\r\n\r\n }\r\n",
  "sourcePath": "D:\\Justin\\Documents\\Justin\\Ethereum\\blockPunt\\contracts\\Randomised.sol",
  "compiler": {
    "name": "solc",
    "version": "0.5.12+commit.7709ece9.Emscripten.clang"
  },
  "schemaVersion": "3.0.16",
  "updatedAt": "2020-10-24T08:19:39.170Z",
  "devdoc": {
    "methods": {}
  },
  "userdoc": {
    "methods": {}
  }
}