{
  "contractName": "Winnable",
  "abi": [
    {
      "anonymous": false,
      "inputs": [
        {
          "indexed": true,
          "internalType": "address",
          "name": "toAccount",
          "type": "address"
        },
        {
          "indexed": false,
          "internalType": "uint256",
          "name": "amountWithdrawn",
          "type": "uint256"
        }
      ],
      "name": "ContractBalanceWithdrawn",
      "type": "event"
    },
    {
      "anonymous": false,
      "inputs": [
        {
          "indexed": true,
          "internalType": "address",
          "name": "fromAccount",
          "type": "address"
        },
        {
          "indexed": false,
          "internalType": "uint256",
          "name": "amountDeposited",
          "type": "uint256"
        },
        {
          "indexed": false,
          "internalType": "uint256",
          "name": "newBalance",
          "type": "uint256"
        }
      ],
      "name": "ContractDepositMade",
      "type": "event"
    },
    {
      "anonymous": false,
      "inputs": [
        {
          "indexed": true,
          "internalType": "address",
          "name": "player",
          "type": "address"
        },
        {
          "indexed": true,
          "internalType": "bytes32",
          "name": "queryId",
          "type": "bytes32"
        },
        {
          "indexed": false,
          "internalType": "uint256",
          "name": "houseCard",
          "type": "uint256"
        },
        {
          "indexed": false,
          "internalType": "uint256",
          "name": "userCard",
          "type": "uint256"
        },
        {
          "indexed": false,
          "internalType": "bool",
          "name": "choseHigher",
          "type": "bool"
        },
        {
          "indexed": false,
          "internalType": "uint256",
          "name": "betAmount",
          "type": "uint256"
        },
        {
          "indexed": false,
          "internalType": "uint256",
          "name": "payOutAmount",
          "type": "uint256"
        },
        {
          "indexed": false,
          "internalType": "string",
          "name": "winner",
          "type": "string"
        }
      ],
      "name": "DrawOutResults",
      "type": "event"
    },
    {
      "anonymous": false,
      "inputs": [
        {
          "indexed": true,
          "internalType": "address",
          "name": "player",
          "type": "address"
        },
        {
          "indexed": true,
          "internalType": "bytes32",
          "name": "queryId",
          "type": "bytes32"
        },
        {
          "indexed": false,
          "internalType": "string",
          "name": "flipResult",
          "type": "string"
        },
        {
          "indexed": false,
          "internalType": "string",
          "name": "choice",
          "type": "string"
        },
        {
          "indexed": false,
          "internalType": "string",
          "name": "winner",
          "type": "string"
        },
        {
          "indexed": false,
          "internalType": "uint256",
          "name": "betAmount",
          "type": "uint256"
        },
        {
          "indexed": false,
          "internalType": "uint256",
          "name": "payOutAmount",
          "type": "uint256"
        }
      ],
      "name": "FlipOutResults",
      "type": "event"
    },
    {
      "anonymous": false,
      "inputs": [
        {
          "indexed": true,
          "internalType": "address",
          "name": "toAccount",
          "type": "address"
        },
        {
          "indexed": false,
          "internalType": "uint256",
          "name": "amountWithdrawn",
          "type": "uint256"
        }
      ],
      "name": "PlayerFundsWithdrawn",
      "type": "event"
    },
    {
      "anonymous": false,
      "inputs": [
        {
          "indexed": true,
          "internalType": "address",
          "name": "player",
          "type": "address"
        },
        {
          "indexed": true,
          "internalType": "bytes32",
          "name": "queryId",
          "type": "bytes32"
        },
        {
          "indexed": false,
          "internalType": "uint256",
          "name": "rollResult",
          "type": "uint256"
        },
        {
          "indexed": false,
          "internalType": "uint256",
          "name": "choice",
          "type": "uint256"
        },
        {
          "indexed": false,
          "internalType": "string",
          "name": "winner",
          "type": "string"
        },
        {
          "indexed": false,
          "internalType": "uint256",
          "name": "betAmount",
          "type": "uint256"
        },
        {
          "indexed": false,
          "internalType": "uint256",
          "name": "payOutAmount",
          "type": "uint256"
        }
      ],
      "name": "RollOutResults",
      "type": "event"
    },
    {
      "anonymous": false,
      "inputs": [
        {
          "indexed": true,
          "internalType": "address",
          "name": "fromAccount",
          "type": "address"
        },
        {
          "indexed": false,
          "internalType": "uint256",
          "name": "amountDeposited",
          "type": "uint256"
        },
        {
          "indexed": false,
          "internalType": "uint256",
          "name": "newBalance",
          "type": "uint256"
        }
      ],
      "name": "UserDepositMade",
      "type": "event"
    },
    {
      "constant": false,
      "inputs": [],
      "name": "Destroy",
      "outputs": [],
      "payable": false,
      "stateMutability": "nonpayable",
      "type": "function"
    },
    {
      "constant": false,
      "inputs": [
        {
          "internalType": "bytes32",
          "name": "_myid",
          "type": "bytes32"
        },
        {
          "internalType": "string",
          "name": "_result",
          "type": "string"
        }
      ],
      "name": "__callback",
      "outputs": [],
      "payable": false,
      "stateMutability": "nonpayable",
      "type": "function"
    },
    {
      "constant": false,
      "inputs": [
        {
          "internalType": "bytes32",
          "name": "_myid",
          "type": "bytes32"
        },
        {
          "internalType": "string",
          "name": "_result",
          "type": "string"
        },
        {
          "internalType": "bytes",
          "name": "_proof",
          "type": "bytes"
        }
      ],
      "name": "__callback",
      "outputs": [],
      "payable": false,
      "stateMutability": "nonpayable",
      "type": "function"
    },
    {
      "constant": false,
      "inputs": [],
      "name": "addBettingFunds",
      "outputs": [],
      "payable": true,
      "stateMutability": "payable",
      "type": "function"
    },
    {
      "constant": true,
      "inputs": [
        {
          "internalType": "bytes32",
          "name": "",
          "type": "bytes32"
        }
      ],
      "name": "bets",
      "outputs": [
        {
          "internalType": "bytes32",
          "name": "id",
          "type": "bytes32"
        },
        {
          "internalType": "address",
          "name": "player",
          "type": "address"
        },
        {
          "internalType": "uint256",
          "name": "gameRef",
          "type": "uint256"
        },
        {
          "internalType": "uint256",
          "name": "betAmount",
          "type": "uint256"
        },
        {
          "internalType": "uint256",
          "name": "choice",
          "type": "uint256"
        },
        {
          "internalType": "uint256",
          "name": "queryPrice",
          "type": "uint256"
        },
        {
          "internalType": "uint256",
          "name": "result",
          "type": "uint256"
        }
      ],
      "payable": false,
      "stateMutability": "view",
      "type": "function"
    },
    {
      "constant": true,
      "inputs": [
        {
          "internalType": "address",
          "name": "",
          "type": "address"
        }
      ],
      "name": "cards",
      "outputs": [
        {
          "internalType": "address",
          "name": "user",
          "type": "address"
        },
        {
          "internalType": "uint256",
          "name": "houseCard",
          "type": "uint256"
        },
        {
          "internalType": "bytes32",
          "name": "cardId",
          "type": "bytes32"
        },
        {
          "internalType": "bool",
          "name": "waiting",
          "type": "bool"
        }
      ],
      "payable": false,
      "stateMutability": "view",
      "type": "function"
    },
    {
      "constant": false,
      "inputs": [],
      "name": "depositToContract",
      "outputs": [],
      "payable": true,
      "stateMutability": "payable",
      "type": "function"
    },
    {
      "constant": true,
      "inputs": [],
      "name": "freeCallBack",
      "outputs": [
        {
          "internalType": "bool",
          "name": "",
          "type": "bool"
        }
      ],
      "payable": false,
      "stateMutability": "view",
      "type": "function"
    },
    {
      "constant": true,
      "inputs": [],
      "name": "owner",
      "outputs": [
        {
          "internalType": "address",
          "name": "",
          "type": "address"
        }
      ],
      "payable": false,
      "stateMutability": "view",
      "type": "function"
    },
    {
      "constant": true,
      "inputs": [
        {
          "internalType": "address",
          "name": "",
          "type": "address"
        }
      ],
      "name": "punters",
      "outputs": [
        {
          "internalType": "address",
          "name": "playerAddress",
          "type": "address"
        },
        {
          "internalType": "uint256",
          "name": "balance",
          "type": "uint256"
        },
        {
          "internalType": "uint256",
          "name": "pendingBets",
          "type": "uint256"
        },
        {
          "internalType": "bytes32",
          "name": "latestQueryId",
          "type": "bytes32"
        }
      ],
      "payable": false,
      "stateMutability": "view",
      "type": "function"
    },
    {
      "constant": false,
      "inputs": [],
      "name": "withdrawBettingFunds",
      "outputs": [],
      "payable": false,
      "stateMutability": "nonpayable",
      "type": "function"
    },
    {
      "constant": false,
      "inputs": [],
      "name": "withdrawContractBalance",
      "outputs": [],
      "payable": false,
      "stateMutability": "nonpayable",
      "type": "function"
    },
    {
      "constant": false,
      "inputs": [
        {
          "internalType": "address",
          "name": "punter",
          "type": "address"
        },
        {
          "internalType": "bytes32",
          "name": "query_id",
          "type": "bytes32"
        },
        {
          "internalType": "uint256",
          "name": "result",
          "type": "uint256"
        },
        {
          "internalType": "uint256",
          "name": "game",
          "type": "uint256"
        }
      ],
      "name": "payOut",
      "outputs": [],
      "payable": false,
      "stateMutability": "nonpayable",
      "type": "function"
    }
  ],
  "bytecode": "0x60806040526001600860006101000a81548160ff021916908315150217905550336000806101000a81548173ffffffffffffffffffffffffffffffffffffffff021916908373ffffffffffffffffffffffffffffffffffffffff16021790555061201e8061006e6000396000f3fe6080604052600436106100c25760003560e01c80639745cd1f1161007f578063c902c3ae11610059578063c902c3ae146104d9578063cafc419f1461057e578063df11460e14610624578063f58fef8e1461062e576100c2565b80639745cd1f14610449578063bfab3db9146104b8578063c8f781c2146104cf576100c2565b80630eee99cf146100c75780631a1cc0a5146100de57806327dc297e1461010d57806338bbfa50146101df57806370908f21146103485780638da5cb5b146103f2575b600080fd5b3480156100d357600080fd5b506100dc610645565b005b3480156100ea57600080fd5b506100f3610824565b604051808215151515815260200191505060405180910390f35b34801561011957600080fd5b506101dd6004803603604081101561013057600080fd5b81019080803590602001909291908035906020019064010000000081111561015757600080fd5b82018360208201111561016957600080fd5b8035906020019184600183028401116401000000008311171561018b57600080fd5b91908080601f016020809104026020016040519081016040528093929190818152602001838380828437600081840152601f19601f820116905080830192505050505050509192919290505050610837565b005b3480156101eb57600080fd5b506103466004803603606081101561020257600080fd5b81019080803590602001909291908035906020019064010000000081111561022957600080fd5b82018360208201111561023b57600080fd5b8035906020019184600183028401116401000000008311171561025d57600080fd5b91908080601f016020809104026020016040519081016040528093929190818152602001838380828437600081840152601f19601f820116905080830192505050505050509192919290803590602001906401000000008111156102c057600080fd5b8201836020820111156102d257600080fd5b803590602001918460018302840111640100000000831117156102f457600080fd5b91908080601f016020809104026020016040519081016040528093929190818152602001838380828437600081840152601f19601f82011690508083019250505050505050919291929050505061087a565b005b34801561035457600080fd5b506103976004803603602081101561036b57600080fd5b81019080803573ffffffffffffffffffffffffffffffffffffffff16906020019092919050505061089d565b604051808573ffffffffffffffffffffffffffffffffffffffff1673ffffffffffffffffffffffffffffffffffffffff1681526020018481526020018381526020018215151515815260200194505050505060405180910390f35b3480156103fe57600080fd5b506104076108fa565b604051808273ffffffffffffffffffffffffffffffffffffffff1673ffffffffffffffffffffffffffffffffffffffff16815260200191505060405180910390f35b34801561045557600080fd5b506104b66004803603608081101561046c57600080fd5b81019080803573ffffffffffffffffffffffffffffffffffffffff16906020019092919080359060200190929190803590602001909291908035906020019092919050505061091f565b005b3480156104c457600080fd5b506104cd6118eb565b005b6104d7611a0c565b005b3480156104e557600080fd5b50610512600480360360208110156104fc57600080fd5b8101908080359060200190929190505050611b4e565b604051808881526020018773ffffffffffffffffffffffffffffffffffffffff1673ffffffffffffffffffffffffffffffffffffffff16815260200186815260200185815260200184815260200183815260200182815260200197505050505050505060405180910390f35b34801561058a57600080fd5b506105cd600480360360208110156105a157600080fd5b81019080803573ffffffffffffffffffffffffffffffffffffffff169060200190929190505050611bb0565b604051808573ffffffffffffffffffffffffffffffffffffffff1673ffffffffffffffffffffffffffffffffffffffff16815260200184815260200183815260200182815260200194505050505060405180910390f35b61062c611c00565b005b34801561063a57600080fd5b50610643611f36565b005b6000600960003373ffffffffffffffffffffffffffffffffffffffff1673ffffffffffffffffffffffffffffffffffffffff16815260200190815260200160002060010154116106fd576040517f08c379a00000000000000000000000000000000000000000000000000000000081526004018080602001828103825260118152602001807f43616e6e6f74207769746864726177203000000000000000000000000000000081525060200191505060405180910390fd5b6000600960003373ffffffffffffffffffffffffffffffffffffffff1673ffffffffffffffffffffffffffffffffffffffff1681526020019081526020016000206001015490506000600960003373ffffffffffffffffffffffffffffffffffffffff1673ffffffffffffffffffffffffffffffffffffffff168152602001908152602001600020600101819055503373ffffffffffffffffffffffffffffffffffffffff166108fc829081150290604051600060405180830381858888f193505050501580156107d2573d6000803e3d6000fd5b503373ffffffffffffffffffffffffffffffffffffffff167fdc13ef7ce79641e7f89a0adb1f73831b0832805639eefe811c8173e09751306d826040518082815260200191505060405180910390a250565b600860009054906101000a900460ff1681565b610876828260006040519080825280601f01601f1916602001820160405280156108705781602001600182028038833980820191505090505b5061087a565b5050565b6000801b600460008060001b815260200190815260200160002081905550505050565b600a6020528060005260406000206000915090508060000160009054906101000a900473ffffffffffffffffffffffffffffffffffffffff16908060010154908060020154908060030160009054906101000a900460ff16905084565b6000809054906101000a900473ffffffffffffffffffffffffffffffffffffffff1681565b6000600b60008581526020019081526020016000206003015490506000600b60008681526020019081526020016000206005015490508160066000828254019250508190555081600960008873ffffffffffffffffffffffffffffffffffffffff1673ffffffffffffffffffffffffffffffffffffffff168152602001908152602001600020600101600082825403925050819055506001831415610ed7576000600283029050600b600087815260200190815260200160002060040154851415610c5e5780600960008973ffffffffffffffffffffffffffffffffffffffff1673ffffffffffffffffffffffffffffffffffffffff168152602001908152602001600020600101600082825401925050819055508181016006600082825403925050819055506001851415610b5657858773ffffffffffffffffffffffffffffffffffffffff167f0c9a151e6d7e4ad0bcfa7a62050b282805d04c54e59654db19dbadd7cb377a9c858460405180806020018060200180602001868152602001858152602001848103845260058152602001807f4865616473000000000000000000000000000000000000000000000000000000815250602001848103835260058152602001807f4865616473000000000000000000000000000000000000000000000000000000815250602001848103825260068152602001807f506c6179657200000000000000000000000000000000000000000000000000008152506020019550505050505060405180910390a3610c59565b858773ffffffffffffffffffffffffffffffffffffffff167f0c9a151e6d7e4ad0bcfa7a62050b282805d04c54e59654db19dbadd7cb377a9c858460405180806020018060200180602001868152602001858152602001848103845260058152602001807f5461696c73000000000000000000000000000000000000000000000000000000815250602001848103835260058152602001807f5461696c73000000000000000000000000000000000000000000000000000000815250602001848103825260068152602001807f506c6179657200000000000000000000000000000000000000000000000000008152506020019550505050505060405180910390a35b610ec2565b81600960008973ffffffffffffffffffffffffffffffffffffffff1673ffffffffffffffffffffffffffffffffffffffff168152602001908152602001600020600101600082825403925050819055506001851415610dbe57858773ffffffffffffffffffffffffffffffffffffffff167f0c9a151e6d7e4ad0bcfa7a62050b282805d04c54e59654db19dbadd7cb377a9c858660405180806020018060200180602001868152602001858152602001848103845260058152602001807f4865616473000000000000000000000000000000000000000000000000000000815250602001848103835260058152602001807f5461696c73000000000000000000000000000000000000000000000000000000815250602001848103825260058152602001807f486f7573650000000000000000000000000000000000000000000000000000008152506020019550505050505060405180910390a3610ec1565b858773ffffffffffffffffffffffffffffffffffffffff167f0c9a151e6d7e4ad0bcfa7a62050b282805d04c54e59654db19dbadd7cb377a9c858660405180806020018060200180602001868152602001858152602001848103845260058152602001807f5461696c73000000000000000000000000000000000000000000000000000000815250602001848103835260058152602001807f4865616473000000000000000000000000000000000000000000000000000000815250602001848103825260058152602001807f486f7573650000000000000000000000000000000000000000000000000000008152506020019550505050505060405180910390a35b5b60028302600760008282540392505081905550505b600283141561113f576000600683029050600b6000878152602001908152602001600020600401548514156110235780600960008973ffffffffffffffffffffffffffffffffffffffff1673ffffffffffffffffffffffffffffffffffffffff16815260200190815260200160002060010160008282540192505081905550818101600660008282540392505081905550858773ffffffffffffffffffffffffffffffffffffffff167ff0f1a71001487cdd2b5333e3fe895c9deb3fd1ed644fc1563fd75591b714062a87600b60008b81526020019081526020016000206004015487866040518085815260200184815260200180602001848152602001838152602001828103825260068152602001807f506c6179657200000000000000000000000000000000000000000000000000008152506020019550505050505060405180910390a361112a565b81600960008973ffffffffffffffffffffffffffffffffffffffff1673ffffffffffffffffffffffffffffffffffffffff16815260200190815260200160002060010160008282540392505081905550858773ffffffffffffffffffffffffffffffffffffffff167ff0f1a71001487cdd2b5333e3fe895c9deb3fd1ed644fc1563fd75591b714062a87600b60008b81526020019081526020016000206004015487886040518085815260200184815260200180602001848152602001838152602001828103825260058152602001807f486f7573650000000000000000000000000000000000000000000000000000008152506020019550505050505060405180910390a35b60068302600760008282540392505081905550505b60038314156118935760011515600a60008873ffffffffffffffffffffffffffffffffffffffff1673ffffffffffffffffffffffffffffffffffffffff16815260200190815260200160002060030160009054906101000a900460ff16151514611211576040517f08c379a000000000000000000000000000000000000000000000000000000000815260040180806020018281038252600f8152602001807f4d7573742062652077616974696e67000000000000000000000000000000000081525060200191505060405180910390fd5b6000801b600a60008873ffffffffffffffffffffffffffffffffffffffff1673ffffffffffffffffffffffffffffffffffffffff16815260200190815260200160002060020154116112cb576040517f08c379a00000000000000000000000000000000000000000000000000000000081526004018080602001828103825260168152602001807f4d757374206861766520686f757365636172642069640000000000000000000081525060200191505060405180910390fd5b6000801b600a60008873ffffffffffffffffffffffffffffffffffffffff1673ffffffffffffffffffffffffffffffffffffffff168152602001908152602001600020600201819055506000600a60008873ffffffffffffffffffffffffffffffffffffffff1673ffffffffffffffffffffffffffffffffffffffff16815260200190815260200160002060030160006101000a81548160ff0219169083151502179055506000600a60008873ffffffffffffffffffffffffffffffffffffffff1673ffffffffffffffffffffffffffffffffffffffff1681526020019081526020016000206001015490506000600a60008973ffffffffffffffffffffffffffffffffffffffff1673ffffffffffffffffffffffffffffffffffffffff1681526020019081526020016000206001018190555060006001600b600089815260200190815260200160002060040154141561142557600190505b6000600b600089815260200190815260200160002060040154141561144957600090505b600060028314156114785760011515821515141561146c57600b85029050611473565b6082850290505b611627565b60038314156114a55760011515821515141561149957600d850290506114a0565b6041850290505b611626565b60048314156114d2576001151582151514156114c657600e850290506114cd565b602a850290505b611625565b60058314156114ff576001151582151514156114f3576010850290506114fa565b6020850290505b611624565b600683141561152c5760011515821515141561152057601285029050611527565b601a850290505b611623565b600783141561154057601585029050611622565b600883141561156d5760011515821515141561156157601a85029050611568565b6012850290505b611621565b600983141561159a5760011515821515141561158e57602085029050611595565b6010850290505b611620565b600a8314156115c7576001151582151514156115bb57602a850290506115c2565b600e850290505b61161f565b600b8314156115f4576001151582151514156115e8576041850290506115ef565b600d850290505b61161e565b600c83141561161d576001151582151514156116155760828502905061161c565b600b850290505b5b5b5b5b5b5b5b5b5b5b5b6000879050600a828161163657fe5b0491506001151583151514801561164c57508381115b8061166657506000151583151514801561166557508381105b5b1561177e5781600960008c73ffffffffffffffffffffffffffffffffffffffff1673ffffffffffffffffffffffffffffffffffffffff16815260200190815260200160002060010160008282540192505081905550848201600660008282540392505081905550888a73ffffffffffffffffffffffffffffffffffffffff167f3f49e8a1c02bb092374df7b4bf984f5f1e89085d4745000dd2d8507511083b068684878b88604051808681526020018581526020018415151515815260200183815260200182815260200180602001828103825260068152602001807f506c617965720000000000000000000000000000000000000000000000000000815250602001965050505050505060405180910390a361187b565b84600960008c73ffffffffffffffffffffffffffffffffffffffff1673ffffffffffffffffffffffffffffffffffffffff16815260200190815260200160002060010160008282540392505081905550888a73ffffffffffffffffffffffffffffffffffffffff167f3f49e8a1c02bb092374df7b4bf984f5f1e89085d4745000dd2d8507511083b068684878b8c604051808681526020018581526020018415151515815260200183815260200182815260200180602001828103825260058152602001807f486f757365000000000000000000000000000000000000000000000000000000815250602001965050505050505060405180910390a35b600d8602600760008282540392505081905550505050505b81600960008873ffffffffffffffffffffffffffffffffffffffff1673ffffffffffffffffffffffffffffffffffffffff16815260200190815260200160002060020160008282540392505081905550505050505050565b6000809054906101000a900473ffffffffffffffffffffffffffffffffffffffff1673ffffffffffffffffffffffffffffffffffffffff163373ffffffffffffffffffffffffffffffffffffffff161461194457600080fd5b6000600654905060006006819055503373ffffffffffffffffffffffffffffffffffffffff166108fc829081150290604051600060405180830381858888f19350505050158015611999573d6000803e3d6000fd5b506000809054906101000a900473ffffffffffffffffffffffffffffffffffffffff1673ffffffffffffffffffffffffffffffffffffffff167f9ca86e26e8d02952f920895df7583aa717e8ebc63cd0708c0879da89b9a07445826040518082815260200191505060405180910390a250565b6000809054906101000a900473ffffffffffffffffffffffffffffffffffffffff1673ffffffffffffffffffffffffffffffffffffffff163373ffffffffffffffffffffffffffffffffffffffff1614611a6557600080fd5b66470de4df82000080341015611ae3576040517f08c379a00000000000000000000000000000000000000000000000000000000081526004018080602001828103825260118152602001807f32302066696e6e6579206d696e696d756d00000000000000000000000000000081525060200191505060405180910390fd5b346006600082825401925050819055503373ffffffffffffffffffffffffffffffffffffffff167f350a7000a835544193f030ad53ca1f667390855a6373fd43a2a998c98bfbf85634600654604051808381526020018281526020019250505060405180910390a250565b600b6020528060005260406000206000915090508060000154908060010160009054906101000a900473ffffffffffffffffffffffffffffffffffffffff16908060020154908060030154908060040154908060050154908060060154905087565b60096020528060005260406000206000915090508060000160009054906101000a900473ffffffffffffffffffffffffffffffffffffffff16908060010154908060020154908060030154905084565b66038d7ea4c6800080341015611c7e576040517f08c379a00000000000000000000000000000000000000000000000000000000081526004018080602001828103825260108152602001807f312066696e6e6579206d696e696d756d0000000000000000000000000000000081525060200191505060405180910390fd5b611c86611fa8565b33816000019073ffffffffffffffffffffffffffffffffffffffff16908173ffffffffffffffffffffffffffffffffffffffff1681525050600960003373ffffffffffffffffffffffffffffffffffffffff1673ffffffffffffffffffffffffffffffffffffffff16815260200190815260200160002060010154816020018181525050600960003373ffffffffffffffffffffffffffffffffffffffff1673ffffffffffffffffffffffffffffffffffffffff16815260200190815260200160002060020154816040018181525050600960003373ffffffffffffffffffffffffffffffffffffffff1673ffffffffffffffffffffffffffffffffffffffff1681526020019081526020016000206003015481606001818152505080600960003373ffffffffffffffffffffffffffffffffffffffff1673ffffffffffffffffffffffffffffffffffffffff16815260200190815260200160002060008201518160000160006101000a81548173ffffffffffffffffffffffffffffffffffffffff021916908373ffffffffffffffffffffffffffffffffffffffff16021790555060208201518160010155604082015181600201556060820151816003015590505034600960003373ffffffffffffffffffffffffffffffffffffffff1673ffffffffffffffffffffffffffffffffffffffff168152602001908152602001600020600101600082825401925050819055503373ffffffffffffffffffffffffffffffffffffffff167f155efc6f27878074d7b21fde35c660b361cb83869a21c2409ed1a562f17e172934600960003373ffffffffffffffffffffffffffffffffffffffff1673ffffffffffffffffffffffffffffffffffffffff16815260200190815260200160002060010154604051808381526020018281526020019250505060405180910390a25050565b6000809054906101000a900473ffffffffffffffffffffffffffffffffffffffff1673ffffffffffffffffffffffffffffffffffffffff163373ffffffffffffffffffffffffffffffffffffffff1614611f8f57600080fd5b3373ffffffffffffffffffffffffffffffffffffffff16ff5b6040518060800160405280600073ffffffffffffffffffffffffffffffffffffffff168152602001600081526020016000815260200160008019168152509056fea265627a7a723158203a15dd1766c2adc9cb2b0d651490ab7f66a5378602bde8ad1eedd73c5bec898764736f6c634300050c0032",
  "source": "import \"./Ownable.sol\";\r\nimport \"./Destroyable.sol\";\r\nimport \"./provableAPI.sol\";\r\nimport \"./Accountable.sol\";\r\n\r\npragma solidity 0.5.12;\r\n\r\ncontract Winnable is Ownable, Destroyable, usingProvable, Accountable {\r\n\r\n    //results events from each game\r\n    event FlipOutResults(address indexed player, bytes32 indexed queryId, string flipResult, string choice, string winner, uint betAmount, uint payOutAmount);\r\n    event RollOutResults(address indexed player, bytes32 indexed queryId, uint rollResult, uint choice, string winner, uint betAmount, uint payOutAmount);\r\n    event DrawOutResults(address indexed player, bytes32 indexed queryId, uint houseCard, uint userCard, bool choseHigher, uint betAmount, uint payOutAmount, string winner);\r\n\r\n    //arguments for payout function come from callback function in Randomised contract\r\n    function payOut(address punter, bytes32 query_id, uint256 result, uint256 game) public {         //game declares which game was played and therefore what payout structure is needed\r\n\r\n        uint256 betAmount = bets[query_id].betAmount;\r\n        uint256 queryPrice = bets[query_id].queryPrice;\r\n        contractBalance += betAmount;\r\n        punters[punter].balance -= betAmount;\r\n\r\n        if (game == 1) {            //game 1 is FlipOut (coinflip)\r\n            uint256 payoutFlip = betAmount * 2;\r\n            if (result == bets[query_id].choice) {          //uint for result and choice will be either 1 for heads or 0 for tails\r\n                punters[punter].balance += payoutFlip;\r\n                contractBalance -= (payoutFlip + queryPrice);      //loser pays for the oracle call\r\n                if (result == 1) {          //1 is heads\r\n                    emit FlipOutResults(punter, query_id, \"Heads\", \"Heads\", \"Player\", betAmount, payoutFlip);\r\n                } else {\r\n                    emit FlipOutResults(punter, query_id, \"Tails\", \"Tails\", \"Player\", betAmount, payoutFlip);\r\n                }\r\n            } else {\r\n                punters[punter].balance -= queryPrice;      //loser pays for the oracle call\r\n                if (result == 1) {          //1 is heads\r\n                    emit FlipOutResults(punter, query_id, \"Heads\", \"Tails\", \"House\", betAmount, betAmount);\r\n                } else {\r\n                    emit FlipOutResults(punter, query_id, \"Tails\", \"Heads\", \"House\", betAmount, betAmount);\r\n                }\r\n            }\r\n            pendingPayouts -= (betAmount * 2);         //amount allocated to pending when initiating FlipOut bet\r\n        }\r\n\r\n        if (game == 2) {            //game 2 is RollOut (dice roll)\r\n            uint256 payoutRoll = betAmount * 6;       //payout is 6 times bet as odds are 6 to 1\r\n            if (result == bets[query_id].choice) {\r\n                punters[punter].balance += payoutRoll;\r\n                contractBalance -= (payoutRoll + queryPrice);      //loser pays for the oracle call\r\n                emit RollOutResults(punter, query_id, result, bets[query_id].choice, \"Player\", betAmount, payoutRoll);\r\n            } else {\r\n                punters[punter].balance -= queryPrice;      //loser pays for the oracle call\r\n                emit RollOutResults(punter, query_id, result, bets[query_id].choice, \"House\", betAmount, betAmount);\r\n            }\r\n            pendingPayouts -= (betAmount * 6);         //amount allocated to pending when initiating RollOut bet\r\n        }\r\n\r\n        if (game == 3) {            //game 3 is DrawOut (high card draw)\r\n            require(cards[punter].waiting == true, \"Must be waiting\");      //waiting will be true if house card has been dealt\r\n            require(cards[punter].cardId > 0, \"Must have housecard id\");    //cardId is generated in contract and reset to 0 after bet\r\n            cards[punter].cardId = 0;           //cardId reset to 0 as it helps to ensure id has been updated nfor subsequent bets\r\n            cards[punter].waiting = false;          //reset to false, ready for next bet\r\n            uint256 houseCard = cards[punter].houseCard;\r\n            cards[punter].houseCard = 0;            //reset card to 0 for next bet\r\n            bool high;\r\n            if (bets[query_id].choice == 1) high = true;        //turns integer argument into bool for less confusion in payout structure below\r\n            if (bets[query_id].choice == 0) high = false;\r\n\r\n            //payout structure is a house card dependent payout due to the changing odds of each card and subsequent high/low choice\r\n            //no payout if house card is 1 or 13 (Ace or King) as there is no high/low choice available for these cards, user card will not be requested\r\n            uint256 payoutDraw;\r\n            if (houseCard == 2) {\r\n                if (high == true) {\r\n                    payoutDraw = betAmount * 11;\r\n                } else {\r\n                    payoutDraw = betAmount * 130;\r\n                }\r\n            } else if (houseCard == 3) {\r\n                if (high == true) {\r\n                    payoutDraw = betAmount * 13;\r\n                } else {\r\n                    payoutDraw = betAmount * 65;\r\n                }\r\n            } else if (houseCard == 4) {\r\n                if (high == true) {\r\n                    payoutDraw = betAmount * 14;\r\n                } else {\r\n                    payoutDraw = betAmount * 42;\r\n                }\r\n            } else if (houseCard == 5) {\r\n                if (high == true) {\r\n                    payoutDraw = betAmount * 16;\r\n                } else {\r\n                    payoutDraw = betAmount * 32;\r\n                }\r\n            } else if (houseCard == 6) {\r\n                if (high == true) {\r\n                    payoutDraw = betAmount * 18;\r\n                } else {\r\n                    payoutDraw = betAmount * 26;\r\n                }\r\n            } else if (houseCard == 7) {\r\n                payoutDraw = betAmount * 21;\r\n            } else if (houseCard == 8) {\r\n                if (high == true) {\r\n                    payoutDraw = betAmount * 26;\r\n                } else {\r\n                    payoutDraw = betAmount * 18;\r\n                }\r\n            } else if (houseCard == 9) {\r\n                if (high == true) {\r\n                    payoutDraw = betAmount * 32;\r\n                } else {\r\n                    payoutDraw = betAmount * 16;\r\n                }\r\n            } else if (houseCard == 10) {\r\n                if (high == true) {\r\n                    payoutDraw = betAmount * 42;\r\n                } else {\r\n                    payoutDraw = betAmount * 14;\r\n                }\r\n            } else if (houseCard == 11) {\r\n                if (high == true) {\r\n                    payoutDraw = betAmount * 65;\r\n                } else {\r\n                    payoutDraw = betAmount * 13;\r\n                }\r\n            } else if (houseCard == 12) {\r\n                if (high == true) {\r\n                    payoutDraw = betAmount * 130;\r\n                } else {\r\n                    payoutDraw = betAmount * 11;\r\n                }\r\n            }\r\n\r\n            uint256 userCard = result;      //result passed to payout function from callback function in Randomised contract\r\n\r\n            payoutDraw = payoutDraw / 10;       //payout amount divided by 10 as payout amounts, in payout structure above, are 10x higher to avoid floating point numbers\r\n\r\n            if ((high == true && userCard > houseCard) || (high == false && userCard < houseCard)) {\r\n                punters[punter].balance += payoutDraw;\r\n                contractBalance -= (payoutDraw + queryPrice);      //loser pays for the oracle call\r\n                emit DrawOutResults(punter, query_id, houseCard, userCard, high, betAmount, payoutDraw, \"Player\");\r\n            } else {\r\n                punters[punter].balance -= queryPrice;      //loser pays for the oracle call\r\n                emit DrawOutResults(punter, query_id, houseCard, userCard, high, betAmount, betAmount, \"House\");\r\n            }\r\n            pendingPayouts -= (betAmount * 13);         //amount allocated to pending when initiating DrawOut bet\r\n        }\r\n        punters[punter].pendingBets -= betAmount;\r\n    }\r\n}\r\n",
  "sourcePath": "D:\\Justin\\Documents\\Justin\\Ethereum\\blockPunt\\contracts\\Winnable.sol",
  "compiler": {
    "name": "solc",
    "version": "0.5.12+commit.7709ece9.Emscripten.clang"
  },
  "schemaVersion": "3.0.16",
  "updatedAt": "2020-10-24T08:19:39.250Z",
  "devdoc": {
    "methods": {
      "__callback(bytes32,string)": {
        "details": "The following `__callback` functions are just placeholders ideally     meant to be defined in child contract when proofs are used.     The function bodies simply silence compiler warnings."
      }
    }
  },
  "userdoc": {
    "methods": {}
  }
}